:100000000C94BC000C94D9000C94D9000C94D90029
:100010000C94D9000C94D9000C94D9000C94D900FC
:100020000C94D9000C94D9000C94D9000C94D900EC
:100030000C94D9000C94D9000C94D9000C94D900DC
:100040000C94D9000C94D9000C94D9000C94D900CC
:100050000C94D9000C94D9000C94D9000C94D900BC
:100060000C94D9000C94D9000C94D9000C94D900AC
:100070000C94D9000C94D9000C94D9000C94D9009C
:100080000C94D9000C94D9000C94D9000C94D9008C
:100090000C94D9000C94D9000C94D9000C94D9007C
:1000A0000C94D9000C94D9000C94D9000C94D9006C
:1000B0000C94D9000C94D9000C94D9000C94D9005C
:1000C0000C94D9000C94D9000C94D9000C94D9004C
:1000D0000C94D9000C94D9000C94D9000C94D9003C
:1000E0000C94D9000C94D9000C94D9000C94D9002C
:1000F0000C94D9000C94D9000C94D9000C94D9001C
:100100000C94D9000C94D9000C94D9000C94D9000B
:100110000C94D9000C94D9000C94D9000C94D900FB
:100120000C94D9000C94D9000C94D9000C94D900EB
:100130000C94D9000C94D9000C94D9000C94D900DB
:100140000C94D9000C94D9000C94D9000C94D900CB
:100150000C94D9000C94D9000C94D9000C94D900BB
:100160000C94D9000C94D9000C94D9000C94D900AB
:100170000C94D9000C94D90011241FBECFEFCDBF31
:10018000D7E2DEBF10E2A0E0B0E2E4ECF3E002C0B0
:1001900005900D92A630B107D9F720E2A6E0B0E2B3
:1001A00001C01D92AF31B207E1F70E9485010C94A6
:1001B000E0010C940000AF92CF92EF920F93FC01FC
:1001C00060837183428353831482C11002C080E034
:1001D00001C080E89A2D9064A92EA82A211102C09E
:1001E00080E001C080E2A82A00610A29DB010C93AB
:1001F000A081B1811196EC92158216820280F38162
:10020000E02D80EA81830F91EF90CF90AF90089519
:10021000EF920F931F93FC0100831183E2826383AB
:100220007483458356832783108611861F910F910F
:10023000EF900895DC01ED91FC9111976383ED91AE
:10024000FC9182818823ECF783810895CF93DF931B
:10025000DC01FB01309709F44EC015966D937C9339
:1002600016977281C081D181209709F446C07E83A0
:100270006781662349F120E030E080E0A90115960E
:10028000ED91FC9116970380F481E02DE20FF31FAE
:100290009081ED91FC9111979383ED91FC911197D1
:1002A00092819923ECF793811596ED91FC91169725
:1002B0000580F681E02DE40FF51F90838F5F2F5F9F
:1002C0003F4F8617D8F201C080E01596ED91FC9162
:1002D00016970190F081E02D309709F075831596FF
:1002E000ED91FC91169780871596ED91FC911697EC
:1002F00081E0818707C080E005C067816111BBCFC5
:1003000080E0EDCFDF91CF910895C0E6D6E010E117
:10031000198388E38C8B1D83A12CC12CE12C00E078
:1003200020E040E656E060EC79E08AE090E20E944E
:10033000DB001E83C1E0D0E205E010E20F2EFBE1FE
:10034000EF2EF0E2FF2EF02D6E0168818AE090E240
:100350000E941A01D701ED91FC9182818823ECF76C
:1003600083818F5F838360E08AE090E20E941A01BC
:100370002196282F30E0F601808190E00196281721
:10038000390711F010920020C017D107E9F680E17B
:10039000809365066894EE24E4F800E616E024E015
:1003A00046E050E261E070E281E190E20E940801E3
:1003B00061E170E28AE090E20E9426010000FECF37
:0403C000F894FFCFDF
:0603C40001112233440088
:00000001FF
