S01400006265756E426F6172645350492E7372656392
S11300000C94C4010C94E5010C94E5010C94E501F5
S11300100C94E5010C94E5010C94E5010C94E501C4
S11300200C94E5010C94E5010C94E5010C94E501B4
S11300300C94E5010C94E5010C94E5010C94E501A4
S11300400C94E5010C94E5010C94E5010C94E50194
S11300500C94E5010C94E5010C94E5010C94E50184
S11300600C94E5010C94E5010C94E5010C94E50174
S11300700C94E5010C94E5010C94E5010C94E50164
S11300800C94E5010C94E5010C94E5010C94E50154
S11300900C94E5010C94E5010C94E5010C94E50144
S11300A00C94E5010C94E5010C94E5010C94E50134
S11300B00C94E5010C94E5010C94E5010C94E50124
S11300C00C94E5010C94E5010C94E5010C94E50114
S11300D00C94E5010C94E5010C94E5010C94E50104
S11300E00C94E5010C94E5010C94E5010C94E501F4
S11300F00C94E5010C94E5010C94E5010C94E501E4
S11301000C94E5010C94E5010C94E5010C94E501D3
S11301100C94E5010C94E5010C94E5010C94E501C3
S11301200C94E5010C94E5010C94E5010C94E501B3
S11301300C94E5010C94E5010C94E5010C94E501A3
S11301400C94E5010C94E5010C94E5010C94E50193
S11301500C94E5010C94E5010C94E5010C94E50183
S11301600C94E5010C94E5010C94E5010C94E50173
S11301700C94E5010C94E5010C94E5010C94E50163
S11301800C94E5010C94E5010C94E5010C94E50153
S11301900C94E5010C94E5010C94E5010C94E50143
S11301A00C94E5010C94E5010C94E5010C94E50133
S11301B00C94E5010C94E5010C94E5010C94E50123
S11301C00C94E5010C94E5010C94E5010C94E50113
S11301D00C94E5010C94E5010C94E5010C947F0862
S11301E00C94A7080C94E5010C94E5010C94E5012A
S11301F00C94E5010C94E5010C94E5010763423687
S1130200B79BD8A71A39685618AEBAAB558C1D3CA3
S1130210B7CC5763BD6DEDFD753EF6177231BF0067
S11302200000803F08000000BE922449123EABAAA1
S1130230AA2ABECDCCCC4C3E00000080BEABAAAAFC
S1130240AA3E00000000BF000000803F0000000044
S113025000084178D3BB4387D1133D190E3CC3BD7D
S11302604282AD2B3E68EC8276BED98FE1A93E4C2A
S113027080EFFFBE01C4FF7F3F00000000000C942C
S11302805D070C941D076E616E00696E6600004088
S11302907A10F35A00A0724E18090010A5D4E80091
S11302A000E87648170000E40B54020000CA9A3BA9
S11302B0000000E1F505000080969800000040422F
S11302C00F000000A08601000000102700000000BD
S11302D0E803000000006400000000000A000000C1
S11302E000000100000000002C76D888DC674F086D
S11302F023DFC1DFAE59E1B1B796E5E3E453C63A73
S1130300E651997696E8E6C28426EB898C9B62EDE9
S1130310407C6FFCEFBC9C9F40F2BAA56FA5F490A3
S1130320055A2AF75C936B6CF9676DC11BFCE0E41A
S11303300D47FEF520E6B500D0ED902E0300943570
S113034077050080841E080000204E0A000000C8C3
S11303500C333333330F986E12831141EF8D211414
S1130360893BE65516CFFEE6DB18D1844B381BF7E4
S11303707C1D901DA4BBE424203284725E22810083
S1130380C9F124ECA1E53D2711241FBECFEFCDBF59
S1130390DFE5DEBF00E00CBF12E2A0E0B0E2EEE871
S11303A0F5E200E00BBF02C007900D92AA3CB10732
S11303B0D9F724E2AAECB2E201C01D92AE35B2072D
S11303C0E1F70E94EF080C94C5120C940000E0E0E1
S11303D0F6E081E0828398E1908B22E0218320E49F
S11303E02183968BE0E6F6E0828380E1808B08959A
S11303F0CF938091080680FD17C003C0808580FDDF
S113040006C086E190E20E943712C1E017C083EF74
S113041091E00197F1F700C00000C15079F782E242
S113042090E20E9437120AC083EF91E00197F1F73E
S113043000C00000CCE7E0E0F6E0E0CF8C2FCF91E5
S113044008959F92AF92BF92CF92DF92EF92FF9264
S11304500F931F93CF93DF93C82FD62F80E48093FD
S113046006060E94F801882309F463C0689499245D
S113047092F89D0E82E390E20E94371280E180930D
S1130480660680E48093050683E490E20E943712B6
S1130490892D0E94E50880E00E94E5088C2F0E94C7
S11304A0E508EC2FF0E0E153FD4D808191E0980FD9
S11304B090830E94E508DD2359F10F2EFBECAF2E4B
S11304C0F3E2BF2EF02DD1506D2F70E0CB01845399
S11304D09C4D6C01E5010EE510E27E0188811F92BE
S11304E08F93CE018A199B099F938F931F930F9328
S11304F00E9423122196F70180810E94E5080F9043
S11305000F900F900F900F900F90CC15DD0529F7E9
S113051080E1809365061F929F9281E790E29F930A
S11305208F930E9423120F900F900F900F9081E0F1
S113053004C080E48093050680E0DF91CF911F9191
S11305400F91FF90EF90DF90CF90BF90AF909F906E
S11305500895CF93C82F83E890E20E943712EBEC02
S1130560F3E282EF80838091CE2291E0980F909302
S1130570CE228183C2836CE082E00E942102CF916B
S11305800895CF93C82F80E990E20E943712EEECD1
S1130590F3E287ED93E21192E817F907E1F7C1114D
S11305A004C081E08093CE231AC0C13021F481E0DD
S11305B08093CF2314C0C23021F481E08093D023F0
S11305C00EC0C33021F481E08093D22308C0C4302C
S11305D031F4EBECF3E281E083838483858381E06F
S11305E080934D2487E00E94A902CF910895CF9271
S11305F0DF92FF920F931F93CF93DF93F82E6B013B
S1130600022F132FD42FC52F8BEA90E20E943712AA
S11306109601A8EEB3E00E94EA10EBECF3E22DEFB2
S11306202083F18212821382148265837683878306
S11306309087118612861386148605871687D787B6
S1130640C08B61E182E00E942102DF91CF911F9172
S11306500F91FF90DF90CF900895EF92FF920F9348
S11306601F93CF93DF930E94F801811106C08FEB93
S113067090E20E94371280E045C085ED90E20E942E
S1130680371280E18093660680E00E94E508082F17
S113069080E00E94E508C82F80E00E94E508D82F7A
S11306A080E00E94E508E4EAF3E20083C183D28398
S11306B0838310E01C2B1F770115110529F480E1B9
S11306C08093650680E01EC004501109B9F00F2E16
S11306D0FBECEF2EF3E2FF2EF02DC0E0D0E080E043
S11306E00E94E508C038D10510F4F70180832196F3
S11306F0FFEFEF1AFF0AC017D10788F380E1809358
S1130700650681E0DF91CF911F910F91FF90EF90EB
S113071008950E94E7010E94D80880E1809365064D
S1130720E0E0F6E080E4858382E08683A7EEB3E030
S11307301197F1F700C00000858387EE90E20E94D4
S113074037120E94F80182EF90E20E9437120E9451
S1130750F8010E942D038DEF90E20E9437120E944F
S1130760F8010E942D03EBECF3E289EF8083118200
S113077088E091E20E94371262E082E00E94210246
S11307808CE191E20E9437120E94F8010E942D032D
S11307908823A1F08091CB23883F51F48BE291E22E
S11307A09F938F930E9423120F900F9081E00895DE
S11307B080E491E20E94371280E0089580E0089579
S11307C0BF92CF92DF92EF92FF920F931F93CF933A
S11307D0DF9386E591E20E943712CBECD3E22C81C1
S11307E08B8190E0A0E0B0E0DC0199278827B22B50
S11307F02981822B2A81922B8093AC239093AD2361
S1130800A093AE23B093AF238F818370B82EEA8474
S1130810F12CFE2CEE248985E82A0C8510E0102F9B
S113082000278B85082B8E8590E0982F88272D85AF
S11308306C01C22A8D811F928F938AE691E29F9365
S11308408F930E9423128D810F900F900F900F9021
S11308508130D1F480E891E20E9437128B2D90E030
S11308608093522490935324E0924B24F0924C248E
S11308700093562410935724C092BF23D092C023D0
S113088081E08093D52253C08430D1F48EE891E284
S11308900E9437128B2D90E08093BB239093BC234E
S11308A0E092B323F092B42300934E2410934F2488
S11308B0C092C523D092C62384E08093D52237C04A
S11308C08230D1F482EA91E20E9437128B2D90E0BB
S11308D08093C7239093C823E092C923F092CA233C
S11308E00093B7231093B823C092B523D092B623B4
S11308F082E08093D5221BC08330C9F48CEA91E254
S11309000E9437128B2D90E08093A8239093A92303
S1130910E092B923F092BA23009350241093512407
S1130920C092BD23D092BE2383E08093D522DF9171
S1130930CF911F910F91FF90EF90DF90CF90BF90D8
S11309400895CF93DF93EC0180ED91E20E9437127A
S113095020E030E0A901BE0181E00E94F702DF91AE
S1130960CF910895CF93DF93EC0184EE91E20E943E
S1130970371220E030E0A901BE0184E00E94F702B2
S1130980DF91CF910895CF93DF93EC018FEF91E244
S11309900E94371220E030E0A901BE0182E00E94EB
S11309A0F702DF91CF910895CF93DF93EC018AE0B2
S11309B092E20E94371220E030E0A901BE0183E0F8
S11309C00E94F702DF91CF9108958DE192E20E9497
S11309D037128091CB23813F41F48091CD2387301E
S11309E021F48091D02380934D240895CF93809156
S11309F0080680FD1DC00E942D03C82F8823E9F03E
S1130A0083E392E20E9437128091A623833059F443
S1130A108091CB238B3F71F40E94E00384E492E243
S1130A200E9437120AC0823039F40E94E50405C0DE
S1130A30C0E003C0C0E001C0C0E08C2FCF91089596
S1130A40CF92DF92EF92FF92CF93C62FBC01990F02
S1130A50880B990B0E948D0A6B017C016C2F70E04E
S1130A60719561957109072E000C880B990B0E94F2
S1130A708D0A9B01AC0160E070E080E090E40E948C
S1130A80860B9B01AC01C701B6010E94190BCF91E3
S1130A90FF90EF90DF90CF900895609106208091B1
S1130AA04B2490914C240E942005089560910620C7
S1130AB080915624909157240E94200508956091B6
S1130AC006208091BF239091C0230E9420050895A1
S1130AD0609104208091B3239091B4230E94200557
S1130AE008956091042080914E2490914F240E9497
S1130AF020050895609104208091C5239091C62318
S1130B000E94200508958091BB23089560910220DE
S1130B108091C9239091CA230E9420050895609171
S1130B2002208091B7239091B8230E942005089554
S1130B30609102208091B5239091B6230E942005F4
S1130B400895609100208091B9239091BA230E9466
S1130B5020050895609100208091502490915124A3
S1130B600E9420050895609100208091BD239091FA
S1130B70BE230E94200508958091680680FF0CC062
S1130B8081E08093B02384E592E29F938F930E9447
S1130B9023120F900F9008951092B02386E692E2EC
S1130BA09F938F930E9423120F900F9008950E9499
S1130BB08903882319F00E94BC0581E00895CF922F
S1130BC0DF92EF92FF920F931F93CF93DF93809165
S1130BD0D522813009F043C08091CC228F5F80936D
S1130BE0CC220E944D05C62FD72F182F092F0E9403
S1130BF05605F62EE72ED82EC92E0E945F052091A9
S1130C0053242F93209152242F939F938F937F9358
S1130C106F93CF92DF92EF92FF920F931F93DF9324
S1130C20CF9386E792E29F938F930E942312809141
S1130C3068062DB73EB7205F3F4F2DBF3EBF80FFF4
S1130C400EC080915224909153240297029738F455
S1130C508091CC228D3318F081E08093CD22DF91F6
S1130C60CF911F910F91FF90EF90DF90CF90089557
S1130C70CF92DF92EF92FF920F931F93CF93DF9364
S1130C808091D522823009F043C08091CB228F5FBE
S1130C908093CB220E948605C62FD72F182F092FA9
S1130CA00E948F05F62EE72ED82EC92E0E94980595
S1130CB02091C8232F932091C7232F939F938F9321
S1130CC07F936F93CF92DF92EF92FF920F931F93D4
S1130CD0DF93CF9386E792E29F938F930E94231230
S1130CE0809168062DB73EB7205F3F4F2DBF3EBFB2
S1130CF080FF0EC08091C7239091C823029702976A
S1130D0038F48091CB228F3118F082E08093CD2289
S1130D10DF91CF911F910F91FF90EF90DF90CF90D3
S1130D200895CF92DF92EF92FF920F931F93CF9388
S1130D30DF938091D522833009F043C08091CA2289
S1130D408F5F8093CA220E94A105C62FD72F182F28
S1130D50092F0E94AA05F62EE72ED82EC92E0E942E
S1130D60B3052091A9232F932091A8232F939F9318
S1130D708F937F936F93CF92DF92EF92FF920F93B3
S1130D801F93DF93CF9386E792E29F938F930E9402
S1130D902312809168062DB73EB7205F3F4F2DBFC9
S1130DA03EBF80FF0EC08091A8239091A923029793
S1130DB0029738F48091CA228D3318F083E080932F
S1130DC0CD22DF91CF911F910F91FF90EF90DF9093
S1130DD0CF9008958091CD22811102C00E94DF0539
S1130DE08091CD22813011F40E9438068091CD2269
S1130DF0823011F40E949106089580913B239091D2
S1130E003A23891710F0891B08958C59891B08957A
S1130E10CF93C0913A230E94FD068823E1F3EC2F7F
S1130E20F0E0EA52FD4D808191E09C0F943608F089
S1130E3090E090933A23CF9108950E94080790E0A0
S1130E4008952091A12391E0920F8091A0239436DC
S1130E5010F09DE9920F891710F0891B08958C59A1
S1130E60891B08950F931F93CF93DF93D82F00EA24
S1130E701BE0C1E202C0F801C3830E94210788235A
S1130E80D1F38091A123E82FF0E0E45CFC4DD08302
S1130E908F5F843608F080E0E0EAF0E09281292F49
S1130EA02E7F22838093A12381E28093A30B9283DC
S1130EB0DF91CF911F910F910895CF93DF93D82F96
S1130EC0CFEF03C0CC2391F0C1500E9421078823A7
S1130ED0C9F3CC2371F0DA3019F48DE00E943207A3
S1130EE08D2F0E94320780E090E005C081E090E001
S1130EF002C081E090E0DF91CF9108954F925F921C
S1130F006F927F928F929F92AF92BF92EF92FF92D5
S1130F100F931F93CF934B015C0107E010E0C9EFDF
S1130F20EE24E394F12CCC2354F5C501B4010E94C2
S1130F308B0A20E030E041EE59E40E94EA0920E007
S1130F4030E040E85FE30E947D092B013C01B701DA
S1130F50002E02C0660F771F0A94E2F7072E000CDA
S1130F60880B990B0E948D0A9B01AC01C301B2014D
S1130F700E94190B0E94D60B0E945C0A2CC0C5016A
S1130F80B4010E948B0A20E030E041EE59E40E9453
S1130F90EA092B013C0188279927801B910BB70193
S1130FA002C0660F771F8A95E2F7072E000C880BA4
S1130FB0990B0E948D0A9B01AC01C301B2010E94EE
S1130FC0EA0920E030E040E85FE30E947D090E94E6
S1130FD0D60B0E945C0A6115704138F0CF5F015056
S1130FE01109C83009F09FCF31C0CC237CF5C5016D
S1130FF0B4010E948B0A20E030E041EE59E40E94E3
S1131000EA0920E030E040E85FE30E947D094B01FB
S11310105C012C2F332721950CF4309561E070E0AE
S113102002C0660F771F2A95E2F7072E000C880B83
S1131030990B0E948D0A9B01AC01C501B4010E9469
S1131040190B0E94D60B0E945C0A2AC0C501B40188
S11310500E948B0A20E030E041EE59E40E94EA0944
S11310604B015C0161E070E00C2E02C0660F771F3B
S11310700A94E2F7072E000C880B990B0E948D0A44
S11310809B01AC01C501B4010E94EA0920E030E0F3
S113109040E85FE30E947D090E94D60B0E945C0A2F
S11310A0E0EAF6E088E1828B98E09583918394E00E
S11310B09283E0EAFBE066837F70C295C07FC72B12
S11310C0C783848380E28383E0EAF0E082818360E3
S11310D08283E8E5F4E288E090E28083918382836E
S11310E09383CF911F910F91FF90EF90BF90AF909A
S11310F09F908F907F906F905F904F9008951F9274
S11311000F920FB60F9211240BB60F928F939F93E9
S1131110EF93FF9380913B23E82FF0E09091A00B95
S1131120EA52FD4D90838F5F843608F080E0909101
S11311303A23891380933B23FF91EF919F918F91E1
S11311400F900BBE0F900FBE0F901F9018951F921B
S11311500F920FB60F9211240BB60F922F938F9309
S11311609F93EF93FF938091A0239091A1238917DC
S113117069F0E82FF0E0E45CFC4D20812093A00BA3
S11311808F5F843608F080E0891304C080E2809386
S1131190A30B892F8093A023FF91EF919F918F91AF
S11311A02F910F900BBE0F900FBE0F901F901895AC
S11311B0E0E6F6E080EB818380E4828380E1868B45
S11311C085838CE58093C00908958093C309E0EC7E
S11311D0F9E082818823ECF78091C30908956F9226
S11311E07F928F929F92AF92BF92CF92DF92EF92B3
S11311F0FF920F931F93CF93DF93E0E6F6E084E032
S11312008183858360E874E88EE190E00E947E0724
S113121078940E94D705882309F45EC08091B02396
S1131220813091F484E00E94C10284E690E00E943F
S1131230A10484E690E00E94C30484E690E00E9446
S1131240D404CCE9D2E23AC0811142C088EE93E0E2
S11312500E94B204F6CF0E94F604882379F18091AB
S1131260D522843059F50E946805162F072FF82ED1
S1131270E92E0E947105D62EC72EB82EA92E0E94E3
S11312807A05962E872E782E692E0E9483051F924A
S11312908F936F927F928F929F92AF92BF92CF92D1
S11312A0DF92EF92FF920F931F93DF93CF930E94ED
S11312B023128DB79EB740968DBF9EBF8091B023F9
S11312C0882349F205C00E94F60481110E94EA06AF
S11312D08091B0238130B9F380E090E0DF91CF9129
S11312E01F910F91FF90EF90DF90CF90BF90AF9040
S11312F09F908F907F906F9008955058BB27AA2796
S11313000E9495090C94DF0A0E94D10A38F00E94C9
S1131310D80A20F039F49F3F19F426F40C94CE0A2D
S11313200EF4E095E7FB0C94C80AE92F0E94F00A3A
S113133058F3BA17620773078407950720F079F406
S1131340A6F50C94120B0EF4E0950B2EBA2FA02DDB
S11313500B01B90190010C01CA01A0011124FF275E
S1131360591B99F0593F50F4503E68F11A16F04059
S1131370A22F232F342F4427585FF3CF4695379558
S11313802795A795F0405395C9F77EF41F16BA0B1D
S1131390620B730B840BBAF09150A1F0FF0FBB1FCB
S11313A0661F771F881FC2F70EC0BA0F621F731F14
S11313B0841F48F4879577956795B795F7959E3F71
S11313C008F0B0CF9395880F08F09927EE0F979502
S11313D0879508950E94FE090C94DF0A0E94D80A9A
S11313E058F00E94D10A40F029F45F3F29F00C9490
S11313F0C80A51110C94130B0C94CE0A0E94F00AE3
S113140068F39923B1F3552391F3951B550BBB272F
S1131410AA2762177307840738F09F5F5F4F220F74
S1131420331F441FAA1FA9F335D00E2E3AF0E0E86B
S113143032D091505040E695001CCAF72BD0FE2FB5
S113144029D0660F771F881FBB1F26173707480749
S1131450AB07B0E809F0BB0B802DBF01FF27935801
S11314605F4F3AF09E3F510578F00C94C80A0C94F3
S1131470130B5F3FE4F3983ED4F386957795679515
S1131480B795F7959F5FC9F7880F911D9695879536
S113149097F90895E1E0660F771F881FBB1F621755
S11314A073078407BA0720F0621B730B840BBA0B13
S11314B0EE1F88F7E09508950E94F80A88F09F5778
S11314C098F0B92F9927B751B0F0E1F0660F771F64
S11314D0881F991F1AF0BA95C9F714C0B13091F05A
S11314E00E94120BB1E008950C94120B672F782F11
S11314F08827B85F39F0B93FCCF38695779567951F
S1131500B395D9F73EF490958095709561957F4F8A
S11315108F4F9F4F0895E89409C097FB3EF4909530
S11315208095709561957F4F8F4F9F4F9923A9F0B8
S1131530F92F96E9BB279395F69587957795679547
S1131540B795F111F8CFFAF4BB0F11F460FF1BC08B
S11315506F5F7F4F8F4F9F4F16C0882311F096E91E
S113156011C0772321F09EE8872F762F05C06623CC
S113157071F096E8862F70E060E02AF09A95660F85
S1131580771F881FDAF7880F9695879597F908953E
S113159097F99F6780E870E060E008959FEF80EC22
S11315A0089500240A9416161706180609060895C5
S11315B000240A9412161306140605060895092E2B
S11315C00394000C11F4882352F0BB0F40F4BF2B9A
S11315D011F460FF04C06F5F7F4F8F4F9F4F0895DA
S11315E057FD9058440F551F59F05F3F71F04795D0
S11315F0880F97FB991F61F09F3F79F087950895B5
S1131600121613061406551FF2CF4695F1DF08C0D3
S1131610161617061806991FF1CF869571056105F0
S113162008940895E894BB2766277727CB0197F998
S113163008950E942C0B0C94DF0A0E94D10A38F002
S11316400E94D80A20F0952311F00C94C80A0C9437
S1131650CE0A11240C94130B0E94F00A70F3959F88
S1131660C1F3950F50E0551F629FF001729FBB2795
S1131670F00DB11D639FAA27F00DB11DAA1F649F31
S11316806627B00DA11D661F829F2227B00DA11DE4
S1131690621F739FB00DA11D621F839FA00D611D6A
S11316A0221F749F3327A00D611D231F849F600D8B
S11316B0211D822F762F6A2F11249F5750409AF0B4
S11316C0F1F088234AF0EE0FFF1FBB1F661F771F40
S11316D0881F91505040A9F79E3F510580F00C940B
S11316E0C80A0C94130B5F3FE4F3983ED4F3869539
S11316F077956795B795F795E7959F5FC1F7FE2BAB
S1131700880F911D9695879597F90895FA01EE0F24
S1131710FF1F309621053105A1F16115710561F4B2
S11317208038BFE39B0749F168949038810561F0E4
S11317308038BFEF9B0741F099234AF5FF3FE1054D
S11317403105210519F1E8940894E795D901AA23F4
S113175029F4AB2FBE2FF85FD0F310C0FF5F70F4F5
S1131760A695E0F7F73950F019F0FF3A38F49F776F
S11317709F930DD00F9007FC9058089546F00C9459
S1131780CE0A60E070E080E89FE308954FE79F771A
S11317905F934F933F932F930E94CE0C2F913F91D1
S11317A04F915F910E94190B0C94020C0E94F80A4D
S11317B0E8F09E37E8F09639B8F49E3848F4672F7D
S11317C0782F8827985FF9CF8695779567959395B5
S11317D09539D0F3B62FB1706B0F711D811D20F4B4
S11317E087957795679593950C94340C0C944F0CCE
S11317F00C94130B29F416F00C94C80A0C94120BD5
S11318000C94CE0A0E94F80AA8F39638A0F707F8B9
S11318100F92E8942BE33AEA48EB5FE70E942F0B20
S11318200F920F920F924DB75EB70F920E94160D52
S1131830ECEFF1E00E945D0C4F915F91EF91FF910D
S1131840E595EE1FFF1F49F0FE57E0684427EE0FB1
S1131850441FFA95E1F74195550B0E94900C0F90A7
S113186007FE0C94840C0895882371F4772321F0E7
S11318709850872B762F07C0662311F499270DC043
S11318809051862B70E060E02AF09A95660F771FDE
S1131890881FDAF7880F9695879597F908959F3FE3
S11318A031F0915020F4879577956795B795880F17
S11318B0911D9695879597F90895DF93CF931F937C
S11318C00F93FF92EF92DF927B018C01689406C024
S11318D0DA2EEF010E942C0BFE01E894A5912591CC
S11318E0359145915591A6F3EF010E949509FE01AA
S11318F09701A801DA9469F7DF90EF90FF900F91B8
S11319001F91CF91DF9108959B01AC0160E070E0DD
S113191080E89FE30C94EA090C94C80A0C944F0CD9
S11319200E94F80AD8F39923C9F3940F511DA3F325
S11319309150504094F059F0882332F0660F771F8D
S1131940881F91505040C1F79E3F51052CF7880FD6
S1131950911D9695879597F908955F3FACF0983E51
S11319609CF0BB27869577956795B79508F4B16089
S11319709395C1F7BB0F58F711F460FFE8CF6F5F81
S11319807F4F8F4F9F4FE3CF0C94130B16F00C94A3
S11319904F0C0C94CE0A68940C94C80A0E94F80A5E
S11319A0A8F39923C1F3AEF3DF93CF931F930F935F
S11319B0FF92C92FDD2788232AF02197660F771F0E
S11319C0881FDAF720E030E040E85FEB9FE38839D6
S11319D020F0803E38F021968F770E947E09E4E261
S11319E0F2E004C00E947E09E1E5F2E00E945D0C91
S11319F08B01BE01EC01FB2E6F5771097595771FA2
S1131A00880B990B0E948D0A28E132E741E35FE3DA
S1131A100E942C0BAF2D9801AE01FF900F911F91E6
S1131A20CF91DF910E9495090C94DF0AFA01DC0141
S1131A30AA0FBB1F9B01AC01BF5728F422273327F1
S1131A404427507820C0B75190F4AB2F002446951A
S1131A5037952795011CA395D2F3002071F0220F2E
S1131A60331F441FB395DAF30ED00C947D09613013
S1131A707105A0E88A07B94630F49B01AC016627DA
S1131A80772788279078309621F02083318342830A
S1131A90538308952F923F924F925F926F927F9259
S1131AA08F929F92AF92BF92CF92DF92EF92FF926A
S1131AB00F931F93CF93DF93CDB7DEB76097CDBF5E
S1131AC0DEBF7C011B016A01FC011682178283813F
S1131AD081FF44C39E012F5F3F4F3901F70193817A
S1131AE0F10193FD859193FF81911F01882309F4EE
S1131AF031C3853239F493FD859193FF81911F01A0
S1131B00853239F4B70190E00E94E711560165016E
S1131B10E5CF10E0512C912CFFE1F915D8F08B3270
S1131B2079F038F4803279F08332A1F4F92DF06140
S1131B302EC08D3261F0803369F4292D21602DC0CF
S1131B40392D3260932E892D8460982E2AC0E92D78
S1131B50E86015C097FC2DC020ED280F2A3088F4CA
S1131B6096FE06C03AE0139F200D1124122F19C0CF
S1131B708AE0589E200D1124522EE92DE0629E2EFB
S1131B8010C08E3231F496FCE5C2F92DF0649F2E1C
S1131B9008C08C3621F4292D2068922E02C0883684
S1131BA041F4F10193FD859193FF81911F0181110E
S1131BB0B3CF9BEB980F933020F4992D9061805E06
S1131BC007C09BE9980F933008F066C1992D9F7E5A
S1131BD096FF16E09F73992E853619F49064992E1A
S1131BE008C0863621F4392F3068932E02C01111B3
S1131BF0115097FE07C01C3350F444244394410E03
S1131C0027E00BC0183038F027E017E005C027E0C4
S1131C109CE3492E02C0212F412C560184E0A80EDA
S1131C20B11CF6016081718182819381042DA3012D
S1131C300E94F9106C01F981FC87F0FF02C0F3FFE8
S1131C4006C091FC06C092FE06C000E205C00DE28B
S1131C5003C00BE201C000E08C858C7019F0011107
S1131C605AC29BC297FE10C04C0CFC85F4FF04C002
S1131C708A81813309F44A94141474F528E02415F4
S1131C8078F588E0482E2CC096FC2AC0812F90E07D
S1131C908C159D059CF03CEFC3163FEFD30674F002
S1131CA0892D8068982E0AC0E2E0F0E0EC0FFD1F59
S1131CB0E10FF11D8081803319F411501111F4CF1B
S1131CC097FE0EC044244394410E812F90E0C81621
S1131CD0D9062CF41C1904C04424439401C010E018
S1131CE097FE06C01C141D0434F4C601019605C0F9
S1131CF085E090E002C081E090E00111019611239B
S1131D0031F0212F30E02F5F3F4F820F931F252D9D
S1131D1030E08217930714F4581A01C0512C892D0E
S1131D20897049F4552039F0B70180E290E00E94AF
S1131D30E7115A94F7CF002329F0B701802F90E0E0
S1131D400E94E71193FC09C0552039F0B70180E3E4
S1131D5090E00E94E7115A94F7CF97FE4CC04601D9
S1131D60D7FE02C0812C912CC60188199909F30170
S1131D70E80FF91FED87FE879601241931092F8793
S1131D80388B012F10E01195019511093FEF83164F
S1131D90930629F4B7018EE290E00E94E711C8147B
S1131DA0D9044CF08F8598898815990524F4ED851C
S1131DB0FE85818101C080E3F1E08F1A91082D85B1
S1131DC03E852F5F3F4F2D873E87801691062CF06E
S1131DD0B70190E00E94E711D9CFC814D90441F4A7
S1131DE09A81963320F4953319F43C8534FF81E3CA
S1131DF0B70190E04EC08A81813319F09C859F7EA3
S1131E009C87B70190E00E94E711111105C094FC72
S1131E1018C085E690E017C0B7018EE290E00E94FA
S1131E20E7111E5F82E001E0080FF301E80FF11DE6
S1131E308081B70190E00E94E711802F0113F3CF56
S1131E40E6CF85E490E0B7010E94E711D7FC06C015
S1131E50C114D10441F4EC85E4FF05C0D194C194CC
S1131E60D1088DE201C08BE2B70190E00E94E71136
S1131E7080E32AE0C216D1042CF08F5FFAE0CF1A77
S1131E80D108F7CFB70190E00E94E711B701C6016E
S1131E90C0960E94E71154C1833631F0833779F03C
S1131EA0833509F056C020C0560132E0A30EB11CA0
S1131EB0F6018081898301E010E0630112C05601BC
S1131EC0F2E0AF0EB11CF601C080D18096FE03C0D3
S1131ED0612F70E002C06FEF7FEFC6010E94DC113A
S1131EE08C01F92DFF7714C0560122E0A20EB11C1B
S1131EF0F601C080D18096FE03C0612F70E002C05D
S1131F006FEF7FEFC6010E94D1118C01F92DF068AB
S1131F109F2EF3FD1AC0852D90E008171907A8F429
S1131F20B70180E290E00E94E7115A94F4CFF601E1
S1131F3097FC859197FE81916F01B70190E00E9413
S1131F40E71151105A94015011090115110579F73F
S1131F50F7C0843611F0893661F5560197FE09C041
S1131F6024E0A20EB11CF60160817181828193810B
S1131F700AC0F2E0AF0EB11CF60160817181072E38
S1131F80000C880B990BF92DFF769F2E97FF09C043
S1131F9090958095709561957F4F8F4F9F4FF06816
S1131FA09F2E2AE030E0A3010E946712C82EC618B3
S1131FB03FC0092D853721F40F7E2AE030E01DC093
S1131FC0097F8F3691F018F4883559F0C3C08037F3
S1131FD019F0883711F0BEC0006104FF09C0046025
S1131FE007C094FE08C0066006C028E030E005C0C3
S1131FF020E130E002C020E132E0560107FF09C0D1
S113200084E0A80EB11CF601608171818281938104
S113201008C0F2E0AF0EB11CF6016081718180E06E
S113202090E0A3010E946712C82EC6180F77902E65
S113203096FE0BC0092D0E7FC11650F494FE0AC003
S113204092FC08C0092D0E7E05C0DC2C092D03C0AE
S1132050DC2C01C0D12E04FF0DC0FE01EC0DF11DDE
S11320608081803311F4097E09C002FF06C0D39435
S1132070D39404C0802F867809F0D39403FD11C053
S113208000FF06C01C2DD51480F4150D1D190DC0BC
S1132090D51458F4B70180E290E00E94E711D3947C
S11320A0F7CFD51410F45D1801C0512C04FF10C0F3
S11320B0B70180E390E00E94E71102FF17C001FD21
S11320C003C088E790E002C088E590E0B7010CC047
S11320D0802F867859F001FF02C08BE201C080E2B4
S11320E007FD8DE2B70190E00E94E711C11638F4B4
S11320F0B70180E390E00E94E7111150F7CFCA9432
S1132100F301EC0DF11D8081B70190E00E94E7110D
S1132110C110F5CF15C0F4E0F51560F584E0581A48
S113212093FE1FC0011127C02C8523FF2AC006E897
S113213012E0392D3071932EF8018491811124C05D
S1132140552009F4E4CCB70180E290E00E94E71145
S11321505A94F6CFF7018681978126C08FEF9FEFBF
S113216023C0B70180E290E00E94E7115A94511015
S1132170F8CFD8CF512CB701802F90E00E94E711FF
S1132180D3CF0AE812E0D5CF91108052B70190E086
S11321900E94E7110F5F1F4FCFCF23E0251510F4E6
S11321A083E0BDCF512CC0CF6096CDBFDEBFDF91A1
S11321B0CF911F910F91FF90EF90DF90CF90BF9040
S11321C0AF909F908F907F906F905F904F903F90D3
S11321D02F900895A29FB001B39FC001A39F700DDB
S11321E0811D1124911DB29F700D811D1124911D1B
S11321F00895283008F027E03327DA01990F311DBC
S113220087FD916000966105710539F432602E5F97
S11322103D9330E32A95E1F708959F3F30F08038ED
S11322207105610509F03C5F3C5F3D93913008F016
S11322308068911DDF93CF931F930F93FF92EF92CA
S1132240192F987F9695E92F96959695E90FFF2774
S1132250E851FD4F99273327EE24FF24A701E70116
S113226005900894079428F4360FE71EF81E491FBA
S1132270511D660F771F881F991F0694A1F70590BB
S1132280079428F4E70EF81E491F561FC11D770F47
S1132290881F991F661F0694A1F70590079428F4D8
S11322A0F80E491F561FC71FD11D880F991F661F9F
S11322B0771F0694A1F70590079420F4490F561F41
S11322C0C71FD81F990F661F771F881F0694A9F789
S11322D084911095177041F0D695C79557954795F9
S11322E0F794E7941A95C1F7EEE8F2E06894159034
S11322F0159135916591959105907FE27395E1185B
S1132300F10A430B560BC90BD009C0F7E10CF11EBF
S1132310431F561FC91FD01D7EF4703311F48A95D4
S1132320E6CFE894015030F0080F0AF400270217B2
S113233008F4202F2395022F7A3328F079E37D9334
S11323402A95E9F710C07D932A9589F60694979506
S11323506795379517951794E118F10A430B560BB7
S1132360C90BD00998F023957E9173957A3308F0C0
S113237070E37C932013B8F77E9170617D9330F005
S1132380839571E37D9370E32A95E1F71124EF902F
S1132390FF900F911F91CF91DF91992787FD909521
S11323A00895FC010590615070400110D8F78095A4
S11323B090958E0F9F1F0895FC016150704001900D
S11323C00110D8F7809590958E0F9F1F08950F9355
S11323D01F93CF93DF93FB01238121FD03C08FEF74
S11323E09FEF2CC022FF16C046815781248135817E
S11323F04217530744F4A081B1819D012F5F3F4FE1
S1132400208331838C93268137812F5F3F4F26832E
S1132410378314C08B01EC01FB010084F185E02DAE
S11324201995892BE1F6D80116968D919C911797F1
S1132430019616968D939C931797CE01DF91CF91B9
S11324401F910F910895CF93DF93CDB7DEB7AE01FF
S11324504A5F5F4FFA0161917191AF0180915A24F3
S113246090915B240E944A0DDF91CF9108950F93C0
S11324701F93CF93DF93E0915A24F0915B2423813F
S113248021FF1BC08C01D0E0C0E0F80181918F01D5
S113249060915A2470915B24DB011896ED91FC91B4
S11324A01997882331F01995892B79F3DFEFCFEF52
S11324B0ECCF8AE01995892B19F08FEF9FEF02C0BA
S11324C08D2F9C2FDF91CF911F910F910895FA01C9
S11324D0AA27283051F1203181F1E8946F936E7F5F
S11324E06E5F7F4F8F4F9F4FAF4FB1E03ED0B4E050
S11324F03CD0670F781F891F9A1FA11D680F791F91
S11325008A1F911DA11D6A0F711D811D911DA11DA1
S113251020D009F468943F912AE0269F11243019B1
S1132520305D3193DEF6CF010895462F4770405D4C
S11325304193B3E00FD0C9F7F6CF462F4F70405DFB
S11325404A3318F0495D31FD4052419302D0A9F756
S1132550EACFB4E0A6959795879577956795BA9550
S1132560C9F700976105710508959B01AC010A2E16
S113257006945795479537952795BA95C9F7620FED
S1112580731F841F951FA01D0895F894FFCFAC
S113258E0400090008000800000000030000000019
S113259E5D071D0700005F494E54203D3D204C4F02
S11325AE570053504920494E542074696D656F7518
S11325BE7400424E4F303830206973206177616B5E
S11325CE652100486F73742073656E6420706163B7
S11325DE6B657420746F20424E4F30383000736830
S11325EE7470646174615B25645D3A202564200A0D
S11325FE002D2D2D2D2D4C656E676874203D2025E4
S113260E640A0053656E6420636F6D6D616E6400C1
S113261E5365742075702063616C696272617469AC
S113262E6F6E20636F6D6D616E64007365744665C5
S113263E6174757265436F6D6D616E642120006EF9
S113264E6F7468696E6720746F207265636569764E
S113265E652E2E2E00726561647920746F2072656A
S113266E636569766521002D203173742077616965
S113267E74002D20326E642077616974002D20332E
S113268E72642077616974002D6620424E4F303893
S113269E3073656E645061636B6574002D206177D1
S11326AE616974207061636B657400636F72726527
S11326BE637420494420726573706F6E73652100D4
S11326CE494420726573706F6E7365206661696C20
S11326DE65642E2E2E00506172736520696E7075BE
S11326EE74207265706F727420005245504F5254AC
S11326FE5F49445F494E444558203D2025640A00F5
S113270E414343454C45524F4D45544552004C4967
S113271E4E4541525F414343454C45524154494F06
S113272E4E004759524F53434F5045004D41474E6B
S113273E455449435F4649454C4400536574205201
S113274E6F746174696F6E566563746F72212000C5
S113275E53657420416363656C65726F6D65746552
S113276E72212000536574204C696E65617220419C
S113277E6363656C65726F6D6574657221200053B9
S113278E6574204779726F212000536574204D6162
S113279E676E65746F6D6574657221200050617289
S11327AE736520636F6D6D616E64207265706F72F8
S11327BE7420005265636569766564207061636B8D
S11327CE657421004461746120617661696C616293
S11327DE6C65210043616C6962726174696F6E206D
S11327EE4D6F646521004F7065726174696F6E2060
S11327FE4D6F64652100583A2025302E3266207CB8
S113280E20593A2025302E3266207C205A3A202533
S113281E302E3266207C202564200A00783A20254A
S113282E302E32662C20793A2025302E32662C201A
S113283E7A3A2025302E32662C20616363757261DC
S10D284E7469653A202564200A002D
S9030000FC
