S01400006265756E426F6172645350492E7372656392
S11300000C94C4010C94E5010C94E5010C94E501F5
S11300100C94E5010C94E5010C94E5010C94E501C4
S11300200C94E5010C94E5010C94E5010C94E501B4
S11300300C94E5010C94E5010C94E5010C94E501A4
S11300400C94E5010C94E5010C94E5010C94E50194
S11300500C94E5010C94E5010C94E5010C94E50184
S11300600C94E5010C94E5010C94E5010C94E50174
S11300700C94E5010C94E5010C94E5010C94E50164
S11300800C94E5010C94E5010C94E5010C94E50154
S11300900C94E5010C94E5010C94E5010C94E50144
S11300A00C94E5010C94E5010C94E5010C94E50134
S11300B00C94E5010C94E5010C94E5010C94E50124
S11300C00C94E5010C94E5010C94E5010C94E50114
S11300D00C94E5010C94E5010C94E5010C94E50104
S11300E00C94E5010C94E5010C94E5010C94E501F4
S11300F00C94E5010C94E5010C94E5010C94E501E4
S11301000C94E5010C94E5010C94E5010C94E501D3
S11301100C94E5010C94E5010C94E5010C94E501C3
S11301200C94E5010C94E5010C94E5010C94E501B3
S11301300C94E5010C94E5010C94E5010C94E501A3
S11301400C94E5010C94E5010C94E5010C94E50193
S11301500C94E5010C94E5010C94E5010C94E50183
S11301600C94E5010C94E5010C94E5010C94E50173
S11301700C94E5010C94E5010C94E5010C94E50163
S11301800C94E5010C94E5010C94E5010C94E50153
S11301900C94E5010C94E5010C94E5010C94E50143
S11301A00C94E5010C94E5010C94E5010C94E50133
S11301B00C94E5010C94E5010C94E5010C94E50123
S11301C00C94E5010C94E5010C94E5010C94E50113
S11301D00C94E5010C94E5010C94E5010C940E09D2
S11301E00C9436090C94E5010C94E5010C94E5019A
S11301F00C94E5010C94E5010C94E5010763423687
S1130200B79BD8A71A39685618AEBAAB558C1D3CA3
S1130210B7CC5763BD6DEDFD753EF6177231BF0067
S11302200000803F08000000BE922449123EABAAA1
S1130230AA2ABECDCCCC4C3E00000080BEABAAAAFC
S1130240AA3E00000000BF000000803F0000000044
S113025000084178D3BB4387D1133D190E3CC3BD7D
S11302604282AD2B3E68EC8276BED98FE1A93E4C2A
S113027080EFFFBE01C4FF7F3F00000000000C942C
S1130280EC070C94AC076E616E00696E660000406A
S11302907A10F35A00A0724E18090010A5D4E80091
S11302A000E87648170000E40B54020000CA9A3BA9
S11302B0000000E1F505000080969800000040422F
S11302C00F000000A08601000000102700000000BD
S11302D0E803000000006400000000000A000000C1
S11302E000000100000000002C76D888DC674F086D
S11302F023DFC1DFAE59E1B1B796E5E3E453C63A73
S1130300E651997696E8E6C28426EB898C9B62EDE9
S1130310407C6FFCEFBC9C9F40F2BAA56FA5F490A3
S1130320055A2AF75C936B6CF9676DC11BFCE0E41A
S11303300D47FEF520E6B500D0ED902E0300943570
S113034077050080841E080000204E0A000000C8C3
S11303500C333333330F986E12831141EF8D211414
S1130360893BE65516CFFEE6DB18D1844B381BF7E4
S11303707C1D901DA4BBE424203284725E22810083
S1130380C9F124ECA1E53D2711241FBECFEFCDBF59
S1130390DFE5DEBF00E00CBF13E2A0E0B0E2E2E57F
S11303A0F7E200E00BBF02C007900D92A032B10744
S11303B0D9F724E2A0E2B3E201C01D92A43BB20744
S11303C0E1F70E947E090C94A7130C940000E0E06E
S11303D0F6E081E0828398E1908B22E0218320E49F
S11303E02183968BE0E6F6E0828380E1808B08959A
S11303F0CF938091080680FD17C003C0808580FDDF
S113040006C08AE190E20E941913C1E017C083EF8D
S113041091E00197F1F700C00000C15079F786E23E
S113042090E20E9419130AC083EF91E00197F1F75B
S113043000C00000CCE7E0E0F6E0E0CF8C2FCF91E5
S113044008959F92AF92BF92CF92DF92EF92FF9264
S11304500F931F93CF93DF93C82FD62F80E48093FD
S113046006060E94F801882309F463C0689499245D
S113047092F89D0E86E390E20E94191380E1809326
S1130480660680E48093050687E490E20E941913CF
S1130490892D0E94740980E00E9474098C2F0E94A7
S11304A07409EC2FF0E0EB5DFC4D808191E0980F36
S11304B090830E947409DD2359F10F2EF1E2AF2ECF
S11304C0F4E2BF2EF02DD1506D2F70E0CB018E5D84
S11304D09B4D6C01E50102E610E27E0188811F92CA
S11304E08F93CE018A199B099F938F931F930F9328
S11304F00E9405132196F70180810E9474090F90D0
S11305000F900F900F900F900F90CC15DD0529F7E9
S113051080E1809365061F929F9285E790E29F9306
S11305208F930E9405130F900F900F900F9081E00E
S113053004C080E48093050680E0DF91CF911F9191
S11305400F91FF90EF90DF90CF90BF90AF909F906E
S11305500895CF93C82F87E890E20E941913E1E22F
S1130560F4E282EF80838091242391E0980F9093AA
S113057024238183C2836CE082E00E942102CF9114
S11305800895CF93C82F84E990E20E941913E4E2FE
S1130590F4E28DE294E21192E817F907E1F7C11150
S11305A004C081E0809324241AC0C13021F481E086
S11305B08093252414C0C23021F481E08093262442
S11305C00EC0C33021F481E08093282408C0C430D5
S11305D031F4E1E2F4E281E083838483858381E082
S11305E08093A32487E00E94A902CF910895CF921B
S11305F0DF92FF920F931F93CF93DF93F82E6B013B
S1130600022F132FD42FC52F8FEA90E20E941913C3
S11306109601A8EEB3E00E94CC11E1E2F4E22DEFE2
S11306202083F18212821382148265837683878306
S11306309087118612861386148605871687D787B6
S1130640C08B61E182E00E942102DF91CF911F9172
S11306500F91FF90DF90CF900895EF92FF920F9348
S11306601F93CF93DF930E94F801811106C083EC9E
S113067090E20E94191380E045C089ED90E20E9447
S1130680191380E18093660680E00E947409082FA4
S113069080E00E947409C82F80E00E947409D82F5A
S11306A080E00E947409EAEFF3E20083C183D283FD
S11306B0838310E01C2B1F770115110529F480E1B9
S11306C08093650680E01EC004501109B9F00F2E16
S11306D0F1E2EF2EF4E2FF2EF02DC0E0D0E080E056
S11306E00E947409C038D10510F4F7018083219663
S11306F0FFEFEF1AFF0AC017D10788F380E1809358
S1130700650681E0DF91CF911F910F91FF90EF90EB
S113071008950E94E7010E94670980E180936506BD
S1130720E0E0F6E080E4858382E08683A7EEB3E030
S11307301197F1F700C0000085838BEE90E20E94D0
S113074019130E94F80186EF90E20E9419130E9487
S1130750F8010E942D0381E091E20E9419130E9486
S1130760F8010E942D03E1E2F4E289EF8083118213
S11307708CE091E20E94191362E082E00E9421025F
S113078080E291E20E9419130E94F8010E942D0355
S11307908823A1F080912124883F51F48FE291E2D3
S11307A09F938F930E9405130F900F9081E00895FB
S11307B084E491E20E94191380E0089580E0089592
S11307C07F928F929F92AF92BF92CF92DF92EF92DD
S11307D0FF920F931F93CF93DF938AE591E20E94D8
S11307E01913EAEFF3E2818190E0982F88272081A2
S11307F0822BE1E2F4E22481438150E060E070E086
S1130800BA0155274427722B2181422B2281522B76
S1130810409302245093032460930424709305248A
S113082027812370722EE284F12CFE2CEE24218584
S1130830E22A048510E0102F00272385022BC685A9
S1130840D0E0DC2FCC2725854E01822A9F7709979B
S11308508A3091053CF0A088B12CBA2CAA242785B3
S1130860A22A02C0A12CB12C0C974CF0E1E2F4E2D4
S1130870C288D12CDC2CCC248189C82A02C0C12C8A
S1130880D12CC1E2D4E28D811F928F938EE691E246
S11308909F938F930E9405138D810F900F900F905B
S11308A00F908130D1F484E891E20E941913872DCE
S11308B090E08093A8249093A924E092A124F0923C
S11308C0A2240093AC241093AD248092152490921A
S11308D0162481E080932B2377C08430D1F482E9FD
S11308E091E20E941913872D90E080931124909334
S11308F01224E0920924F0920A240093A424109371
S1130900A52480921B2490921C2484E080932B23A2
S11309105BC08230D1F486EA91E20E941913872DDC
S113092090E080931D2490931E24E0921F24F09263
S1130930202400930D2410930E2480920B24909273
S11309400C2482E080932B233FC08330D1F480EBCE
S113095091E20E941913872D90E08093FE239093D7
S1130960FF23E0920F24F09210240093A624109306
S1130970A724809213249092142483E080932B2341
S113098023C0853009F58FEB91E20E941913872D5E
S113099090E08093072490930824E092AA24F09294
S11309A0AB240093192410931A248092F823909274
S11309B0F923A0920024B0920124C0921724D0926B
S11309C0182485E080932B23DF91CF911F910F9101
S11309D0FF90EF90DF90CF90BF90AF909F908F905B
S11309E07F900895CF93DF93EC018FEC91E20E9406
S11309F0191320E030E0A901BE0185E00E94F7024E
S1130A00DF91CF910895CF93DF93EC0184EE91E2CF
S1130A100E94191320E030E0A901BE0181E00E9488
S1130A20F702DF91CF910895CF93DF93EC0188EF24
S1130A3091E20E94191320E030E0A901BE0184E094
S1130A400E94F702DF91CF910895CF93DF93EC01D9
S1130A5083E192E20E94191320E030E0A901BE0173
S1130A6082E00E94F702DF91CF910895CF93DF9344
S1130A70EC018EE192E20E94191320E030E0A9011A
S1130A80BE0183E00E94F702DF91CF91089581E3D4
S1130A9092E20E94191380912124813F41F48091B4
S1130AA02324873021F4809126248093A32408955D
S1130AB0CF938091080680FD1DC00E942D03C82F8E
S1130AC08823E9F087E492E20E9419138091FC23C1
S1130AD0833059F4809121248B3F71F40E94E00308
S1130AE088E592E20E9419130AC0823039F40E9408
S1130AF0470505C0C0E003C0C0E001C0C0E08C2FC2
S1130B00CF910895CF92DF92EF92FF92CF93C62FA9
S1130B10BC01990F880B990B0E946F0B6B017C0130
S1130B206C2F70E0719561957109072E000C880B8C
S1130B30990B0E946F0B9B01AC0160E070E080E0B8
S1130B4090E40E94680C9B01AC01C701B6010E94AD
S1130B50FB0BCF91FF90EF90DF90CF9008956091C1
S1130B6006208091A1249091A2240E9482050895D8
S1130B70609106208091AC249091AD240E9482055E
S1130B8008956091062080911524909116240E9466
S1130B9082050895609104208091092490910A248B
S1130BA00E9482050895609104208091A42490916C
S1130BB0A5240E94820508956091042080911B243D
S1130BC090911C240E948205089580911124089517
S1130BD06091022080911F24909120240E9482051C
S1130BE008956091022080910D2490910E240E941A
S1130BF0820508956091022080910B2490910C2429
S1130C000E94820508956091002080910F249091A4
S1130C1010240E9482050895609100208091A624EA
S1130C209091A7240E9482050895609100208091EC
S1130C301324909114240E948205089560910A203F
S1130C408091AA249091AB240E948205089560911A
S1130C500A208091192490911A240E9482050895F3
S1130C6060910A208091F8239091F9230E948205D3
S1130C70089560910A2080910024909101240E949B
S1130C80820508956091082080911724909118247A
S1130C900E94820508958091680680FF0CC081E05F
S1130CA08093062488E692E29F938F930E94051313
S1130CB00F900F900895109206248AE792E29F9372
S1130CC08F930E9405130F900F9008950E9489033B
S1130CD0882319F00E944B0681E00895CF92DF9299
S1130CE0EF92FF920F931F93CF93DF9380912B2367
S1130CF0813009F043C0809122238F5F80932223A7
S1130D000E94AF05C62FD72F182F092F0E94B805B0
S1130D10F62EE72ED82EC92E0E94C1052091A924B3
S1130D202F932091A8242F939F938F937F936F9356
S1130D30CF92DF92EF92FF920F931F93DF93CF93A3
S1130D408AE892E29F938F930E940513809168062C
S1130D502DB73EB7205F3F4F2DBF3EBF80FF0EC073
S1130D608091A8249091A9240297029738F4809145
S1130D7022238D3318F081E080932323DF91CF91D8
S1130D801F910F91FF90EF90DF90CF900895CF9235
S1130D90DF92EF92FF920F931F93CF93DF93809193
S1130DA02B23823009F043C0809121238F5F8093ED
S1130DB021230E94E805C62FD72F182F092F0E9440
S1130DC0F105F62EE72ED82EC92E0E94FA052091A1
S1130DD01E242F9320911D242F939F938F937F93F1
S1130DE06F93CF92DF92EF92FF920F931F93DF9353
S1130DF0CF938AE892E29F938F930E940513809188
S1130E0068062DB73EB7205F3F4F2DBF3EBF80FF22
S1130E100EC080911D2490911E240297029738F4ED
S1130E20809121238F3118F082E080932323DF9176
S1130E30CF911F910F91FF90EF90DF90CF90089585
S1130E40CF92DF92EF92FF920F931F93CF93DF9392
S1130E5080912B23833009F043C0809120238F5F3E
S1130E60809320230E940306C62FD72F182F092F03
S1130E700E940C06F62EE72ED82EC92E0E941506C7
S1130E802091FF232F932091FE232F939F938F93E1
S1130E907F936F93CF92DF92EF92FF920F931F9302
S1130EA0DF93CF938AE892E29F938F930E94051376
S1130EB0809168062DB73EB7205F3F4F2DBF3EBFE0
S1130EC080FF0EC08091FE239091FF23029702972A
S1130ED038F4809120238D3318F083E0809323230A
S1130EE0DF91CF911F910F91FF90EF90DF90CF9002
S1130EF0089580912323811102C00E946E0680917F
S1130F002323813011F40E94C70680912323823069
S1130F1011F40E94200708958091912390919023C9
S1130F20891710F0891B08958C59891B0895CF9354
S1130F30C09190230E948C078823E1F3EC2FF0E00A
S1130F40E45DFC4D808191E09C0F943608F090E0C4
S1130F5090939023CF9108950E94970790E008956D
S1130F602091F72391E0920F8091F623943610F0AC
S1130F709DE9920F891710F0891B08958C59891BDC
S1130F8008950F931F93CF93DF93D82F00EA1BE0AC
S1130F90C1E202C0F801C3830E94B0078823D1F3E1
S1130FA08091F723E82FF0E0EE56FC4DD0838F5F5D
S1130FB0843608F080E0E0EAF0E09281292F2E7F69
S1130FC022838093F72381E28093A30B9283DF91A2
S1130FD0CF911F910F910895CF93DF93D82FCFEF27
S1130FE003C0CC2391F0C1500E94B0078823C9F3F9
S1130FF0CC2371F0DA3019F48DE00E94C1078D2FF3
S11310000E94C10780E090E005C081E090E002C04A
S113101081E090E0DF91CF9108954F925F926F92BB
S11310207F928F929F92AF92BF92EF92FF920F9313
S11310301F93CF934B015C0107E010E0C9EFEE244E
S1131040E394F12CCC2354F5C501B4010E946D0B3B
S113105020E030E041EE59E40E94CC0A20E030E088
S113106040E85FE30E945F0A2B013C01B701002EB8
S113107002C0660F771F0A94E2F7072E000C880B54
S1131080990B0E946F0B9B01AC01C301B2010E943A
S1131090FB0B0E94B80C0E943E0B2CC0C501B4018E
S11310A00E946D0B20E030E041EE59E40E94CC0A2E
S11310B02B013C0188279927801B910BB70102C0A3
S11310C0660F771F8A95E2F7072E000C880B990BA1
S11310D00E946F0B9B01AC01C301B2010E94CC0AB8
S11310E020E030E040E85FE30E945F0A0E94B80C11
S11310F00E943E0B6115704138F0CF5F0150110919
S1131100C83009F09FCF31C0CC237CF5C501B401B0
S11311100E946D0B20E030E041EE59E40E94CC0ABD
S113112020E030E040E85FE30E945F0A4B015C018D
S11311302C2F332721950CF4309561E070E002C028
S1131140660F771F2A95E2F7072E000C880B990B80
S11311500E946F0B9B01AC01C501B4010E94FB0B03
S11311600E94B80C0E943E0B2AC0C501B4010E9423
S11311706D0B20E030E041EE59E40E94CC0A4B01B3
S11311805C0161E070E00C2E02C0660F771F0A94C8
S1131190E2F7072E000C880B990B0E946F0B9B0142
S11311A0AC01C501B4010E94CC0A20E030E040E863
S11311B05FE30E945F0A0E94B80C0E943E0BE0EAC3
S11311C0F6E088E1828B98E09583918394E09283A2
S11311D0E0EAFBE066837F70C295C07FC72BC783BC
S11311E0848380E28383E0EAF0E082818360828307
S11311F0EEEAF4E28CE090E280839183828393832D
S1131200CF911F910F91FF90EF90BF90AF909F905F
S11312108F907F906F905F904F9008951F920F92E0
S11312200FB60F9211240BB60F928F939F93EF93E7
S1131230FF9380919123E82FF0E09091A00BE45D5F
S1131240FC4D90838F5F843608F080E0909190236A
S1131250891380939123FF91EF919F918F910F9028
S11312600BBE0F900FBE0F901F9018951F920F92F8
S11312700FB60F9211240BB60F922F938F939F9357
S1131280EF93FF938091F6239091F723891769F0E8
S1131290E82FF0E0EE56FC4D20812093A00B8F5FE9
S11312A0843608F080E0891304C080E28093A30BA5
S11312B0892F8093F623FF91EF919F918F912F9126
S11312C00F900BBE0F900FBE0F901F901895E0E685
S11312D0F6E080EB818380E4828380E1868B8583E2
S11312E08CE58093C00908958093C309E0ECF9E08C
S11312F082818823ECF78091C30908952F923F924D
S11313004F925F926F927F928F929F92AF92BF9211
S1131310CF92DF92EF92FF920F931F93CF93DF93BD
S1131320E0E6F6E084E08183858360E874E88EE19A
S113133090E00E940D0878940E946606882309F4C0
S1131340A9C080910624813091F484E00E94C102F6
S113135084E690E00E94030584E690E00E9425055F
S113136084E690E00E943605C0EBD2E284C081118D
S11313708DC088EE93E00E94140588EE93E00E94ED
S1131380F204F2CF0E945805882379F180912B232F
S1131390843059F50E94CA05162F072FF82EE92E1E
S11313A00E94D305D62EC72EB82EA92E0E94DC0586
S11313B0962E872E782E692E0E94E5051F928F9314
S11313C06F927F928F929F92AF92BF92CF92DF9251
S11313D0EF92FF920F931F93DF93CF930E94051315
S11313E08DB79EB740968DBF9EBF0E945805882337
S11313F009F441C080912B238530E9F58EED92E20A
S11314000E9419130E941E06162F072FF82EE92E8C
S11314100E942706D62EC72EB82EA92E0E9430066B
S1131420962E872E782E692E0E943906562E472E28
S1131430382E292E0E9442069F938F937F936F9399
S11314402F923F924F925F926F927F928F929F92D0
S1131450AF92BF92CF92DF92EF92FF920F931F93BE
S113146085EE92E29F938F930E9405138DB79EB7EA
S113147046968DBF9EBF80910624882309F482CFAF
S113148005C00E94580581110E94790780910624A5
S11314908130B9F380E090E0DF91CF911F910F91FB
S11314A0FF90EF90DF90CF90BF90AF909F908F9080
S11314B07F906F905F904F903F902F900895505879
S11314C0BB27AA270E94770A0C94C10B0E94B30B76
S11314D038F00E94BA0B20F039F49F3F19F426F437
S11314E00C94B00B0EF4E095E7FB0C94AA0BE92FD7
S11314F00E94D20B58F3BA17620773078407950743
S113150020F079F4A6F50C94F40B0EF4E0950B2E70
S1131510BA2FA02D0B01B90190010C01CA01A00141
S11315201124FF27591B99F0593F50F4503E68F19C
S11315301A16F040A22F232F342F4427585FF3CFDD
S1131540469537952795A795F0405395C9F77EF4AE
S11315501F16BA0B620B730B840BBAF09150A1F0F7
S1131560FF0FBB1F661F771F881FC2F70EC0BA0F7D
S1131570621F731F841F48F4879577956795B79505
S1131580F7959E3F08F0B0CF9395880F08F0992700
S1131590EE0F9795879508950E94E00A0C94C10B6D
S11315A00E94BA0B58F00E94B30B40F029F45F3F3D
S11315B029F00C94AA0B51110C94F50B0C94B00B5C
S11315C00E94D20B68F39923B1F3552391F3951B31
S11315D0550BBB27AA2762177307840738F09F5F50
S11315E05F4F220F331F441FAA1FA9F335D00E2EBD
S11315F03AF0E0E832D091505040E695001CCAF72A
S11316002BD0FE2F29D0660F771F881FBB1F2617EC
S113161037074807AB07B0E809F0BB0B802DBF01C3
S1131620FF2793585F4F3AF09E3F510578F00C9492
S1131630AA0B0C94F50B5F3FE4F3983ED4F3869524
S113164077956795B795F7959F5FC9F7880F911DB3
S11316509695879597F90895E1E0660F771F881F9F
S1131660BB1F621773078407BA0720F0621B730B52
S1131670840BBA0BEE1F88F7E09508950E94DA0BED
S113168088F09F5798F0B92F9927B751B0F0E1F03F
S1131690660F771F881F991F1AF0BA95C9F714C0EF
S11316A0B13091F00E94F40BB1E008950C94F40B66
S11316B0672F782F8827B85F39F0B93FCCF3869528
S11316C077956795B395D9F73EF490958095709585
S11316D061957F4F8F4F9F4F0895E89409C097FB02
S11316E03EF490958095709561957F4F8F4F9F4FF5
S11316F09923A9F0F92F96E9BB279395F695879539
S113170077956795B795F111F8CFFAF4BB0F11F4FB
S113171060FF1BC06F5F7F4F8F4F9F4F16C08823A2
S113172011F096E911C0772321F09EE8872F762FD8
S113173005C0662371F096E8862F70E060E02AF019
S11317409A95660F771F881FDAF7880F9695879505
S113175097F9089597F99F6780E870E060E008952D
S11317609FEF80EC089500240A94161617061806B5
S11317700906089500240A94121613061406050691
S11317800895092E0394000C11F4882352F0BB0F22
S113179040F4BF2B11F460FF04C06F5F7F4F8F4F85
S11317A09F4F089557FD9058440F551F59F05F3FC0
S11317B071F04795880F97FB991F61F09F3F79F06F
S11317C087950895121613061406551FF2CF4695F1
S11317D0F1DF08C0161617061806991FF1CF869573
S11317E07105610508940895E894BB276627772757
S11317F0CB0197F908950E940E0C0C94C10B0E9422
S1131800B30B38F00E94BA0B20F0952311F00C941E
S1131810AA0B0C94B00B11240C94F50B0E94D20B60
S113182070F3959FC1F3950F50E0551F629FF0012F
S1131830729FBB27F00DB11D639FAA27F00DB11D48
S1131840AA1F649F6627B00DA11D661F829F2227D1
S1131850B00DA11D621F739FB00DA11D621F839F58
S1131860A00D611D221F749F3327A00D611D231F2E
S1131870849F600D211D822F762F6A2F11249F577C
S113188050409AF0F1F088234AF0EE0FFF1FBB1F7F
S1131890661F771F881F91505040A9F79E3F51053E
S11318A080F00C94AA0B0C94F50B5F3FE4F3983E84
S11318B0D4F3869577956795B795F795E7959F5FE8
S11318C0C1F7FE2B880F911D9695879597F908957A
S11318D0FA01EE0FFF1F309621053105A1F16115C4
S11318E0710561F48038BFE39B0749F1689490382F
S11318F0810561F08038BFEF9B0741F099234AF5D9
S1131900FF3FE1053105210519F1E8940894E795B5
S1131910D901AA2329F4AB2FBE2FF85FD0F310C04E
S1131920FF5F70F4A695E0F7F73950F019F0FF3A2D
S113193038F49F779F930DD00F9007FC905808952B
S113194046F00C94B00B60E070E080E89FE30895EB
S11319504FE79F775F934F933F932F930E94B00D70
S11319602F913F914F915F910E94FB0B0C94E40CDB
S11319700E94DA0BE8F09E37E8F09639B8F49E3806
S113198048F4672F782F8827985FF9CF8695779545
S1131990679593959539D0F3B62FB1706B0F711D80
S11319A0811D20F487957795679593950C94160D72
S11319B00C94310D0C94F50B29F416F00C94AA0B2D
S11319C00C94F40B0C94B00B0E94DA0BA8F3963829
S11319D0A0F707F80F92E8942BE33AEA48EB5FE7A5
S11319E00E94110C0F920F920F924DB75EB70F9297
S11319F00E94F80DECEFF1E00E943F0D4F915F91D2
S1131A00EF91FF91E595EE1FFF1F49F0FE57E06847
S1131A104427EE0F441FFA95E1F74195550B0E94B8
S1131A20720D0F9007FE0C94660D0895882371F4CF
S1131A30772321F09850872B762F07C0662311F463
S1131A4099270DC09051862B70E060E02AF09A959A
S1131A50660F771F881FDAF7880F9695879597F991
S1131A6008959F3F31F0915020F4879577956795BD
S1131A70B795880F911D9695879597F90895DF93EB
S1131A80CF931F930F93FF92EF92DF927B018C0110
S1131A90689406C0DA2EEF010E940E0CFE01E89451
S1131AA0A5912591359145915591A6F3EF010E9499
S1131AB0770AFE019701A801DA9469F7DF90EF90A5
S1131AC0FF900F911F91CF91DF9108959B01AC017D
S1131AD060E070E080E89FE30C94CC0A0C94AA0BBD
S1131AE00C94310D0E94DA0BD8F39923C9F3940FA7
S1131AF0511DA3F39150504094F059F0882332F0D3
S1131B00660F771F881F91505040C1F79E3F5105C3
S1131B102CF7880F911D9695879597F908955F3F47
S1131B20ACF0983E9CF0BB27869577956795B79562
S1131B3008F4B1609395C1F7BB0F58F711F460FF37
S1131B40E8CF6F5F7F4F8F4F9F4FE3CF0C94F50B20
S1131B5016F00C94310D0C94B00B68940C94AA0BF1
S1131B600E94DA0BA8F39923C1F3AEF3DF93CF936A
S1131B701F930F93FF92C92FDD2788232AF0219703
S1131B80660F771F881FDAF720E030E040E85FEB4C
S1131B909FE3883920F0803E38F021968F770E94A9
S1131BA0600AE4E2F2E004C00E94600AE1E5F2E0C7
S1131BB00E943F0D8B01BE01EC01FB2E6F57710992
S1131BC07595771F880B990B0E946F0B28E132E7FC
S1131BD041E35FE30E940E0CAF2D9801AE01FF902C
S1131BE00F911F91CF91DF910E94770A0C94C10B42
S1131BF0FA01DC01AA0FBB1F9B01AC01BF5728F4FB
S1131C00222733274427507820C0B75190F4AB2FB4
S1131C100024469537952795011CA395D2F30020FF
S1131C2071F0220F331F441FB395DAF30ED00C94D6
S1131C305F0A61307105A0E88A07B94630F49B0158
S1131C40AC016627772788279078309621F0208387
S1131C5031834283538308952F923F924F925F9230
S1131C606F927F928F929F92AF92BF92CF92DF92A8
S1131C70EF92FF920F931F93CF93DF93CDB7DEB70D
S1131C806097CDBFDEBF7C011B016A01FC01168297
S1131C901782838181FF44C39E012F5F3F4F390127
S1131CA0F7019381F10193FD859193FF81911F01C8
S1131CB0882309F431C3853239F493FD859193FF68
S1131CC081911F01853239F4B70190E00E94C91255
S1131CD056016501E5CF10E0512C912CFFE1F91577
S1131CE0D8F08B3279F038F4803279F08332A1F471
S1131CF0F92DF0612EC08D3261F0803369F4292D05
S1131D0021602DC0392D3260932E892D8460982E48
S1131D102AC0E92DE86015C097FC2DC020ED280FDE
S1131D202A3088F496FE06C03AE0139F200D112451
S1131D30122F19C08AE0589E200D1124522EE92D2D
S1131D40E0629E2E10C08E3231F496FCE5C2F92D6D
S1131D50F0649F2E08C08C3621F4292D2068922E21
S1131D6002C0883641F4F10193FD859193FF81917E
S1131D701F018111B3CF9BEB980F933020F4992D61
S1131D809061805E07C09BE9980F933008F066C1AC
S1131D90992D9F7E96FF16E09F73992E853619F430
S1131DA09064992E08C0863621F4392F3068932E1A
S1131DB002C01111115097FE07C01C3350F4442483
S1131DC04394410E27E00BC0183038F027E017E0A9
S1131DD005C027E09CE3492E02C0212F412C560167
S1131DE084E0A80EB11CF601608171818281938127
S1131DF0042DA3010E94DB116C01F981FC87F0FF23
S1131E0002C0F3FF06C091FC06C092FE06C000E2C9
S1131E1005C00DE203C00BE201C000E08C858C70AC
S1131E2019F001115AC29BC297FE10C04C0CFC85DC
S1131E30F4FF04C08A81813309F44A94141474F5BC
S1131E4028E0241578F588E0482E2CC096FC2AC09A
S1131E50812F90E08C159D059CF03CEFC3163FEF5D
S1131E60D30674F0892D8068982E0AC0E2E0F0E071
S1131E70EC0FFD1FE10FF11D8081803319F4115027
S1131E801111F4CF97FE0EC044244394410E812FC8
S1131E9090E0C816D9062CF41C1904C044244394B9
S1131EA001C010E097FE06C01C141D0434F4C601E2
S1131EB0019605C085E090E002C081E090E0011148
S1131EC00196112331F0212F30E02F5F3F4F820F15
S1131ED0931F252D30E08217930714F4581A01C07C
S1131EE0512C892D897049F4552039F0B70180E2CD
S1131EF090E00E94C9125A94F7CF002329F0B70149
S1131F00802F90E00E94C91293FC09C0552039F03B
S1131F10B70180E390E00E94C9125A94F7CF97FE6C
S1131F204CC04601D7FE02C0812C912CC6018819F1
S1131F309909F301E80FF91FED87FE87960124192B
S1131F4031092F87388B012F10E011950195110964
S1131F503FEF8316930629F4B7018EE290E00E94C6
S1131F60C912C814D9044CF08F859889881599052D
S1131F7024F4ED85FE85818101C080E3F1E08F1AB0
S1131F8091082D853E852F5F3F4F2D873E87801614
S1131F9091062CF0B70190E00E94C912D9CFC81461
S1131FA0D90441F49A81963320F4953319F43C858D
S1131FB034FF81E3B70190E04EC08A81813319F088
S1131FC09C859F7E9C87B70190E00E94C9121111E5
S1131FD005C094FC18C085E690E017C0B7018EE2F6
S1131FE090E00E94C9121E5F82E001E0080FF30135
S1131FF0E80FF11D8081B70190E00E94C912802F83
S11320000113F3CFE6CF85E490E0B7010E94C91233
S1132010D7FC06C0C114D10441F4EC85E4FF05C02B
S1132020D194C194D1088DE201C08BE2B70190E054
S11320300E94C91280E32AE0C216D1042CF08F5FFB
S1132040FAE0CF1AD108F7CFB70190E00E94C91285
S1132050B701C601C0960E94C91254C1833631F03B
S1132060833779F0833509F056C020C0560132E039
S1132070A30EB11CF6018081898301E010E06301A5
S113208012C05601F2E0AF0EB11CF601C080D1803F
S113209096FE03C0612F70E002C06FEF7FEFC601B0
S11320A00E94BE128C01F92DFF7714C0560122E064
S11320B0A20EB11CF601C080D18096FE03C0612F30
S11320C070E002C06FEF7FEFC6010E94B3128C0173
S11320D0F92DF0689F2EF3FD1AC0852D90E00817A6
S11320E01907A8F4B70180E290E00E94C9125A943B
S11320F0F4CFF60197FC859197FE81916F01B701AA
S113210090E00E94C91251105A940150110901150E
S1132110110579F7F7C0843611F0893661F5560157
S113212097FE09C024E0A20EB11CF6016081718102
S1132130828193810AC0F2E0AF0EB11CF601608186
S11321407181072E000C880B990BF92DFF769F2EB9
S113215097FF09C090958095709561957F4F8F4F3B
S11321609F4FF0689F2E2AE030E0A3010E9449139C
S1132170C82EC6183FC0092D853721F40F7E2AE0EA
S113218030E01DC0097F8F3691F018F4883559F07E
S1132190C3C0803719F0883711F0BEC0006104FF56
S11321A009C0046007C094FE08C0066006C028E0A9
S11321B030E005C020E130E002C020E132E0560109
S11321C007FF09C084E0A80EB11CF601608171818B
S11321D08281938108C0F2E0AF0EB11CF6016081E8
S11321E0718180E090E0A3010E944913C82EC618B3
S11321F00F77902E96FE0BC0092D0E7FC11650F45A
S113220094FE0AC092FC08C0092D0E7E05C0DC2C89
S1132210092D03C0DC2C01C0D12E04FF0DC0FE012A
S1132220EC0DF11D8081803311F4097E09C002FF99
S113223006C0D394D39404C0802F867809F0D39435
S113224003FD11C000FF06C01C2DD51480F4150D2C
S11322501D190DC0D51458F4B70180E290E00E9416
S1132260C912D394F7CFD51410F45D1801C0512CC2
S113227004FF10C0B70180E390E00E94C91202FF7E
S113228017C001FD03C088E790E002C088E590E034
S1132290B7010CC0802F867859F001FF02C08BE291
S11322A001C080E207FD8DE2B70190E00E94C912EF
S11322B0C11638F4B70180E390E00E94C9121150AE
S11322C0F7CFCA94F301EC0DF11D8081B70190E0C2
S11322D00E94C912C110F5CF15C0F4E0F51560F5E0
S11322E084E0581A93FE1FC0011127C02C8523FFD8
S11322F02AC006E812E0392D3071932EF80184913A
S1132300811124C0552009F4E4CCB70180E290E0A7
S11323100E94C9125A94F6CFF7018681978126C08C
S11323208FEF9FEF23C0B70180E290E00E94C912B3
S11323305A945110F8CFD8CF512CB701802F90E088
S11323400E94C912D3CF0AE812E0D5CF911080526F
S1132350B70190E00E94C9120F5F1F4FCFCF23E057
S1132360251510F483E0BDCF512CC0CF6096CDBFAE
S1132370DEBFDF91CF911F910F91FF90EF90DF901F
S1132380CF90BF90AF909F908F907F906F905F9011
S11323904F903F902F900895A29FB001B39FC0012A
S11323A0A39F700D811D1124911DB29F700D811D7D
S11323B01124911D0895283008F027E03327DA010D
S11323C0990F311D87FD916000966105710539F4FF
S11323D032602E5F3D9330E32A95E1F708959F3FE5
S11323E030F080387105610509F03C5F3C5F3D9336
S11323F0913008F08068911DDF93CF931F930F9362
S1132400FF92EF92192F987F9695E92F96959695BE
S1132410E90FFF27E851FD4F99273327EE24FF24C6
S1132420A701E70105900894079428F4360FE71EE6
S1132430F81E491F511D660F771F881F991F0694A8
S1132440A1F70590079428F4E70EF81E491F561FBC
S1132450C11D770F881F991F661F0694A1F7059069
S1132460079428F4F80E491F561FC71FD11D880F63
S1132470991F661F771F0694A1F70590079420F40F
S1132480490F561FC71FD81F990F661F771F881F34
S11324900694A9F784911095177041F0D695C795C5
S11324A057954795F794E7941A95C1F7EEE8F2E04B
S11324B068941590159135916591959105907FE2F9
S11324C07395E118F10A430B560BC90BD009C0F7F9
S11324D0E10CF11E431F561FC91FD01D7EF470333B
S11324E011F48A95E6CFE894015030F0080F0AF40D
S11324F00027021708F4202F2395022F7A3328F09F
S113250079E37D932A95E9F710C07D932A9589F69E
S1132510069497956795379517951794E118F10ADE
S1132520430B560BC90BD00998F023957E917395F4
S11325307A3308F070E37C932013B8F77E917061CE
S11325407D9330F0839571E37D9370E32A95E1F7F1
S11325501124EF90FF900F911F91CF91DF91992754
S113256087FD90950895FC0105906150704001101D
S1132570D8F7809590958E0F9F1F0895FC016150A8
S1132580704001900110D8F7809590958E0F9F1F91
S113259008950F931F93CF93DF93FB01238121FDB4
S11325A003C08FEF9FEF2CC022FF16C046815781D6
S11325B0248135814217530744F4A081B1819D01E0
S11325C02F5F3F4F208331838C93268137812F5F88
S11325D03F4F2683378314C08B01EC01FB01008439
S11325E0F185E02D1995892BE1F6D80116968D9188
S11325F09C911797019616968D939C931797CE01ED
S1132600DF91CF911F910F910895CF93DF93CDB7B1
S1132610DEB7AE014A5F5F4FFA0161917191AF017C
S11326208091B0249091B1240E942C0EDF91CF911F
S113263008950F931F93CF93DF93E091B024F0910B
S1132640B124238121FF1BC08C01D0E0C0E0F8013C
S113265081918F016091B0247091B124DB011896AF
S1132660ED91FC911997882331F01995892B79F311
S1132670DFEFCFEFECCF8AE01995892B19F08FEFBC
S11326809FEF02C08D2F9C2FDF91CF911F910F914F
S11326900895FA01AA27283051F1203181F1E894F4
S11326A06F936E7F6E5F7F4F8F4F9F4FAF4FB1E041
S11326B03ED0B4E03CD0670F781F891F9A1FA11D3C
S11326C0680F791F8A1F911DA11D6A0F711D811D3D
S11326D0911DA11D20D009F468943F912AE0269F02
S11326E011243019305D3193DEF6CF010895462F61
S11326F04770405D4193B3E00FD0C9F7F6CF462F42
S11327004F70405D4A3318F0495D31FD40524193AA
S113271002D0A9F7EACFB4E0A69597958795779567
S11327206795BA95C9F700976105710508959B01EE
S1132730AC010A2E06945795479537952795BA9577
S1132740C9F7620F731F841F951FA01D0895F89485
S1052750FFCFB5
S113275204000900080008000C000E000000000339
S113276200000000EC07AC0700005F494E54203D16
S11327723D204C4F570053504920494E5420746910
S11327826D656F757400424E4F3038302069732086
S11327926177616B652100486F73742073656E64A1
S11327A2207061636B657420746F20424E4F303821
S11327B2300073687470646174615B25645D3A20EF
S11327C22564200A002D2D2D2D2D4C656E6768740D
S11327D2203D2025640A0053656E6420636F6D6D8D
S11327E2616E64005365742075702063616C696264
S11327F2726174696F6E20636F6D6D616E640073D4
S1132802657446656174757265436F6D6D616E645E
S11328122120006E6F7468696E6720746F20726580
S113282263656976652E2E2E007265616479207463
S11328326F207265636569766521002D203173749A
S11328422077616974002D20326E64207761697487
S1132852002D203372642077616974002D66204252
S11328624E4F30383073656E645061636B6574002B
S11328722D206177616974207061636B65740063F4
S11328826F727265637420494420726573706F6E4F
S113289273652100494420726573706F6E736520FD
S11328A26661696C65642E2E2E0050617273652018
S11328B2696E707574207265706F7274200052456F
S11328C2504F52545F49445F494E444558203D207D
S11328D225640A00414343454C45524F4D455445F6
S11328E252004C494E4541525F414343454C455287
S11328F24154494F4E004759524F53434F5045009C
S11329024D41474E455449435F4649454C44005264
S11329124F544154494F4E20564543544F5200534D
S1132922657420526F746174696F6E566563746F57
S11329327221200053657420416363656C65726F74
S11329426D65746572212000536574204C696E654F
S1132952617220416363656C65726F6D6574657243
S1132962212000536574204779726F21200053653A
S113297274204D61676E65746F6D65746572212094
S113298200506172736520636F6D6D616E642072B5
S113299265706F72742000526563656976656420A0
S11329A27061636B657421004461746120617661B6
S11329B2696C61626C65210043616C696272617465
S11329C2696F6E204D6F646521004F70657261748A
S11329D2696F6E204D6F64652100583A2025302EB0
S11329E23266207C20593A2025302E3266207C2003
S11329F25A3A2025302E3266207C202564200A0093
S1132A02783A2025302E32662C20793A2025302E31
S1132A1232662C207A3A2025302E32662C206163CD
S1132A22637572617469653A202564200A004B411A
S1132A324E4B455200783A2025302E32662C2079AE
S1132A423A2025302E32662C207A3A2025302E3236
S1132A52662C20773A2025302E3266206163637516
S1132A6272617469653A2025302E3266200A0000AC
S9030000FC
