:100000000C94C4010C94E5010C94E5010C94E501F9
:100010000C94E5010C94E5010C94E5010C94E501C8
:100020000C94E5010C94E5010C94E5010C94E501B8
:100030000C94E5010C94E5010C94E5010C94E501A8
:100040000C94E5010C94E5010C94E5010C94E50198
:100050000C94E5010C94E5010C94E5010C94E50188
:100060000C94E5010C94E5010C94E5010C94E50178
:100070000C94E5010C94E5010C94E5010C94E50168
:100080000C94E5010C94E5010C94E5010C94E50158
:100090000C94E5010C94E5010C94E5010C94E50148
:1000A0000C94E5010C94E5010C94E5010C94E50138
:1000B0000C94E5010C94E5010C94E5010C94E50128
:1000C0000C94E5010C94E5010C94E5010C94E50118
:1000D0000C94E5010C94E5010C94E5010C94E50108
:1000E0000C94E5010C94E5010C94E5010C94E501F8
:1000F0000C94E5010C94E5010C94E5010C94E501E8
:100100000C94E5010C94E5010C94E5010C94E501D7
:100110000C94E5010C94E5010C94E5010C94E501C7
:100120000C94E5010C94E5010C94E5010C94E501B7
:100130000C94E5010C94E5010C94E5010C94E501A7
:100140000C94E5010C94E5010C94E5010C94E50197
:100150000C94E5010C94E5010C94E5010C94E50187
:100160000C94E5010C94E5010C94E5010C94E50177
:100170000C94E5010C94E5010C94E5010C94E50167
:100180000C94E5010C94E5010C94E5010C94E50157
:100190000C94E5010C94E5010C94E5010C94E50147
:1001A0000C94E5010C94E5010C94E5010C94E50137
:1001B0000C94E5010C94E5010C94E5010C94E50127
:1001C0000C94E5010C94E5010C94E5010C94E50117
:1001D0000C94E5010C94E5010C94E5010C940E09D6
:1001E0000C9436090C94E5010C94E5010C94E5019E
:1001F0000C94E5010C94E5010C94E501076342368B
:10020000B79BD8A71A39685618AEBAAB558C1D3CA7
:10021000B7CC5763BD6DEDFD753EF6177231BF006B
:100220000000803F08000000BE922449123EABAAA5
:10023000AA2ABECDCCCC4C3E00000080BEABAAAA00
:10024000AA3E00000000BF000000803F0000000048
:1002500000084178D3BB4387D1133D190E3CC3BD81
:100260004282AD2B3E68EC8276BED98FE1A93E4C2E
:1002700080EFFFBE01C4FF7F3F00000000000C9430
:10028000AC070C94EC076E616E00696E660000406E
:100290007A10F35A00A0724E18090010A5D4E80095
:1002A00000E87648170000E40B54020000CA9A3BAD
:1002B000000000E1F5050000809698000000404233
:1002C0000F000000A08601000000102700000000C1
:1002D000E803000000006400000000000A000000C5
:1002E00000000100000000002C76D888DC674F0871
:1002F00023DFC1DFAE59E1B1B796E5E3E453C63A77
:10030000E651997696E8E6C28426EB898C9B62EDED
:10031000407C6FFCEFBC9C9F40F2BAA56FA5F490A7
:10032000055A2AF75C936B6CF9676DC11BFCE0E41E
:100330000D47FEF520E6B500D0ED902E0300943574
:1003400077050080841E080000204E0A000000C8C7
:100350000C333333330F986E12831141EF8D211418
:10036000893BE65516CFFEE6DB18D1844B381BF7E8
:100370007C1D901DA4BBE424203284725E22810087
:10038000C9F124ECA1E53D2711241FBECFEFCDBF5D
:10039000DFE5DEBF00E00CBF13E2A0E0B0E2E8E47E
:1003A000F7E200E00BBF02C007900D92A831B10741
:1003B000D9F724E2A8E1B3E201C01D92AC3AB2073A
:1003C000E1F70E947E090C94A2130C940000E0E077
:1003D000F6E081E0828398E1908B22E0218320E4A3
:1003E0002183968BE0E6F6E0828380E1808B08959E
:1003F000CF938091080680FD17C003C0808580FDE3
:1004000006C08AE190E20E941413C1E017C083EF96
:1004100091E00197F1F700C00000C15079F786E242
:1004200090E20E9414130AC083EF91E00197F1F764
:1004300000C00000CCE7E0E0F6E0E0CF8C2FCF91E9
:1004400008959F92AF92BF92CF92DF92EF92FF9268
:100450000F931F93CF93DF93C82FD62F80E4809301
:1004600006060E94F801882309F463C06894992461
:1004700092F89D0E86E390E20E94141380E180932F
:10048000660680E48093050687E490E20E941413D8
:10049000892D0E94740980E00E9474098C2F0E94AB
:1004A0007409EC2FF0E0E35EFC4D808191E0980F41
:1004B00090830E947409DD2359F10F2EF9E1AF2ECC
:1004C000F4E2BF2EF02DD1506D2F70E0CB01865E8F
:1004D0009B4D6C01E50102E610E27E0188811F92CE
:1004E0008F93CE018A199B099F938F931F930F932C
:1004F0000E9400132196F70180810E9474090F90D9
:100500000F900F900F900F900F90CC15DD0529F7ED
:1005100080E1809365061F929F9285E790E29F930A
:100520008F930E9400130F900F900F900F9081E017
:1005300004C080E48093050680E0DF91CF911F9195
:100540000F91FF90EF90DF90CF90BF90AF909F9072
:100550000895CF93C82F87E890E20E941413E9E131
:10056000F4E282EF808380911C2391E0980F9093B6
:100570001C238183C2836CE082E00E942102CF9120
:100580000895CF93C82F84E990E20E941413ECE100
:10059000F4E285E294E21192E817F907E1F7C1115C
:1005A00004C081E080931C241AC0C13021F481E092
:1005B00080931D2414C0C23021F481E080931E2456
:1005C0000EC0C33021F481E08093202408C0C430E1
:1005D00031F4E9E1F4E281E083838483858381E07F
:1005E00080939B2487E00E94A902CF910895CF9227
:1005F000DF92FF920F931F93CF93DF93F82E6B013F
:10060000022F132FD42FC52F8FEA90E20E941413CC
:100610009601A8EEB3E00E94C711E9E1F4E22DEFE4
:100620002083F1821282138214826583768387830A
:100630009087118612861386148605871687D787BA
:10064000C08B61E182E00E942102DF91CF911F9176
:100650000F91FF90DF90CF900895EF92FF920F934C
:100660001F93CF93DF930E94F801811106C083ECA2
:1006700090E20E94141380E045C089ED90E20E9450
:10068000141380E18093660680E00E947409082FAD
:1006900080E00E947409C82F80E00E947409D82F5E
:1006A00080E00E947409E2EFF3E20083C183D28309
:1006B000838310E01C2B1F770115110529F480E1BD
:1006C0008093650680E01EC004501109B9F00F2E1A
:1006D000F9E1EF2EF4E2FF2EF02DC0E0D0E080E053
:1006E0000E947409C038D10510F4F7018083219667
:1006F000FFEFEF1AFF0AC017D10788F380E180935C
:10070000650681E0DF91CF911F910F91FF90EF90EF
:1007100008950E94E7010E94670980E180936506C1
:10072000E0E0F6E080E4858382E08683A7EEB3E034
:100730001197F1F700C0000085838BEE90E20E94D4
:1007400014130E94F80186EF90E20E9414130E9495
:10075000F8010E942D0381E091E20E9414130E948F
:10076000F8010E942D03E9E1F4E289EF8083118210
:100770008CE091E20E94141362E082E00E94210268
:1007800080E291E20E9414130E94F8010E942D035E
:100790008823A1F080911924883F51F48FE291E2DF
:1007A0009F938F930E9400130F900F9081E0089504
:1007B00084E491E20E94141380E0089580E008959B
:1007C0007F928F929F92AF92BF92CF92DF92EF92E1
:1007D000FF920F931F93CF93DF938AE591E20E94DC
:1007E0001413E2EFF3E2818190E0982F88272081B3
:1007F000822BE9E1F4E22481438150E060E070E083
:10080000BA0155274427722B2181422B2281522B7A
:100810004093FA235093FB236093FC237093FD23B2
:1008200027812370722EE284F12CFE2CEE24218588
:10083000E22A048510E0102F00272385022BC685AD
:10084000D0E0DC2FCC2725854E01822A9F7709979F
:100850008A3091053CF0A088B12CBA2CAA242785B7
:10086000A22A02C0A12CB12C0C974CF0E9E1F4E2D1
:10087000C288D12CDC2CCC248189C82A02C0C12C8E
:10088000D12CC9E1D4E28D811F928F938EE691E243
:100890009F938F930E9400138D810F900F900F9064
:1008A0000F908130D1F484E891E20E941413872DD7
:1008B00090E08093A0249093A124E0929924F09258
:1008C0009A240093A4241093A52480920D2490923E
:1008D0000E2481E08093232377C08430D1F482E911
:1008E00091E20E941413872D90E080930924909345
:1008F0000A24E0920124F092022400939C24109395
:100900009D24809213249092142484E080932323C6
:100910005BC08230D1F486EA91E20E941413872DE5
:1009200090E08093152490931624E0921724F0927F
:100930001824009305241093062480920324909297
:10094000042482E0809323233FC08330D1F480EBE2
:1009500091E20E941413872D90E08093F6239093E8
:10096000F723E0920724F092082400939E2410932A
:100970009F2480920B2490920C2483E08093232365
:1009800023C0853009F58FEB91E20E941413872D67
:1009900090E08093FF2390930024E092A224F092B1
:1009A000A32400931124109312248092F023909298
:1009B000F123A092F823B092F923C0920F24D09291
:1009C000102485E080932323DF91CF911F910F9115
:1009D000FF90EF90DF90CF90BF90AF909F908F905F
:1009E0007F900895CF93DF93EC018FEC91E20E940A
:1009F000141320E030E0A901BE0185E00E94F70257
:100A0000DF91CF910895CF93DF93EC0184EE91E2D3
:100A10000E94141320E030E0A901BE0181E00E9491
:100A2000F702DF91CF910895CF93DF93EC0188EF28
:100A300091E20E94141320E030E0A901BE0184E09D
:100A40000E94F702DF91CF910895CF93DF93EC01DD
:100A500083E192E20E94141320E030E0A901BE017C
:100A600082E00E94F702DF91CF910895CF93DF9348
:100A7000EC018EE192E20E94141320E030E0A90123
:100A8000BE0183E00E94F702DF91CF91089581E3D8
:100A900092E20E94141380911924813F41F48091C5
:100AA0001B24873021F480911E2480939B24089579
:100AB000CF938091080680FD1DC00E942D03C82F92
:100AC0008823E9F087E492E20E9414138091F423D2
:100AD000833059F4809119248B3F71F40E94E00314
:100AE00088E592E20E9414130AC0823039F40E9411
:100AF000470505C0C0E003C0C0E001C0C0E08C2FC6
:100B0000CF910895CF92DF92EF92FF92CF93C62FAD
:100B1000BC01990F880B990B0E946A0B6B017C0139
:100B20006C2F70E0719561957109072E000C880B90
:100B3000990B0E946A0B9B01AC0160E070E080E0C1
:100B400090E40E94630C9B01AC01C701B6010E94B6
:100B5000F60BCF91FF90EF90DF90CF9008956091CA
:100B600006208091992490919A240E9482050895EC
:100B7000609106208091A4249091A5240E94820572
:100B800008956091062080910D2490910E240E947A
:100B9000820508956091042080910124909102249F
:100BA0000E94820508956091042080919C24909178
:100BB0009D240E9482050895609104208091132451
:100BC000909114240E94820508958091092408952B
:100BD0006091022080911724909118240E94820530
:100BE00008956091022080910524909106240E942E
:100BF000820508956091022080910324909104243D
:100C00000E948205089560910020809107249091B0
:100C100008240E94820508956091002080919E24FE
:100C200090919F240E9482050895609100208091F8
:100C30000B2490910C240E948205089560910A2053
:100C40008091A2249091A3240E948205089560912E
:100C50000A2080911124909112240E948205089507
:100C600060910A208091F0239091F1230E948205E7
:100C7000089560910A208091F8239091F9230E94B1
:100C8000820508956091082080910F24909110248E
:100C90000E94820508958091680680FF0CC081E063
:100CA0008093FE2388E692E29F938F930E94001325
:100CB0000F900F9008951092FE238AE792E29F937F
:100CC0008F930E9400130F900F9008950E94890344
:100CD000882319F00E944B0681E00895CF92DF929D
:100CE000EF92FF920F931F93CF93DF938091232373
:100CF000813009F043C080911A238F5F80931A23BB
:100D00000E94AF05C62FD72F182F092F0E94B805B4
:100D1000F62EE72ED82EC92E0E94C1052091A124BF
:100D20002F932091A0242F939F938F937F936F9362
:100D3000CF92DF92EF92FF920F931F93DF93CF93A7
:100D40008AE892E29F938F930E9400138091680635
:100D50002DB73EB7205F3F4F2DBF3EBF80FF0EC077
:100D60008091A0249091A1240297029738F4809159
:100D70001A238D3318F081E080931B23DF91CF91EC
:100D80001F910F91FF90EF90DF90CF900895CF9239
:100D9000DF92EF92FF920F931F93CF93DF93809197
:100DA0002323823009F043C0809119238F5F809301
:100DB00019230E94E805C62FD72F182F092F0E944C
:100DC000F105F62EE72ED82EC92E0E94FA052091A5
:100DD00016242F93209115242F939F938F937F9305
:100DE0006F93CF92DF92EF92FF920F931F93DF9357
:100DF000CF938AE892E29F938F930E940013809191
:100E000068062DB73EB7205F3F4F2DBF3EBF80FF26
:100E10000EC080911524909116240297029738F401
:100E2000809119238F3118F082E080931B23DF918A
:100E3000CF911F910F91FF90EF90DF90CF90089589
:100E4000CF92DF92EF92FF920F931F93CF93DF9396
:100E500080912323833009F043C0809118238F5F52
:100E6000809318230E940306C62FD72F182F092F0F
:100E70000E940C06F62EE72ED82EC92E0E941506CB
:100E80002091F7232F932091F6232F939F938F93F5
:100E90007F936F93CF92DF92EF92FF920F931F9306
:100EA000DF93CF938AE892E29F938F930E9400137F
:100EB000809168062DB73EB7205F3F4F2DBF3EBFE4
:100EC00080FF0EC08091F6239091F723029702973E
:100ED00038F4809118238D3318F083E080931B231E
:100EE000DF91CF911F910F91FF90EF90DF90CF9006
:100EF000089580911B23811102C00E946E0680918B
:100F00001B23813011F40E94C70680911B2382307D
:100F100011F40E94200708958091892390918823DD
:100F2000891710F0891B08958C59891B0895CF9358
:100F3000C09188230E948C078823E1F3EC2FF0E016
:100F4000EC5DFC4D808191E09C0F943608F090E0C0
:100F500090938823CF9108950E94970790E0089579
:100F60002091EF2391E0920F8091EE23943610F0C0
:100F70009DE9920F891710F0891B08958C59891BE0
:100F800008950F931F93CF93DF93D82F00EA1BE0B0
:100F9000C1E202C0F801C3830E94B0078823D1F3E5
:100FA0008091EF23E82FF0E0E657FC4DD0838F5F70
:100FB000843608F080E0E0EAF0E09281292F2E7F6D
:100FC00022838093EF2381E28093A30B9283DF91AE
:100FD000CF911F910F910895CF93DF93D82FCFEF2B
:100FE00003C0CC2391F0C1500E94B0078823C9F3FD
:100FF000CC2371F0DA3019F48DE00E94C1078D2FF7
:101000000E94C10780E090E005C081E090E002C04E
:1010100081E090E0DF91CF9108954F925F926F92BF
:101020007F928F929F92AF92BF92EF92FF920F9317
:101030001F93CF934B015C0107E010E0C9EFEE2452
:10104000E394F12CCC2354F5C501B4010E94680B44
:1010500020E030E041EE59E40E94C70A20E030E091
:1010600040E85FE30E945A0A2B013C01B701002EC1
:1010700002C0660F771F0A94E2F7072E000C880B58
:10108000990B0E946A0B9B01AC01C301B2010E9443
:10109000F60B0E94B30C0E94390B2CC0C501B401A1
:1010A0000E94680B20E030E041EE59E40E94C70A3C
:1010B0002B013C0188279927801B910BB70102C0A7
:1010C000660F771F8A95E2F7072E000C880B990BA5
:1010D0000E946A0B9B01AC01C301B2010E94C70AC6
:1010E00020E030E040E85FE30E945A0A0E94B30C1F
:1010F0000E94390B6115704138F0CF5F0150110922
:10110000C83009F09FCF31C0CC237CF5C501B401B4
:101110000E94680B20E030E041EE59E40E94C70ACB
:1011200020E030E040E85FE30E945A0A4B015C0196
:101130002C2F332721950CF4309561E070E002C02C
:10114000660F771F2A95E2F7072E000C880B990B84
:101150000E946A0B9B01AC01C501B4010E94F60B11
:101160000E94B30C0E94390B2AC0C501B4010E9431
:10117000680B20E030E041EE59E40E94C70A4B01C1
:101180005C0161E070E00C2E02C0660F771F0A94CC
:10119000E2F7072E000C880B990B0E946A0B9B014B
:1011A000AC01C501B4010E94C70A20E030E040E86C
:1011B0005FE30E945A0A0E94B30C0E94390BE0EAD6
:1011C000F6E088E1828B98E09583918394E09283A6
:1011D000E0EAFBE066837F70C295C07FC72BC783C0
:1011E000848380E28383E0EAF0E08281836082830B
:1011F000E6EAF4E28CE090E2808391838283938339
:10120000CF911F910F91FF90EF90BF90AF909F9063
:101210008F907F906F905F904F9008951F920F92E4
:101220000FB60F9211240BB60F928F939F93EF93EB
:10123000FF9380918923E82FF0E09091A00BEC5D63
:10124000FC4D90838F5F843608F080E09091882376
:10125000891380938923FF91EF919F918F910F9034
:101260000BBE0F900FBE0F901F9018951F920F92FC
:101270000FB60F9211240BB60F922F938F939F935B
:10128000EF93FF938091EE239091EF23891769F0FC
:10129000E82FF0E0E657FC4D20812093A00B8F5FF4
:1012A000843608F080E0891304C080E28093A30BA9
:1012B000892F8093EE23FF91EF919F918F912F9132
:1012C0000F900BBE0F900FBE0F901F901895E0E689
:1012D000F6E080EB818380E4828380E1868B8583E6
:1012E0008CE58093C00908958093C309E0ECF9E090
:1012F00082818823ECF78091C30908952F923F9251
:101300004F925F926F927F928F929F92AF92BF9215
:10131000CF92DF92EF92FF920F931F93CF93DF93C1
:10132000E0E6F6E084E08183858360E874E88EE19E
:1013300090E00E940D0878940E946606882309F4C4
:10134000A4C08091FE23813091F484E00E94C10208
:1013500084E690E00E94030584E690E00E94250563
:1013600084E690E00E943605C0EBD2E27FC0811196
:1013700088C088EE93E00E94140588EE93E00E94F6
:10138000F204F2CF0E945805882379F1809123233B
:10139000843059F50E94CA05162F072FF82EE92E22
:1013A0000E94D305D62EC72EB82EA92E0E94DC058A
:1013B000962E872E782E692E0E94E5051F928F9318
:1013C0006F927F928F929F92AF92BF92CF92DF9255
:1013D000EF92FF920F931F93DF93CF930E9400131E
:1013E0008DB79EB740968DBF9EBF0E94580588233B
:1013F000E9F1809123238530C9F50E941E06162F3E
:10140000072FF82EE92E0E942706D62EC72EB82EBB
:10141000A92E0E943006962E872E782E692E0E94C5
:101420003906562E472E382E292E0E9442069F93AB
:101430008F937F936F932F923F924F925F926F9211
:101440007F928F929F92AF92BF92CF92DF92EF9254
:10145000FF920F931F938EED92E29F938F930E94C2
:1014600000138DB79EB746968DBF9EBF8091FE2319
:10147000882309F487CF05C00E94580581110E9476
:1014800079078091FE238130B9F380E090E0DF910D
:10149000CF911F910F91FF90EF90DF90CF90BF9071
:1014A000AF909F908F907F906F905F904F903F9004
:1014B0002F9008955058BB27AA270E94720A0C94B7
:1014C000BC0B0E94AE0B38F00E94B50B20F039F433
:1014D0009F3F19F426F40C94AB0B0EF4E095E7FB58
:1014E0000C94A50BE92F0E94CD0B58F3BA17620795
:1014F00073078407950720F079F4A6F50C94EF0B99
:101500000EF4E0950B2EBA2FA02D0B01B90190011E
:101510000C01CA01A0011124FF27591B99F0593F62
:1015200050F4503E68F11A16F040A22F232F342FAA
:101530004427585FF3CF469537952795A795F040F8
:101540005395C9F77EF41F16BA0B620B730B840B0D
:10155000BAF09150A1F0FF0FBB1F661F771F881FC5
:10156000C2F70EC0BA0F621F731F841F48F487951D
:1015700077956795B795F7959E3F08F0B0CF93950F
:10158000880F08F09927EE0F9795879508950E9488
:10159000DB0A0C94BC0B0E94B50B58F00E94AE0BFA
:1015A00040F029F45F3F29F00C94A50B51110C94E5
:1015B000F00B0C94AB0B0E94CD0B68F39923B1F3A5
:1015C000552391F3951B550BBB27AA276217730769
:1015D000840738F09F5F5F4F220F331F441FAA1FFD
:1015E000A9F335D00E2E3AF0E0E832D091505040B9
:1015F000E695001CCAF72BD0FE2F29D0660F771F67
:10160000881FBB1F261737074807AB07B0E809F04C
:10161000BB0B802DBF01FF2793585F4F3AF09E3FD1
:10162000510578F00C94A50B0C94F00B5F3FE4F39C
:10163000983ED4F3869577956795B795F7959F5F14
:10164000C9F7880F911D9695879597F90895E1E060
:10165000660F771F881FBB1F621773078407BA07BF
:1016600020F0621B730B840BBA0BEE1F88F7E0951A
:1016700008950E94D50B88F09F5798F0B92F9927AD
:10168000B751B0F0E1F0660F771F881F991F1AF06D
:10169000BA95C9F714C0B13091F00E94EF0BB1E0D8
:1016A00008950C94EF0B672F782F8827B85F39F0D7
:1016B000B93FCCF3869577956795B395D9F73EF406
:1016C00090958095709561957F4F8F4F9F4F0895AE
:1016D000E89409C097FB3EF49095809570956195CC
:1016E0007F4F8F4F9F4F9923A9F0F92F96E9BB2782
:1016F0009395F695879577956795B795F111F8CFFE
:10170000FAF4BB0F11F460FF1BC06F5F7F4F8F4F68
:101710009F4F16C0882311F096E911C0772321F05E
:101720009EE8872F762F05C0662371F096E8862FF6
:1017300070E060E02AF09A95660F771F881FDAF74D
:10174000880F9695879597F9089597F99F6780E890
:1017500070E060E008959FEF80EC089500240A9403
:101760001616170618060906089500240A9412167C
:101770001306140605060895092E0394000C11F4AF
:10178000882352F0BB0F40F4BF2B11F460FF04C05C
:101790006F5F7F4F8F4F9F4F089557FD9058440FB5
:1017A000551F59F05F3F71F04795880F97FB991FC0
:1017B00061F09F3F79F0879508951216130614067D
:1017C000551FF2CF4695F1DF08C01616170618060A
:1017D000991FF1CF86957105610508940895E894E5
:1017E000BB2766277727CB0197F908950E94090C3C
:1017F0000C94BC0B0E94AE0B38F00E94B50B20F08D
:10180000952311F00C94A50B0C94AB0B11240C94A4
:10181000F00B0E94CD0B70F3959FC1F3950F50E034
:10182000551F629FF001729FBB27F00DB11D639F92
:10183000AA27F00DB11DAA1F649F6627B00DA11D38
:10184000661F829F2227B00DA11D621F739FB00DDE
:10185000A11D621F839FA00D611D221F749F33274E
:10186000A00D611D231F849F600D211D822F762FE7
:101870006A2F11249F5750409AF0F1F088234AF0C4
:10188000EE0FFF1FBB1F661F771F881F9150504030
:10189000A9F79E3F510580F00C94A50B0C94F00B1A
:1018A0005F3FE4F3983ED4F3869577956795B795B7
:1018B000F795E7959F5FC1F7FE2B880F911D9695D1
:1018C000879597F90895FA01EE0FFF1F30962105CD
:1018D0003105A1F16115710561F48038BFE39B0703
:1018E00049F168949038810561F08038BFEF9B071B
:1018F00041F099234AF5FF3FE1053105210519F132
:10190000E8940894E795D901AA2329F4AB2FBE2FB8
:10191000F85FD0F310C0FF5F70F4A695E0F7F739D9
:1019200050F019F0FF3A38F49F779F930DD00F9045
:1019300007FC9058089546F00C94AB0B60E070E003
:1019400080E89FE308954FE79F775F934F933F931E
:101950002F930E94AB0D2F913F914F915F910E9469
:10196000F60B0C94DF0C0E94D50BE8F09E37E8F0E4
:101970009639B8F49E3848F4672F782F8827985FF7
:10198000F9CF86957795679593959539D0F3B62FCE
:10199000B1706B0F711D811D20F487957795679548
:1019A00093950C94110D0C942C0D0C94F00B29F4C0
:1019B00016F00C94A50B0C94EF0B0C94AB0B0E943F
:1019C000D50BA8F39638A0F707F80F92E8942BE30D
:1019D0003AEA48EB5FE70E940C0C0F920F920F92CD
:1019E0004DB75EB70F920E94F30DECEFF1E00E944D
:1019F0003A0D4F915F91EF91FF91E595EE1FFF1F1B
:101A000049F0FE57E0684427EE0F441FFA95E1F7CE
:101A10004195550B0E946D0D0F9007FE0C94610DC2
:101A20000895882371F4772321F09850872B762F1F
:101A300007C0662311F499270DC09051862B70E0E2
:101A400060E02AF09A95660F771F881FDAF7880FF3
:101A50009695879597F908959F3F31F0915020F41E
:101A6000879577956795B795880F911D969587957A
:101A700097F90895DF93CF931F930F93FF92EF92FF
:101A8000DF927B018C01689406C0DA2EEF010E9480
:101A9000090CFE01E894A591259135914591559148
:101AA000A6F3EF010E94720AFE019701A801DA94E1
:101AB00069F7DF90EF90FF900F911F91CF91DF9129
:101AC00008959B01AC0160E070E080E89FE30C9416
:101AD000C70A0C94A50B0C942C0D0E94D50BD8F3BF
:101AE0009923C9F3940F511DA3F39150504094F0E2
:101AF00059F0882332F0660F771F881F91505040AD
:101B0000C1F79E3F51052CF7880F911D969587953B
:101B100097F908955F3FACF0983E9CF0BB278695FF
:101B200077956795B79508F4B1609395C1F7BB0FAA
:101B300058F711F460FFE8CF6F5F7F4F8F4F9F4FD3
:101B4000E3CF0C94F00B16F00C942C0D0C94AB0B13
:101B500068940C94A50B0E94D50BA8F39923C1F3AC
:101B6000AEF3DF93CF931F930F93FF92C92FDD271F
:101B700088232AF02197660F771F881FDAF720E065
:101B800030E040E85FEB9FE3883920F0803E38F09A
:101B900021968F770E945B0AE4E2F2E004C00E9483
:101BA0005B0AE1E5F2E00E943A0D8B01BE01EC0117
:101BB000FB2E6F5771097595771F880B990B0E9443
:101BC0006A0B28E132E741E35FE30E94090CAF2D85
:101BD0009801AE01FF900F911F91CF91DF910E946C
:101BE000720A0C94BC0BFA01DC01AA0FBB1F9B010B
:101BF000AC01BF5728F4222733274427507820C050
:101C0000B75190F4AB2F0024469537952795011CCA
:101C1000A395D2F3002071F0220F331F441FB39518
:101C2000DAF30ED00C945A0A61307105A0E88A07E5
:101C3000B94630F49B01AC01662777278827907856
:101C4000309621F0208331834283538308952F926D
:101C50003F924F925F926F927F928F929F92AF923C
:101C6000BF92CF92DF92EF92FF920F931F93CF9389
:101C7000DF93CDB7DEB76097CDBFDEBF7C011B0120
:101C80006A01FC0116821782838181FF44C39E0191
:101C90002F5F3F4F3901F7019381F10193FD85914A
:101CA00093FF81911F01882309F431C3853239F4F0
:101CB00093FD859193FF81911F01853239F4B7011E
:101CC00090E00E94C41256016501E5CF10E0512C4E
:101CD000912CFFE1F915D8F08B3279F038F480328D
:101CE00079F08332A1F4F92DF0612EC08D3261F0CC
:101CF000803369F4292D21602DC0392D3260932E57
:101D0000892D8460982E2AC0E92DE86015C097FCC3
:101D10002DC020ED280F2A3088F496FE06C03AE048
:101D2000139F200D1124122F19C08AE0589E200DF8
:101D30001124522EE92DE0629E2E10C08E3231F415
:101D400096FCE5C2F92DF0649F2E08C08C3621F474
:101D5000292D2068922E02C0883641F4F10193FDAE
:101D6000859193FF81911F018111B3CF9BEB980F58
:101D7000933020F4992D9061805E07C09BE9980F05
:101D8000933008F066C1992D9F7E96FF16E09F73F1
:101D9000992E853619F49064992E08C0863621F460
:101DA000392F3068932E02C01111115097FE07C0D1
:101DB0001C3350F444244394410E27E00BC01830E8
:101DC00038F027E017E005C027E09CE3492E02C069
:101DD000212F412C560184E0A80EB11CF601608130
:101DE000718182819381042DA3010E94D6116C011F
:101DF000F981FC87F0FF02C0F3FF06C091FC06C02A
:101E000092FE06C000E205C00DE203C00BE201C075
:101E100000E08C858C7019F001115AC29BC297FEAC
:101E200010C04C0CFC85F4FF04C08A81813309F496
:101E30004A94141474F528E0241578F588E0482EA7
:101E40002CC096FC2AC0812F90E08C159D059CF03B
:101E50003CEFC3163FEFD30674F0892D8068982EAF
:101E60000AC0E2E0F0E0EC0FFD1FE10FF11D808100
:101E7000803319F411501111F4CF97FE0EC0442491
:101E80004394410E812F90E0C816D9062CF41C19FA
:101E900004C04424439401C010E097FE06C01C1403
:101EA0001D0434F4C601019605C085E090E002C02F
:101EB00081E090E001110196112331F0212F30E0F3
:101EC0002F5F3F4F820F931F252D30E0821793071E
:101ED00014F4581A01C0512C892D897049F45520E9
:101EE00039F0B70180E290E00E94C4125A94F7CF13
:101EF000002329F0B701802F90E00E94C41293FCC8
:101F000009C0552039F0B70180E390E00E94C41267
:101F10005A94F7CF97FE4CC04601D7FE02C0812CE1
:101F2000912CC60188199909F301E80FF91FED8773
:101F3000FE879601241931092F87388B012F10E075
:101F40001195019511093FEF8316930629F4B70106
:101F50008EE290E00E94C412C814D9044CF08F8520
:101F600098898815990524F4ED85FE85818101C045
:101F700080E3F1E08F1A91082D853E852F5F3F4F5A
:101F80002D873E87801691062CF0B70190E00E94C5
:101F9000C412D9CFC814D90441F49A81963320F4DD
:101FA000953319F43C8534FF81E3B70190E04EC0CE
:101FB0008A81813319F09C859F7E9C87B70190E0D0
:101FC0000E94C412111105C094FC18C085E690E06F
:101FD00017C0B7018EE290E00E94C4121E5F82E03B
:101FE00001E0080FF301E80FF11D8081B70190E0D7
:101FF0000E94C412802F0113F3CFE6CF85E490E056
:10200000B7010E94C412D7FC06C0C114D10441F428
:10201000EC85E4FF05C0D194C194D1088DE201C0E4
:102020008BE2B70190E00E94C41280E32AE0C2165E
:10203000D1042CF08F5FFAE0CF1AD108F7CFB701A7
:1020400090E00E94C412B701C601C0960E94C4125B
:1020500054C1833631F0833779F0833509F056C0A7
:1020600020C0560132E0A30EB11CF60180818983A5
:1020700001E010E0630112C05601F2E0AF0EB11CA6
:10208000F601C080D18096FE03C0612F70E002C0CF
:102090006FEF7FEFC6010E94B9128C01F92DFF7717
:1020A00014C0560122E0A20EB11CF601C080D180FE
:1020B00096FE03C0612F70E002C06FEF7FEFC60194
:1020C0000E94AE128C01F92DF0689F2EF3FD1AC00C
:1020D000852D90E008171907A8F4B70180E290E079
:1020E0000E94C4125A94F4CFF60197FC859197FE92
:1020F00081916F01B70190E00E94C41251105A946F
:10210000015011090115110579F7F7C0843611F056
:10211000893661F5560197FE09C024E0A20EB11C74
:10212000F60160817181828193810AC0F2E0AF0E75
:10213000B11CF60160817181072E000C880B990B90
:10214000F92DFF769F2E97FF09C090958095709589
:1021500061957F4F8F4F9F4FF0689F2E2AE030E0B0
:10216000A3010E944413C82EC6183FC0092D85370D
:1021700021F40F7E2AE030E01DC0097F8F3691F0F8
:1021800018F4883559F0C3C0803719F0883711F03A
:10219000BEC0006104FF09C0046007C094FE08C00F
:1021A000066006C028E030E005C020E130E002C053
:1021B00020E132E0560107FF09C084E0A80EB11CFF
:1021C000F601608171818281938108C0F2E0AF0ED7
:1021D000B11CF6016081718180E090E0A3010E9452
:1021E0004413C82EC6180F77902E96FE0BC0092DEB
:1021F0000E7FC11650F494FE0AC092FC08C0092D4F
:102200000E7E05C0DC2C092D03C0DC2C01C0D12EB4
:1022100004FF0DC0FE01EC0DF11D8081803311F42F
:10222000097E09C002FF06C0D394D39404C0802F56
:10223000867809F0D39403FD11C000FF06C01C2D61
:10224000D51480F4150D1D190DC0D51458F4B7011F
:1022500080E290E00E94C412D394F7CFD51410F41A
:102260005D1801C0512C04FF10C0B70180E390E05D
:102270000E94C41202FF17C001FD03C088E790E06E
:1022800002C088E590E0B7010CC0802F867859F035
:1022900001FF02C08BE201C080E207FD8DE2B701C1
:1022A00090E00E94C412C11638F4B70180E390E0B8
:1022B0000E94C4121150F7CFCA94F301EC0DF11D26
:1022C0008081B70190E00E94C412C110F5CF15C003
:1022D000F4E0F51560F584E0581A93FE1FC0011173
:1022E00027C02C8523FF2AC006E812E0392D307163
:1022F000932EF8018491811124C0552009F4E4CC77
:10230000B70180E290E00E94C4125A94F6CFF70120
:102310008681978126C08FEF9FEF23C0B70180E2AF
:1023200090E00E94C4125A945110F8CFD8CF512C8B
:10233000B701802F90E00E94C412D3CF0AE812E0C8
:10234000D5CF91108052B70190E00E94C4120F5F68
:102350001F4FCFCF23E0251510F483E0BDCF512CC4
:10236000C0CF6096CDBFDEBFDF91CF911F910F919F
:10237000FF90EF90DF90CF90BF90AF909F908F90A5
:102380007F906F905F904F903F902F900895A29F05
:10239000B001B39FC001A39F700D811D1124911D39
:1023A000B29F700D811D1124911D0895283008F0F1
:1023B00027E03327DA01990F311D87FD91600096E0
:1023C0006105710539F432602E5F3D9330E32A9543
:1023D000E1F708959F3F30F080387105610509F0FD
:1023E0003C5F3C5F3D93913008F08068911DDF9326
:1023F000CF931F930F93FF92EF92192F987F96958B
:10240000E92F96959695E90FFF27E851FD4F9927FB
:102410003327EE24FF24A701E701059008940794D1
:1024200028F4360FE71EF81E491F511D660F771F4F
:10243000881F991F0694A1F70590079428F4E70ECA
:10244000F81E491F561FC11D770F881F991F661F51
:102450000694A1F70590079428F4F80E491F561F1B
:10246000C71FD11D880F991F661F771F0694A1F7FC
:102470000590079420F4490F561FC71FD81F990FC6
:10248000661F771F881F0694A9F78491109517700F
:1024900041F0D695C79557954795F794E7941A95C7
:1024A000C1F7EEE8F2E068941590159135916591C9
:1024B000959105907FE27395E118F10A430B560B55
:1024C000C90BD009C0F7E10CF11E431F561FC91FED
:1024D000D01D7EF4703311F48A95E6CFE894015054
:1024E00030F0080F0AF40027021708F4202F239574
:1024F000022F7A3328F079E37D932A95E9F710C00B
:102500007D932A9589F60694979567953795179543
:102510001794E118F10A430B560BC90BD00998F038
:1025200023957E9173957A3308F070E37C932013A2
:10253000B8F77E9170617D9330F0839571E37D9360
:1025400070E32A95E1F71124EF90FF900F911F910E
:10255000CF91DF91992787FD90950895FC01059013
:10256000615070400110D8F7809590958E0F9F1F95
:102570000895FC016150704001900110D8F78095DA
:1025800090958E0F9F1F08950F931F93CF93DF9306
:10259000FB01238121FD03C08FEF9FEF2CC022FFA1
:1025A00016C046815781248135814217530744F470
:1025B000A081B1819D012F5F3F4F208331838C9398
:1025C000268137812F5F3F4F2683378314C08B01CD
:1025D000EC01FB010084F185E02D1995892BE1F6D2
:1025E000D80116968D919C911797019616968D930A
:1025F0009C931797CE01DF91CF911F910F91089572
:10260000CF93DF93CDB7DEB7AE014A5F5F4FFA01DC
:1026100061917191AF018091A8249091A9240E94A9
:10262000270EDF91CF9108950F931F93CF93DF93E0
:10263000E091A824F091A924238121FF1BC08C01E3
:10264000D0E0C0E0F80181918F016091A8247091E1
:10265000A924DB011896ED91FC911997882331F09C
:102660001995892B79F3DFEFCFEFECCF8AE019953D
:10267000892B19F08FEF9FEF02C08D2F9C2FDF91D8
:10268000CF911F910F910895FA01AA27283051F197
:10269000203181F1E8946F936E7F6E5F7F4F8F4F93
:1026A0009F4FAF4FB1E03ED0B4E03CD0670F781FF2
:1026B000891F9A1FA11D680F791F8A1F911DA11DD7
:1026C0006A0F711D811D911DA11D20D009F4689410
:1026D0003F912AE0269F11243019305D3193DEF6B8
:1026E000CF010895462F4770405D4193B3E00FD06E
:1026F000C9F7F6CF462F4F70405D4A3318F0495D59
:1027000031FD4052419302D0A9F7EACFB4E0A6953B
:102710009795879577956795BA95C9F7009761055D
:10272000710508959B01AC010A2E069457954795B3
:1027300037952795BA95C9F7620F731F841F951FA8
:08274000A01D0895F894FFCFDD
:1027480004000900080008000C000E000000000347
:1027580000000000EC07AC0700005F494E54203D24
:102768003D204C4F570053504920494E542074691E
:102778006D656F757400424E4F3038302069732094
:102788006177616B652100486F73742073656E64AF
:10279800207061636B657420746F20424E4F30382F
:1027A800300073687470646174615B25645D3A20FD
:1027B8002564200A002D2D2D2D2D4C656E6768741B
:1027C800203D2025640A0053656E6420636F6D6D9B
:1027D800616E64005365742075702063616C696272
:1027E800726174696F6E20636F6D6D616E640073E2
:1027F800657446656174757265436F6D6D616E646D
:102808002120006E6F7468696E6720746F2072658E
:1028180063656976652E2E2E007265616479207471
:102828006F207265636569766521002D20317374A8
:102838002077616974002D20326E64207761697495
:10284800002D203372642077616974002D66204260
:102858004E4F30383073656E645061636B65740039
:102868002D206177616974207061636B6574006302
:102878006F727265637420494420726573706F6E5D
:1028880073652100494420726573706F6E7365200B
:102898006661696C65642E2E2E0050617273652026
:1028A800696E707574207265706F7274200052457D
:1028B800504F52545F49445F494E444558203D208B
:1028C80025640A00414343454C45524F4D45544504
:1028D80052004C494E4541525F414343454C455295
:1028E8004154494F4E004759524F53434F504500AA
:1028F8004D41474E455449435F4649454C44005273
:102908004F544154494F4E20564543544F5200535B
:10291800657420526F746174696F6E566563746F65
:102928007221200053657420416363656C65726F82
:102938006D65746572212000536574204C696E655D
:10294800617220416363656C65726F6D6574657251
:10295800212000536574204779726F212000536548
:1029680074204D61676E65746F6D657465722120A2
:1029780000506172736520636F6D6D616E642072C3
:1029880065706F72742000526563656976656420AE
:102998007061636B657421004461746120617661C4
:1029A800696C61626C65210043616C696272617473
:1029B800696F6E204D6F646521004F706572617498
:1029C800696F6E204D6F64652100583A2025302EBE
:1029D8003266207C20593A2025302E3266207C2011
:1029E8005A3A2025302E3266207C202564200A00A1
:1029F800783A2025302E32662C20793A2025302E40
:102A080032662C207A3A2025302E32662C206163DB
:102A1800637572617469653A202564200A00783A02
:102A28002025302E32662C20793A2025302E326629
:102A38002C207A3A2025302E32662C20773A202511
:102A4800302E3266206163637572617469653A205D
:082A580025302E3266200A0031
:00000001FF
