S01400006265756E426F6172645350492E7372656392
S11300000C94C4010C94E5010C94E5010C94E501F5
S11300100C94E5010C94E5010C94E5010C94E501C4
S11300200C94E5010C94E5010C94E5010C94E501B4
S11300300C94E5010C94E5010C94E5010C94E501A4
S11300400C94E5010C94E5010C94E5010C94E50194
S11300500C94E5010C94E5010C94E5010C94E50184
S11300600C94E5010C94E5010C94E5010C94E50174
S11300700C94E5010C94E5010C94E5010C94E50164
S11300800C94E5010C94E5010C94E5010C94E50154
S11300900C94E5010C94E5010C94E5010C94E50144
S11300A00C94E5010C94E5010C94E5010C94E50134
S11300B00C94E5010C94E5010C94E5010C94E50124
S11300C00C94E5010C94E5010C94E5010C94E50114
S11300D00C94E5010C94E5010C94E5010C94E50104
S11300E00C94E5010C94E5010C94E5010C94E501F4
S11300F00C94E5010C94E5010C94E5010C94E501E4
S11301000C94E5010C94E5010C94E5010C94E501D3
S11301100C94E5010C94E5010C94E5010C94E501C3
S11301200C94E5010C94E5010C94E5010C94E501B3
S11301300C94E5010C94E5010C94E5010C94E501A3
S11301400C94E5010C94E5010C94E5010C94E50193
S11301500C94E5010C94E5010C94E5010C94E50183
S11301600C94E5010C94E5010C94E5010C94E50173
S11301700C94E5010C94E5010C94E5010C94E50163
S11301800C94E5010C94E5010C94E5010C94E50153
S11301900C94E5010C94E5010C94E5010C94E50143
S11301A00C94E5010C94E5010C94E5010C94E50133
S11301B00C94E5010C94E5010C94E5010C94E50123
S11301C00C94E5010C94E5010C94E5010C94E50113
S11301D00C94E5010C94E5010C94E5010C94DB0B03
S11301E00C94030C0C94E5010C94E5010C94E501CA
S11301F00C94E5010C94E5010C94E5010763423687
S1130200B79BD8A71A39685618AEBAAB558C1D3CA3
S1130210B7CC5763BD6DEDFD753EF6177231BF0067
S11302200000803F08000000BE922449123EABAAA1
S1130230AA2ABECDCCCC4C3E00000080BEABAAAAFC
S1130240AA3E00000000BF000000803F0000000044
S113025000084178D3BB4387D1133D190E3CC3BD7D
S11302604282AD2B3E68EC8276BED98FE1A93E4C2A
S113027080EFFFBE01C4FF7F3F00000000000C942C
S1130280790A0C94B90A6E616E00696E66000040CA
S11302907A10F35A00A0724E18090010A5D4E80091
S11302A000E87648170000E40B54020000CA9A3BA9
S11302B0000000E1F505000080969800000040422F
S11302C00F000000A08601000000102700000000BD
S11302D0E803000000006400000000000A000000C1
S11302E000000100000000002C76D888DC674F086D
S11302F023DFC1DFAE59E1B1B796E5E3E453C63A73
S1130300E651997696E8E6C28426EB898C9B62EDE9
S1130310407C6FFCEFBC9C9F40F2BAA56FA5F490A3
S1130320055A2AF75C936B6CF9676DC11BFCE0E41A
S11303300D47FEF520E6B500D0ED902E0300943570
S113034077050080841E080000204E0A000000C8C3
S11303500C333333330F986E12831141EF8D211414
S1130360893BE65516CFFEE6DB18D1844B381BF7E4
S11303707C1D901DA4BBE424203284725E22810083
S1130380C9F124ECA1E53D2711241FBECFEFCDBF59
S1130390DFE5DEBF00E00CBF13E2A0E0B0E2EAE07C
S11303A0FDE200E00BBF02C007900D92AE34B1072E
S11303B0D9F724E2AEE4B3E201C01D92A23EB20733
S11303C0E1F70E944B0C0C9483160C940000E0E0BF
S11303D0F6E081E0828398E1908B22E0218320E49F
S11303E02183968BE0E6F6E0828380E1808B08959A
S11303F0CF938091080680FD17C003C0808580FDDF
S113040006C08EE390E20E94F515C1E017C083EFA9
S113041091E00197F1F700C00000C15079F78AE438
S113042090E20E94F5150AC083EF91E00197F1F77D
S113043000C00000CCE7E0E0F6E0E0CF8C2FCF91E5
S113044008959F92AF92BF92CF92DF92EF92FF9264
S11304500F931F93CF93DF93C82FD62F80E48093FD
S113046006060E94F801882309F463C0689499245D
S113047092F89D0E8AE590E20E94F51580E1809342
S1130480660680E4809305068BE690E20E94F515EB
S1130490892D0E94410C80E00E94410C8C2F0E9407
S11304A0410CEC2FF0E0ED5AFC4D808191E0980F67
S11304B090830E94410CDD2359F10F2EFFE4AF2EEF
S11304C0F4E2BF2EF02DD1506D2F70E0CB01805B94
S11304D09B4D6C01E50106E810E27E0188811F92C4
S11304E08F93CE018A199B099F938F931F930F9328
S11304F00E94E1152196F70180810E94410C0F9022
S11305000F900F900F900F900F90CC15DD0529F7E9
S113051080E1809365061F929F9289E990E29F9300
S11305208F930E94E1150F900F900F900F9081E030
S113053004C080E48093050680E0DF91CF911F9191
S11305400F91FF90EF90DF90CF90BF90AF909F906E
S11305500895CF93C82F8BEA90E20E94F515EFE43B
S1130560F4E282EF80838091522391E0980F90937C
S113057052238183C2836CE082E00E942102CF91E6
S11305800895CF93C82F88EB90E20E94F515E2E519
S1130590F4E28BE594E21192E817F907E1F7C1114F
S11305A004C081E0809352241AC0C13021F481E058
S11305B08093532414C0C23021F481E080935424E6
S11305C00EC0C33021F481E08093562408C0C430A7
S11305D031F4EFE4F4E281E083838483858381E072
S11305E08093D12487E00E94A902CF910895CF92ED
S11305F0DF92FF920F931F93CF93DF93F82E6B013B
S1130600022F132FD42FC52F83ED90E20E94F515EE
S11306109601A8EEB3E00E94A814EFE4F4E22DEFF3
S11306202083F18212821382148265837683878306
S11306309087118612861386148605871687D787B6
S1130640C08B61E182E00E942102DF91CF911F9172
S11306500F91FF90DF90CF900895EF92FF920F9348
S11306601F93CF93DF930E94F801811106C087EE98
S113067090E20E94F51580E045C08DEF90E20E9463
S1130680F51580E18093660680E00E94410C082FF6
S113069080E00E94410CC82F80E00E94410CD82FBA
S11306A080E00E94410CE8E2F4E20083C183D2833B
S11306B0838310E01C2B1F770115110529F480E1B9
S11306C08093650680E01EC004501109B9F00F2E16
S11306D0FFE4EF2EF4E2FF2EF02DC0E0D0E080E046
S11306E00E94410CC038D10510F4F7018083219693
S11306F0FFEFEF1AFF0AC017D10788F380E1809358
S1130700650681E0DF91CF911F910F91FF90EF90EB
S113071008950E94E7010E94340C80E180936506ED
S1130720E0E0F6E080E4858382E08683A7EEB3E030
S11307301197F1F700C0000085838FE091E20E94D9
S1130740F5150E94F8018AE191E20E94F5150E94D4
S1130750F8010E942D0385E291E20E94F5150E94A2
S1130760F8010E942D03EFE4F4E289EF8083118203
S113077080E391E20E94F51562E082E00E9421028A
S113078084E491E20E94F5150E94F8010E942D0371
S11307908823A1F080914F24883F51F483E591E2AE
S11307A09F938F930E94E1150F900F9081E008951D
S11307B088E691E20E94F51580E0089580E00895AE
S11307C07F928F929F92AF92BF92CF92DF92EF92DD
S11307D0FF920F931F93CF93DF938EE791E20E94D2
S11307E0F515E8E2F4E2818190E0982F88272081D2
S11307F0822BEFE4F4E22481438150E060E070E076
S1130800BA0155274427722B2181422B2281522B76
S113081040933024509331246093322470933324D2
S113082027812370722EE284F12CFE2CEE24218584
S1130830E22A048510E0102F00272385022BC685A9
S1130840D0E0DC2FCC2725854E01822A9F7709979B
S11308508A3091053CF0A088B12CBA2CAA242785B3
S1130860A22A02C0A12CB12C0C974CF0EFE4F4E2C4
S1130870C288D12CDC2CCC248189C82A02C0C12C8A
S1130880D12CCFE4D4E28D811F928F9382E991E23F
S11308909F938F930E94E1158D810F900F900F907D
S11308A00F908130D1F488EA91E20E94F515872DEA
S11308B090E08093D6249093D724E092CF24F092B2
S11308C0D0240093DA241093DB2480924324909262
S11308D0442481E08093592377C08430D1F486EB9B
S11308E091E20E94F515872D90E080933F24909328
S11308F04024E0923724F09238240093D2241093B9
S1130900D3248092492490924A2484E080935923EA
S11309105BC08230D1F48AEC91E20E94F515872DF8
S113092090E080934B2490934C24E0924D24F092D9
S11309304E2400933B2410933C24809239249092BB
S11309403A2482E0809359233FC08330D1F484ED6C
S113095091E20E94F515872D90E080932C249093CA
S11309602D24E0923D24F0923E240093D42410934D
S1130970D524809241249092422483E08093592389
S113098023C0853009F583EE91E20E94F515872D89
S113099090E08093352490933624E092D824F0920A
S11309A0D9240093472410934824809226249092BB
S11309B02724A0922E24B0922F24C0924524D092B2
S11309C0462485E080935923DF91CF911F910F91A5
S11309D0FF90EF90DF90CF90BF90AF909F908F905B
S11309E07F900895CF93DF93EC0183EF91E20E940F
S11309F0F51520E030E0A901BE0185E00E94F70270
S1130A00DF91CF910895CF93DF93EC0188E092E2D8
S1130A100E94F51520E030E0A901BE0181E00E94AA
S1130A20F702DF91CF910895CF93DF93EC018CE12E
S1130A3092E20E94F51520E030E0A901BE0184E0B5
S1130A400E94F702DF91CF910895CF93DF93EC01D9
S1130A5087E392E20E94F51520E030E0A901BE018F
S1130A6082E00E94F702DF91CF910895CF93DF9344
S1130A70EC0182E492E20E94F51520E030E0A90145
S1130A80BE0183E00E94F702DF91CF91089585E5CE
S1130A9092E20E94F51580914F24813F41F48091A8
S1130AA05124873021F4809154248093D1240895D3
S1130AB0CF938091080680FD1DC00E942D03C82F8E
S1130AC08823E9F08BE692E20E94F51580912A24AE
S1130AD0833059F480914F248B3F71F40E94E003DA
S1130AE08CE792E20E94F5150AC0823039F40E9424
S1130AF0470505C0C0E003C0C0E001C0C0E08C2FC2
S1130B00CF910895CF92DF92EF92FF92CF93C62FA9
S1130B10BC01990F880B990B0E944B0E6B017C0151
S1130B206C2F70E0719561957109072E000C880B8C
S1130B30990B0E944B0E9B01AC0160E070E080E0D9
S1130B4090E40E94440F9B01AC01C701B6010E94CE
S1130B50D70ECF91FF90EF90DF90CF9008956091E2
S1130B6006208091CF249091D0240E94820508957C
S1130B70609106208091DA249091DB240E94820502
S1130B8008956091062080914324909144240E940A
S1130B90820508956091042080913724909138242F
S1130BA00E9482050895609104208091D22490913E
S1130BB0D3240E94820508956091042080914924E1
S1130BC090914A240E948205089580913F240895BB
S1130BD06091022080914D2490914E240E948205C0
S1130BE008956091022080913B2490913C240E94BE
S1130BF082050895609102208091392490913A24CD
S1130C000E94820508956091002080913D24909176
S1130C103E240E9482050895609100208091D4248E
S1130C209091D5240E9482050895609100208091BE
S1130C304124909142240E948205089560910A20E3
S1130C408091D8249091D9240E94820508956091BE
S1130C500A2080914724909148240E948205089597
S1130C6060910A2080912624909127240E94820575
S1130C70089560910A2080912E2490912F240E943F
S1130C80820508956091082080914524909146241E
S1130C900E94820508958091680680FF0CC081E05F
S1130CA0809334248CE892E29F938F930E94E11501
S1130CB00F900F900895109234248EE992E29F933E
S1130CC08F930E94E1150F900F9008950E9489035D
S1130CD0882319F00E944B0681E00895CF92DF9299
S1130CE0EF92FF920F931F93CF93DF938091592339
S1130CF0813009F043C0809150238F5F809350234B
S1130D000E94AF05C62FD72F182F092F0E94B805B0
S1130D10F62EE72ED82EC92E0E94C1052091D72485
S1130D202F932091D6242F939F938F937F936F9328
S1130D30CF92DF92EF92FF920F931F93DF93CF93A3
S1130D408EEA92E29F938F930E94E1158091680648
S1130D502DB73EB7205F3F4F2DBF3EBF80FF0EC073
S1130D608091D6249091D7240297029738F48091E9
S1130D7050238D3318F081E080935123DF91CF917C
S1130D801F910F91FF90EF90DF90CF900895CF9235
S1130D90DF92EF92FF920F931F93CF93DF93809193
S1130DA05923823009F043C080914F238F5F809391
S1130DB04F230E94E805C62FD72F182F092F0E9412
S1130DC0F105F62EE72ED82EC92E0E94FA052091A1
S1130DD04C242F9320914B242F939F938F937F9395
S1130DE06F93CF92DF92EF92FF920F931F93DF9353
S1130DF0CF938EEA92E29F938F930E94E1158091A4
S1130E0068062DB73EB7205F3F4F2DBF3EBF80FF22
S1130E100EC080914B2490914C240297029738F491
S1130E2080914F238F3118F082E080935123DF911A
S1130E30CF911F910F91FF90EF90DF90CF90089585
S1130E40CF92DF92EF92FF920F931F93CF93DF9392
S1130E5080915923833009F043C080914E238F5FE2
S1130E6080934E230E940306C62FD72F182F092FD5
S1130E700E940C06F62EE72ED82EC92E0E941506C7
S1130E8020912D242F9320912C242F939F938F9383
S1130E907F936F93CF92DF92EF92FF920F931F9302
S1130EA0DF93CF938EEA92E29F938F930E94E11592
S1130EB0809168062DB73EB7205F3F4F2DBF3EBFE0
S1130EC080FF0EC080912C2490912D2402970297CC
S1130ED038F480914E238D3318F083E080935123AE
S1130EE0DF91CF911F910F91FF90EF90DF90CF9002
S1130EF0089580915123811102C00E946E06809151
S1130F005123813011F40E94C7068091512382300D
S1130F1011F40E94200708954F925F926F927F927E
S1130F208F929F92AF92BF92CF92DF92EF92FF92F5
S1130F300F931F93CF93DF93CDB7DEB76097CDBFE9
S1130F40DEBF982E892E5B01E12CF12C65C0E416DE
S1130F50F506D1F008171907B9F0F901EE0FFF1FD4
S1130F60EE0FFF1F66246394712C6C0E7D1EE60D3C
S1130F70F71D4D905D906D907C9013974082518247
S1130F80628273822F5F3F4F0196149683309105DE
S1130F90F1F64F5F5F4F645F7F4F4330510521F09F
S1130FA0DB0180E090E0D3CF2D853E854F855889C5
S1130FB069817A818B819C810E94D70E2B013C012F
S1130FC029853A854B855C856D817E818F819885E5
S1130FD00E94D70E9B01AC01C301B2010E943B0DDC
S1130FE0F60161937193819391936F010F5F1F4F8A
S1130FF00330110539F0692D782D40E050E020E0F0
S113100030E0CECFFFEFEF1AFF0A8CE0A80EB11C40
S1131010E3E0EE16F10421F0650100E010E0EBCF0F
S11310206096CDBFDEBFDF91CF911F910F91FF90EE
S1131030EF90DF90CF90BF90AF909F908F907F9074
S11310406F905F904F900895CF92DF92EF92FF924E
S11310500F931F93CF93DF93EC016C0184E2C80ECE
S1131060D11C01E010E01DC0B801012E000C880B5A
S1131070990B0E944B0E9B01AC01688179818A8196
S11310809B810E94D70E69937993899399931195C3
S113109001951109CE15DF0539F7E701CE14DF04F8
S11310A029F07E018CE0E80EF11CDECFDF91CF91B8
S11310B01F910F91FF90EF90DF90CF9008954F9282
S11310C05F926F927F928F929F92AF92BF92CF92D4
S11310D0DF92EF92FF92CF93DF93CDB7DEB76297A3
S11310E0CDBFDEBF898B9A8BDC0150968D909D908D
S11310F0AD90BC90539790964D905D906D907C9080
S113110093975C968D919D910D90BC91A02D8D83AC
S11311109E83AF83B887A989BA8954968D919D918E
S11311200D90BC91A02D89879A87AB87BC87E989EC
S1131130FA89C484D584E684F784808D918DA28D48
S1131140B38D8D879E87AF87B88BA3019201C501AC
S1131150B4010E94D70E69837A838B839C8329858B
S11311603A854B855C856D817E818F8198850E944F
S1131170D70E9B01AC0169817A818B819C810E948D
S11311803B0DE989FA8920813181428153810E9492
S1131190D70E69837A838B839C83A7019601C3014D
S11311A0B2010E94D70E2B013C012D853E854F854F
S11311B0588969857A858B859C850E94D70E9B0109
S11311C0AC01C301B2010E943B0DA989BA891496EE
S11311D02D913D914D915C9117970E94D70E9B01E3
S11311E0AC0169817A818B819C810E943B0D2B012A
S11311F03C01A70196016D817E818F8198850E94B3
S1131200D70E6B017C012D853E854F855889C5011C
S1131210B4010E94D70E9B01AC01C701B6010E9424
S11312203B0DE989FA8920853185428553850E94E1
S1131230D70E9B01AC01C301B2010E943C0D629622
S1131240CDBFDEBFDF91CF91FF90EF90DF90CF90C5
S1131250BF90AF909F908F907F906F905F904F90D2
S113126008956F927F928F929F92AF92BF92CF9286
S1131270DF92EF92FF920F931F93CF93DF93CDB73B
S1131280DEB7A497CDBFDEBFFC018E010F5F1F4FF9
S11312906E0125E2C20ED11CB8017C011DC0D30130
S11312A08D909D90AD90BC90DA018D929D92AD92FF
S11312B0BD92AD0121503109BCE06B0E711C2115AA
S11312C0310569F724E0E20EF11C645F7F4F6C1571
S11312D07D0511F4849616C0AB01370123E030E09C
S11312E0DECF4D915D916D917D91419351936193C9
S11312F07193E217F307A9F7045F1F4FF9018217EF
S1131300930729F09F01245F3F4FD801EACFA496A9
S1131310CDBFDEBFDF91CF911F910F91FF90EF9072
S1131320DF90CF90BF90AF909F908F907F906F9001
S113133008954F925F926F927F92AF92BF92CF9235
S1131340DF92EF92FF920F931F93CF93DF935C0191
S1131350062F172F60E070E080E89FE30E94A80D3D
S11313602B013C01E501C02ED12E84E2A80EB11C54
S113137018C02991399149915991C301B2010E9430
S1131380D70EF80161937193819391938F01CE15D8
S1131390DF0579F7FCE0CF0ED11CE701AE14BF04E2
S11313A031F07E018CE0E80EF11C8601E2CFDF9182
S11313B0CF911F910F91FF90EF90DF90CF90BF904E
S11313C0AF907F906F905F904F9008958F929F920F
S11313D0AF92BF92CF92DF92EF92FF920F931F933F
S11313E0CF93DF93CDB7DEB7A497CDBFDEBF7C012B
S11313F0062F172FBE016F5F7F4F0E948C07CE010F
S113140001960E942408C7010E945F086B017C01B9
S1131410CE0101960E943109A7019601602F712F18
S1131420CE0101960E949909802E912EC12CD12CB7
S11314300F2EF4EDAF2EF2E2BF2EF02D26C0F801F0
S113144080819181228133810C5F1F4F3F932F93C1
S11314509F938F93FF92EF92DF92CF92BF92AF92BE
S11314600E94E115FFEFEF1AFF0ACDBFDEBF93E044
S1131470E916F10421F7EFEFCE1ADE0AFCE08F0E35
S1131480911C83E0C816D10421F08401E12CF12CD5
S1131490D6CFA496CDBFDEBFDF91CF911F910F9120
S11314A0FF90EF90DF90CF90BF90AF909F908F9080
S11314B008958091BF239091BE23891710F0891B52
S11314C008958C59891B0895CF93C091BE230E941F
S11314D0590A8823E1F3EC2FF0E0E65AFC4D8081B1
S11314E091E09C0F943608F090E09093BE23CF9146
S11314F008950E94640A90E008952091252491E0C3
S1131500920F80912424943610F09DE9920F89174C
S113151010F0891B08958C59891B08950F931F930C
S1131520CF93DF93D82F00EA1BE0C1E202C0F80199
S1131530C3830E947D0A8823D1F380912524E82F58
S1131540F0E0E054FC4DD0838F5F843608F080E0F7
S1131550E0EAF0E09281292F2E7F228380932524D4
S113156081E28093A30B9283DF91CF911F910F911E
S11315700895CF93DF93D82FCFEF03C0CC2391F0FE
S1131580C1500E947D0A8823C9F3CC2371F0DA305C
S113159019F48DE00E948E0A8D2F0E948E0A80E03D
S11315A090E005C081E090E002C081E090E0DF912E
S11315B0CF9108954F925F926F927F928F929F92F4
S11315C0AF92BF92EF92FF920F931F93CF934B0171
S11315D05C0107E010E0C9EFEE24E394F12CCC2386
S11315E054F5C501B4010E94490E20E030E041EEFB
S11315F059E40E94A80D20E030E040E85FE30E9437
S11316003B0D2B013C01B701002E02C0660F771F72
S11316100A94E2F7072E000C880B990B0E944B0EDC
S11316209B01AC01C301B2010E94D70E0E94940F2A
S11316300E941A0E2CC0C501B4010E94490E20E07C
S113164030E041EE59E40E94A80D2B013C018827AB
S11316509927801B910BB70102C0660F771F8A95EB
S1131660E2F7072E000C880B990B0E944B0E9B018E
S1131670AC01C301B2010E94A80D20E030E040E8B3
S11316805FE30E943B0D0E94940F0E941A0E6115A5
S1131690704138F0CF5F01501109C83009F09FCF75
S11316A031C0CC237CF5C501B4010E94490E20E071
S11316B030E041EE59E40E94A80D20E030E040E81B
S11316C05FE30E943B0D4B015C012C2F33272195D6
S11316D00CF4309561E070E002C0660F771F2A9524
S11316E0E2F7072E000C880B990B0E944B0E9B010E
S11316F0AC01C501B4010E94D70E0E94940F0E9450
S11317001A0E2AC0C501B4010E94490E20E030E03F
S113171041EE59E40E94A80D4B015C0161E070E0C8
S11317200C2E02C0660F771F0A94E2F7072E000CF6
S1131730880B990B0E944B0E9B01AC01C501B401AF
S11317400E94A80D20E030E040E85FE30E943B0DDA
S11317500E94940F0E941A0EE0EAF6E088E1828B60
S113176098E09583918394E09283E0EAFBE06683BA
S11317707F70C295C07FC72BC783848380E2838335
S1131780E0EAF0E0828183608283ECEDF4E28CE0B5
S113179090E28083918382839383CF911F910F91F1
S11317A0FF90EF90BF90AF909F908F907F906F903D
S11317B05F904F9008951F920F920FB60F921124CD
S11317C00BB60F928F939F93EF93FF938091BF2358
S11317D0E82FF0E09091A00BE65AFC4D90838F5FC8
S11317E0843608F080E09091BE2389138093BF2350
S11317F0FF91EF919F918F910F900BBE0F900FBEB1
S11318000F901F9018951F920F920FB60F921124EC
S11318100BB60F922F938F939F93EF93FF93809127
S1131820242490912524891769F0E82FF0E0E054EE
S1131830FC4D20812093A00B8F5F843608F080E05C
S1131840891304C080E28093A30B892F80932424FE
S1131850FF91EF919F918F912F910F900BBE0F905D
S11318600FBE0F901F901895E0E6F6E080EB8183A1
S113187080E4828380E1868B85838CE58093C00934
S113188008958093C309E0ECF9E082818823ECF7A2
S11318908091C30908952F923F924F925F926F9265
S11318A07F928F929F92AF92BF92CF92DF92EF92EC
S11318B0FF920F931F93CF93DF93CDB7DEB7C85436
S11318C0D109CDBFDEBFE0E6F6E084E08183858305
S11318D060E874E88EE190E00E94DA0A789484E289
S11318E0EAE1F0E2DE01119601900D928A95E1F7AA
S11318F0BE016B5D7F4FCE0101960E94E6090E94F6
S11319006606882309F49EC080913424813081F4D2
S113191084E00E94C10284E690E00E94030584E60C
S113192090E00E94250584E690E00E9436057BC085
S1131930811184C088EE93E00E94140588EE93E040
S11319400E94F20470C00E945805882371F18091AE
S11319505923843051F50E94CA05162F072FF82EFB
S1131960E92E0E94D305D62EC72EB82EA92E0E948A
S1131970DC05962E872E782E692E0E94E5051F928F
S11319808F936F927F928F929F92AF92BF92CF92DA
S1131990DF92EF92FF920F931F9386EE92E29F9352
S11319A08F930E94E115CDBFDEBF0E9458058823A6
S11319B0D1F1809159238530B1F50E941E06162F6E
S11319C0072FF82EE92E0E942706D62EC72EB82EF2
S11319D0A92E0E943006962E872E782E692E0E94FC
S11319E03906562E472E382E292E0E9442069F93E2
S11319F08F937F936F932F923F924F925F926F9248
S1131A007F928F929F92AF92BF92CF92DF92EF928A
S1131A10FF920F931F9384E193E29F938F930E940D
S1131A20E115CDBFDEBF80913424882309F48BCF28
S1131A3005C00E94580581110E94790780913424C1
S1131A408130B9F380E090E0C85BDF4FCDBFDEBFEB
S1131A50DF91CF911F910F91FF90EF90DF90CF9086
S1131A60BF90AF909F908F907F906F905F904F90BA
S1131A703F902F9008955058BB27AA270E94530DDA
S1131A800C949D0E0E948F0E38F00E94960E20F04A
S1131A9039F49F3F19F426F40C948C0E0EF4E0955F
S1131AA0E7FB0C94860EE92F0E94AE0E58F3BA178A
S1131AB0620773078407950720F079F4A6F50C9460
S1131AC0D00E0EF4E0950B2EBA2FA02D0B01B90108
S1131AD090010C01CA01A0011124FF27591B99F0A0
S1131AE0593F50F4503E68F11A16F040A22F232FAC
S1131AF0342F4427585FF3CF469537952795A795FC
S1131B00F0405395C9F77EF41F16BA0B620B730BA2
S1131B10840BBAF09150A1F0FF0FBB1F661F771F13
S1131B20881FC2F70EC0BA0F621F731F841F48F4C8
S1131B30879577956795B795F7959E3F08F0B0CF51
S1131B409395880F08F09927EE0F97958795089538
S1131B500E94BC0D0C949D0E0E94960E58F00E949B
S1131B608F0E40F029F45F3F29F00C94860E51113A
S1131B700C94D10E0C948C0E0E94AE0E68F3992333
S1131B80B1F3552391F3951B550BBB27AA27621775
S1131B907307840738F09F5F5F4F220F331F441F82
S1131BA0AA1FA9F335D00E2E3AF0E0E832D09150B6
S1131BB05040E695001CCAF72BD0FE2F29D0660FA3
S1131BC0771F881FBB1F261737074807AB07B0E8E6
S1131BD009F0BB0B802DBF01FF2793585F4F3AF0EC
S1131BE09E3F510578F00C94860E0C94D10E5F3F05
S1131BF0E4F3983ED4F3869577956795B795F79572
S1131C009F5FC9F7880F911D9695879597F9089559
S1131C10E1E0660F771F881FBB1F621773078407F5
S1131C20BA0720F0621B730B840BBA0BEE1F88F704
S1131C30E09508950E94B60E88F09F5798F0B92F4A
S1131C409927B751B0F0E1F0660F771F881F991FED
S1131C501AF0BA95C9F714C0B13091F00E94D00EB1
S1131C60B1E008950C94D00E672F782F8827B85FC1
S1131C7039F0B93FCCF3869577956795B395D9F745
S1131C803EF490958095709561957F4F8F4F9F4F4F
S1131C900895E89409C097FB3EF49095809570955B
S1131CA061957F4F8F4F9F4F9923A9F0F92F96E9A4
S1131CB0BB279395F695879577956795B795F11119
S1131CC0F8CFFAF4BB0F11F460FF1BC06F5F7F4FB6
S1131CD08F4F9F4F16C0882311F096E911C07723C8
S1131CE021F09EE8872F762F05C0662371F096E8D1
S1131CF0862F70E060E02AF09A95660F771F881FA0
S1131D00DAF7880F9695879597F9089597F99F675D
S1131D1080E870E060E008959FEF80EC089500246F
S1131D200A941616170618060906089500240A943C
S1131D3012161306140605060895092E0394000CC2
S1131D4011F4882352F0BB0F40F4BF2B11F460FF51
S1131D5004C06F5F7F4F8F4F9F4F089557FD90587A
S1131D60440F551F59F05F3F71F04795880F97FB5B
S1131D70991F61F09F3F79F0879508951216130615
S1131D801406551FF2CF4695F1DF08C01616170644
S1131D901806991FF1CF8695710561050894089579
S1131DA0E894BB2766277727CB0197F908950E940B
S1131DB0EA0E0C949D0E0E948F0E38F00E94960E2F
S1131DC020F0952311F00C94860E0C948C0E1124A3
S1131DD00C94D10E0E94AE0E70F3959FC1F3950F33
S1131DE050E0551F629FF001729FBB27F00DB11D9B
S1131DF0639FAA27F00DB11DAA1F649F6627B00D2B
S1131E00A11D661F829F2227B00DA11D621F739F13
S1131E10B00DA11D621F839FA00D611D221F749F21
S1131E203327A00D611D231F849F600D211D822F68
S1131E30762F6A2F11249F5750409AF0F1F088238F
S1131E404AF0EE0FFF1FBB1F661F771F881F9150BC
S1131E505040A9F79E3F510580F00C94860E0C94D7
S1131E60D10E5F3FE4F3983ED4F38695779567955A
S1131E70B795F795E7959F5FC1F7FE2B880F911DE6
S1131E809695879597F90895FA01EE0FFF1F3096FE
S1131E9021053105A1F16115710561F48038BFE3B5
S1131EA09B0749F168949038810561F08038BFEF51
S1131EB09B0741F099234AF5FF3FE10531052105D0
S1131EC019F1E8940894E795D901AA2329F4AB2FD2
S1131ED0BE2FF85FD0F310C0FF5F70F4A695E0F753
S1131EE0F73950F019F0FF3A38F49F779F930DD0EB
S1131EF00F9007FC9058089546F00C948C0E60E007
S1131F0070E080E89FE308954FE79F775F934F93D6
S1131F103F932F930E948C102F913F914F915F918B
S1131F200E94D70E0C94C00F0E94B60EE8F09E37A4
S1131F30E8F09639B8F49E3848F4672F782F88274C
S1131F40985FF9CF86957795679593959539D0F3F2
S1131F50B62FB1706B0F711D811D20F48795779595
S1131F60679593950C94F20F0C940D100C94D10E6C
S1131F7029F416F00C94860E0C94D00E0C948C0E4E
S1131F800E94B60EA8F39638A0F707F80F92E894CB
S1131F902BE33AEA48EB5FE70E94ED0E0F920F92B3
S1131FA00F924DB75EB70F920E94D410ECEFF1E0A0
S1131FB00E941B104F915F91EF91FF91E595EE1FE9
S1131FC0FF1F49F0FE57E0684427EE0F441FFA95BF
S1131FD0E1F74195550B0E944E100F9007FE0C94AB
S1131FE042100895882371F4772321F09850872BA9
S1131FF0762F07C0662311F499270DC09051862BC4
S113200070E060E02AF09A95660F771F881FDAF770
S1132010880F9695879597F908959F3F31F09150D1
S113202020F4879577956795B795880F911D9695B8
S1132030879597F90895DF93CF931F930F93FF929A
S1132040EF92DF927B018C01689406C0DA2EEF01D7
S11320500E94EA0EFE01E894A591259135914591DF
S11320605591A6F3EF010E94530DFE019701A801BB
S1132070DA9469F7DF90EF90FF900F911F91CF9161
S1132080DF9108959B01AC0160E070E080E89FE37C
S11320900C94A80D0C94860E0C940D100E94B60E90
S11320A0D8F39923C9F3940F511DA3F391505040D1
S11320B094F059F0882332F0660F771F881F9150EF
S11320C05040C1F79E3F51052CF7880F911D9695FE
S11320D0879597F908955F3FACF0983E9CF0BB2735
S11320E0869577956795B79508F4B1609395C1F790
S11320F0BB0F58F711F460FFE8CF6F5F7F4F8F4F2E
S11321009F4FE3CF0C94D10E16F00C940D100C9449
S11321108C0E68940C94860E0E94B60EA8F3992334
S1132120C1F3AEF3DF93CF931F930F93FF92C92FA5
S1132130DD2788232AF02197660F771F881FDAF797
S113214020E030E040E85FEB9FE3883920F0803EF8
S113215038F021968F770E943C0DE4E2F2E004C04F
S11321600E943C0DE1E5F2E00E941B108B01BE01D0
S1132170EC01FB2E6F5771097595771F880B990B2E
S11321800E944B0E28E132E741E35FE30E94EA0E2E
S1132190AF2D9801AE01FF900F911F91CF91DF9168
S11321A00E94530D0C949D0EFA01DC01AA0FBB1F73
S11321B09B01AC01BF5728F42227332744275078CA
S11321C020C0B75190F4AB2F00244695379527953E
S11321D0011CA395D2F3002071F0220F331F441F7A
S11321E0B395DAF30ED00C943B0D61307105A0E881
S11321F08A07B94630F49B01AC0166277727882704
S11322009078309621F0208331834283538308955C
S11322102F923F924F925F926F927F928F929F92F2
S1132220AF92BF92CF92DF92EF92FF920F931F93E0
S1132230CF93DF93CDB7DEB76097CDBFDEBF7C0110
S11322401B016A01FC0116821782838181FF44C34A
S11322509E012F5F3F4F3901F7019381F10193FDF7
S1132260859193FF81911F01882309F431C385323D
S113227039F493FD859193FF81911F01853239F4DF
S1132280B70190E00E94A51556016501E5CF10E065
S1132290512C912CFFE1F915D8F08B3279F038F4F8
S11322A0803279F08332A1F4F92DF0612EC08D32A1
S11322B061F0803369F4292D21602DC0392D3260FD
S11322C0932E892D8460982E2AC0E92DE86015C0CC
S11322D097FC2DC020ED280F2A3088F496FE06C006
S11322E03AE0139F200D1124122F19C08AE0589E42
S11322F0200D1124522EE92DE0629E2E10C08E3244
S113230031F496FCE5C2F92DF0649F2E08C08C369A
S113231021F4292D2068922E02C0883641F4F1015F
S113232093FD859193FF81911F018111B3CF9BEBA5
S1132330980F933020F4992D9061805E07C09BE93B
S1132340980F933008F066C1992D9F7E96FF16E092
S11323509F73992E853619F49064992E08C0863699
S113236021F4392F3068932E02C01111115097FEB9
S113237007C01C3350F444244394410E27E00BC09F
S1132380183038F027E017E005C027E09CE3492E19
S113239002C0212F412C560184E0A80EB11CF60185
S11323A06081718182819381042DA3010E94B714FD
S11323B06C01F981FC87F0FF02C0F3FF06C091FCB9
S11323C006C092FE06C000E205C00DE203C00BE2A7
S11323D001C000E08C858C7019F001115AC29BC2B7
S11323E097FE10C04C0CFC85F4FF04C08A81813335
S11323F009F44A94141474F528E0241578F588E057
S1132400482E2CC096FC2AC0812F90E08C159D0587
S11324109CF03CEFC3163FEFD30674F0892D80681F
S1132420982E0AC0E2E0F0E0EC0FFD1FE10FF11D71
S11324308081803319F411501111F4CF97FE0EC02E
S113244044244394410E812F90E0C816D9062CF4FD
S11324501C1904C04424439401C010E097FE06C034
S11324601C141D0434F4C601019605C085E090E0F7
S113247002C081E090E001110196112331F0212F77
S113248030E02F5F3F4F820F931F252D30E08217DE
S1132490930714F4581A01C0512C892D897049F4FA
S11324A0552039F0B70180E290E00E94A5155A94B6
S11324B0F7CF002329F0B701802F90E00E94A515E3
S11324C093FC09C0552039F0B70180E390E00E94E5
S11324D0A5155A94F7CF97FE4CC04601D7FE02C00B
S11324E0812C912CC60188199909F301E80FF91F71
S11324F0ED87FE879601241931092F87388B012F28
S113250010E01195019511093FEF8316930629F404
S1132510B7018EE290E00E94A515C814D9044CF0CE
S11325208F8598898815990524F4ED85FE85818128
S113253001C080E3F1E08F1A91082D853E852F5F5D
S11325403F4F2D873E87801691062CF0B70190E00F
S11325500E94A515D9CFC814D90441F49A819633A1
S113256020F4953319F43C8534FF81E3B70190E0FE
S11325704EC08A81813319F09C859F7E9C87B70168
S113258090E00E94A515111105C094FC18C085E6C1
S113259090E017C0B7018EE290E00E94A5151E5F7F
S11325A082E001E0080FF301E80FF11D8081B7011B
S11325B090E00E94A515802F0113F3CFE6CF85E4A8
S11325C090E0B7010E94A515D7FC06C0C114D10440
S11325D041F4EC85E4FF05C0D194C194D1088DE2A7
S11325E001C08BE2B70190E00E94A51580E32AE0C8
S11325F0C216D1042CF08F5FFAE0CF1AD108F7CFBE
S1132600B70190E00E94A515B701C601C0960E94CB
S1132610A51554C1833631F0833779F0833509F039
S113262056C020C0560132E0A30EB11CF6018081D1
S1132630898301E010E0630112C05601F2E0AF0E9D
S1132640B11CF601C080D18096FE03C0612F70E0FA
S113265002C06FEF7FEFC6010E949A158C01F92D1D
S1132660FF7714C0560122E0A20EB11CF601C0800F
S1132670D18096FE03C0612F70E002C06FEF7FEF40
S1132680C6010E948F158C01F92DF0689F2EF3FD71
S11326901AC0852D90E008171907A8F4B70180E245
S11326A090E00E94A5155A94F4CFF60197FC859109
S11326B097FE81916F01B70190E00E94A51551101A
S11326C05A94015011090115110579F7F7C08436A0
S11326D011F0893661F5560197FE09C024E0A20E77
S11326E0B11CF60160817181828193810AC0F2E09C
S11326F0AF0EB11CF60160817181072E000C880BAE
S1132700990BF92DFF769F2E97FF09C09095809520
S1132710709561957F4F8F4F9F4FF0689F2E2AE0F1
S113272030E0A3010E942516C82EC6183FC0092D0B
S1132730853721F40F7E2AE030E01DC0097F8F36F3
S113274091F018F4883559F0C3C0803719F08837F0
S113275011F0BEC0006104FF09C0046007C094FE0C
S113276008C0066006C028E030E005C020E130E083
S113277002C020E132E0560107FF09C084E0A80E40
S1132780B11CF601608171818281938108C0F2E0FD
S1132790AF0EB11CF6016081718180E090E0A3016D
S11327A00E942516C82EC6180F77902E96FE0BC0D1
S11327B0092D0E7FC11650F494FE0AC092FC08C085
S11327C0092D0E7E05C0DC2C092D03C0DC2C01C0B4
S11327D0D12E04FF0DC0FE01EC0DF11D808180336C
S11327E011F4097E09C002FF06C0D394D39404C037
S11327F0802F867809F0D39403FD11C000FF06C032
S11328001C2DD51480F4150D1D190DC0D51458F4C4
S1132810B70180E290E00E94A515D394F7CFD514B8
S113282010F45D1801C0512C04FF10C0B70180E3FF
S113283090E00E94A51502FF17C001FD03C088E7C0
S113284090E002C088E590E0B7010CC0802F867844
S113285059F001FF02C08BE201C080E207FD8DE266
S1132860B70190E00E94A515C11638F4B70180E3C2
S113287090E00E94A5151150F7CFCA94F301EC0D16
S1132880F11D8081B70190E00E94A515C110F5CF1C
S113289015C0F4E0F51560F584E0581A93FE1FC0E6
S11328A0011127C02C8523FF2AC006E812E0392D28
S11328B03071932EF8018491811124C0552009F4BC
S11328C0E4CCB70180E290E00E94A5155A94F6CFBB
S11328D0F7018681978126C08FEF9FEF23C0B70150
S11328E080E290E00E94A5155A945110F8CFD8CFF9
S11328F0512CB701802F90E00E94A515D3CF0AE890
S113290012E0D5CF91108052B70190E00E94A51536
S11329100F5F1F4FCFCF23E0251510F483E0BDCF09
S1132920512CC0CF6096CDBFDEBFDF91CF911F91F8
S11329300F91FF90EF90DF90CF90BF90AF909F905A
S11329408F907F906F905F904F903F902F9008955D
S1132950A29FB001B39FC001A39F700D811D1124DC
S1132960911DB29F700D811D1124911D0895283071
S113297008F027E03327DA01990F311D87FD9160B4
S113298000966105710539F432602E5F3D9330E3A2
S11329902A95E1F708959F3F30F08038710561056D
S11329A009F03C5F3C5F3D93913008F08068911DD5
S11329B0DF93CF931F930F93FF92EF92192F987F7A
S11329C09695E92F96959695E90FFF27E851FD4FC7
S11329D099273327EE24FF24A701E70105900894E3
S11329E0079428F4360FE71EF81E491F511D660F81
S11329F0771F881F991F0694A1F70590079428F460
S1132A00E70EF81E491F561FC11D770F881F991F17
S1132A10661F0694A1F70590079428F4F80E491F41
S1132A20561FC71FD11D880F991F661F771F069455
S1132A30A1F70590079420F4490F561FC71FD81F0C
S1132A40990F661F771F881F0694A9F78491109524
S1132A50177041F0D695C79557954795F794E79425
S1132A601A95C1F7EEE8F2E0689415901591359146
S1132A706591959105907FE27395E118F10A430BF6
S1132A80560BC90BD009C0F7E10CF11E431F561FAA
S1132A90C91FD01D7EF4703311F48A95E6CFE894F3
S1132AA0015030F0080F0AF40027021708F4202F11
S1132AB02395022F7A3328F079E37D932A95E9F759
S1132AC010C07D932A9589F6069497956795379556
S1132AD017951794E118F10A430B560BC90BD0094B
S1132AE098F023957E9173957A3308F070E37C9384
S1132AF02013B8F77E9170617D9330F0839571E374
S1132B007D9370E32A95E1F71124EF90FF900F91E4
S1132B101F91CF91DF91992787FD90950895FC012E
S1132B200590615070400110D8F7809590958E0FF4
S1132B309F1F0895FC016150704001900110D8F767
S1132B40809590958E0F9F1F08950F931F93CF9399
S1132B50DF93FB01238121FD03C08FEF9FEF2CC086
S1132B6022FF16C0468157812481358142175307BD
S1132B7044F4A081B1819D012F5F3F4F20833183B5
S1132B808C93268137812F5F3F4F2683378314C070
S1132B908B01EC01FB010084F185E02D1995892B53
S1132BA0E1F6D80116968D919C9117970196169689
S1132BB08D939C931797CE01DF91CF911F910F9125
S1132BC00895CF93DF93CDB7DEB7AE014A5F5F4F71
S1132BD0FA0161917191AF018091DE249091DF241B
S1132BE00E940811DF91CF9108950F931F93CF9303
S1132BF0DF93E091DE24F091DF24238121FF1BC0C9
S1132C008C01D0E0C0E0F80181918F016091DE2455
S1132C107091DF24DB011896ED91FC9119978823BC
S1132C2031F01995892B79F3DFEFCFEFECCF8AE000
S1132C301995892B19F08FEF9FEF02C08D2F9C2FD0
S1132C40DF91CF911F910F910895FA01AA2728309F
S1132C5051F1203181F1E8946F936E7F6E5F7F4F65
S1132C608F4F9F4FAF4FB1E03ED0B4E03CD0670FE1
S1132C70781F891F9A1FA11D680F791F8A1F911D34
S1132C80A11D6A0F711D811D911DA11D20D009F484
S1132C9068943F912AE0269F11243019305D3193C6
S1132CA0DEF6CF010895462F4770405D4193B3E0AF
S1132CB00FD0C9F7F6CF462F4F70405D4A3318F056
S1132CC0495D31FD4052419302D0A9F7EACFB4E007
S1132CD0A6959795879577956795BA95C9F70097BF
S1132CE06105710508959B01AC010A2E0694579560
S1132CF0479537952795BA95C9F7620F731F841FB7
S10D2D00951FA01D0895F894FFCF5D
S1132D0A04000900080008000C000E00000000037B
S1132D1A00000000B90A790A0000000080BF000020
S1132D2A00C000000040000000400000803F000096
S1132D3A803F00004040000080400000A0405F49FE
S1132D4A4E54203D3D204C4F570053504920494E84
S1132D5A542074696D656F757400424E4F30383073
S1132D6A206973206177616B652100486F73742051
S1132D7A73656E64207061636B657420746F20429E
S1132D8A4E4F3038300073687470646174615B2527
S1132D9A645D3A202564200A002D2D2D2D2D4C65C5
S1132DAA6E676874203D2025640A0053656E6420AA
S1132DBA636F6D6D616E6400536574207570206372
S1132DCA616C6962726174696F6E20636F6D6D61A3
S1132DDA6E640073657446656174757265436F6DDC
S1132DEA6D616E642120006E6F7468696E67207469
S1132DFA6F20726563656976652E2E2E0072656191
S1132E0A647920746F207265636569766521002D83
S1132E1A203173742077616974002D20326E642026
S1132E2A77616974002D20337264207761697400B4
S1132E3A2D6620424E4F30383073656E645061639C
S1132E4A6B6574002D206177616974207061636B0E
S1132E5A657400636F7272656374204944207265F5
S1132E6A73706F6E73652100494420726573706FC5
S1132E7A6E7365206661696C65642E2E2E0050613E
S1132E8A72736520696E707574207265706F7274DE
S1132E9A20005245504F52545F49445F494E4445BD
S1132EAA58203D2025640A00414343454C45524F6E
S1132EBA4D45544552004C494E4541525F414343A6
S1132ECA454C45524154494F4E004759524F53437A
S1132EDA4F5045004D41474E455449435F46494585
S1132EEA4C4400524F544154494F4E205645435482
S1132EFA4F520053657420526F746174696F6E5631
S1132F0A6563746F7221200053657420416363659D
S1132F1A6C65726F6D657465722120005365742047
S1132F2A4C696E65617220416363656C65726F6D8D
S1132F3A65746572212000536574204779726F2184
S1132F4A2000536574204D61676E65746F6D6574F6
S1132F5A6572212000506172736520636F6D6D6123
S1132F6A6E64207265706F727420005265636569BD
S1132F7A766564207061636B6574210044617461D1
S1132F8A20617661696C61626C65210043616C69D8
S1132F9A62726174696F6E204D6F646521004F70AF
S1132FAA65726174696F6E204D6F64652100583AC9
S1132FBA2025302E3266207C20593A2025302E32A4
S1132FCA66207C205A3A2025302E3266207C202521
S1132FDA64200A005B25645D5B25645D203D202531
S1132FEA302E32660A00783A2025302E32662C209A
S1132FFA793A2025302E32662C207A3A2025302E32
S113300A32662C206163637572617469653A20259E
S113301A64200A00783A2025302E32662C20793A28
S113302A2025302E32662C207A3A2025302E32661C
S113303A2C20773A2025302E32662061636375721C
S111304A617469653A2025302E3266200A0032
S9030000FC
