S01400006265756E426F6172645350492E7372656392
S11300000C94C4010C94E5010C94E5010C94E501F5
S11300100C94E5010C94E5010C94E5010C94E501C4
S11300200C94E5010C94E5010C94E5010C94E501B4
S11300300C94E5010C94E5010C94E5010C94E501A4
S11300400C94E5010C94E5010C94E5010C94E50194
S11300500C94E5010C94E5010C94E5010C94E50184
S11300600C94E5010C94E5010C94E5010C94E50174
S11300700C94E5010C94E5010C94E5010C94E50164
S11300800C94E5010C94E5010C94E5010C94E50154
S11300900C94E5010C94E5010C94E5010C94E50144
S11300A00C94E5010C94E5010C94E5010C94E50134
S11300B00C94E5010C94E5010C94E5010C94E50124
S11300C00C94E5010C94E5010C94E5010C94E50114
S11300D00C94E5010C94E5010C94E5010C94E50104
S11300E00C94E5010C94E5010C94E5010C94E501F4
S11300F00C94E5010C94E5010C94E5010C94E501E4
S11301000C94E5010C94E5010C94E5010C94E501D3
S11301100C94E5010C94E5010C94E5010C94E501C3
S11301200C94E5010C94E5010C94E5010C94E501B3
S11301300C94E5010C94E5010C94E5010C94E501A3
S11301400C94E5010C94E5010C94E5010C94E50193
S11301500C94E5010C94E5010C94E5010C94E50183
S11301600C94E5010C94E5010C94E5010C94E50173
S11301700C94E5010C94E5010C94E5010C94E50163
S11301800C94E5010C94E5010C94E5010C94E50153
S11301900C94E5010C94E5010C94E5010C94E50143
S11301A00C94E5010C94E5010C94E5010C94E50133
S11301B00C94E5010C94E5010C94E5010C94E50123
S11301C00C94E5010C94E5010C94E5010C94E50113
S11301D00C94E5010C94E5010C94E5010C940A07D8
S11301E00C9432070C94E5010C94E5010C94E501A0
S11301F00C94E5010C94E5010C94E5010763423687
S1130200B79BD8A71A39685618AEBAAB558C1D3CA3
S1130210B7CC5763BD6DEDFD753EF6177231BF0067
S11302200000803F08000000BE922449123EABAAA1
S1130230AA2ABECDCCCC4C3E00000080BEABAAAAFC
S1130240AA3E00000000BF000000803F0000000044
S113025000084178D3BB4387D1133D190E3CC3BD7D
S11302604282AD2B3E68EC8276BED98FE1A93E4C2A
S113027080EFFFBE01C4FF7F3F00000000000C942C
S1130280E8050C94A8056E616E00696E6600004076
S11302907A10F35A00A0724E18090010A5D4E80091
S11302A000E87648170000E40B54020000CA9A3BA9
S11302B0000000E1F505000080969800000040422F
S11302C00F000000A08601000000102700000000BD
S11302D0E803000000006400000000000A000000C1
S11302E000000100000000002C76D888DC674F086D
S11302F023DFC1DFAE59E1B1B796E5E3E453C63A73
S1130300E651997696E8E6C28426EB898C9B62EDE9
S1130310407C6FFCEFBC9C9F40F2BAA56FA5F490A3
S1130320055A2AF75C936B6CF9676DC11BFCE0E41A
S11303300D47FEF520E6B500D0ED902E0300943570
S113034077050080841E080000204E0A000000C8C3
S11303500C333333330F986E12831141EF8D211414
S1130360893BE65516CFFEE6DB18D1844B381BF7E4
S11303707C1D901DA4BBE424203284725E22810083
S1130380C9F124ECA1E53D2711241FBECFEFCDBF59
S1130390DFE5DEBF00E00CBF12E2A0E0B0E2E6E978
S11303A0F2E200E00BBF02C007900D92AA3AB10737
S11303B0D9F724E2AAEAB2E201C01D92AB36B20731
S11303C0E1F70E947A070C9449110C940000E0E0D4
S11303D0F6E081E0828388E1808B92E0918390E46F
S11303E09183868B88E0828380E1838B0895CF9309
S11303F08091080680FD17C003C0808580FD06C07B
S113040080E190E20E94BB10C1E017C083EF91E04D
S11304100197F1F700C00000C15079F78CE190E238
S11304200E94BB100AC083EF91E00197F1F700C06E
S11304300000CCE7E0E0F6E0E0CF8C2FCF91089508
S11304409F92AF92BF92CF92DF92EF92FF920F935F
S11304501F93CF93DF93C82FD62F80E48093060693
S11304600E94F701882309F463C06894992492F8E0
S11304709D0E8CE290E20E94BB1080E180936606A0
S113048080E4809305068DE390E20E94BB10892DE1
S11304900E94700780E00E9470078C2F0E947007F2
S11304A0EC2FF0E0E555FD4D808191E0980F9083AD
S11304B00E947007DD2359F10F2EFEECAF2EF3E2FC
S11304C0BF2EF02DD1506D2F70E0CB0181539C4D88
S11304D06C01E50108E510E27E0188811F928F938B
S11304E0CE018A199B099F938F931F930F930E94A8
S11304F0A7102196F70180810E9470070F900F903A
S11305000F900F900F900F90CC15DD0529F780E127
S1130510809365061F929F928BE690E29F938F9340
S11305200E94A7100F900F900F900F9081E004C0CD
S113053080E48093050680E0DF91CF911F910F91B5
S1130540FF90EF90DF90CF90BF90AF909F90089571
S1130550EEECF3E292EF90839091AA2221E0290F2E
S11305602093AA22918382836CE082E00E9420027D
S11305700895E1EDF3E22AED33E21192E217F30775
S1130580E1F7811104C081E08093D12319C0813047
S113059019F48093D22314C0823021F481E0809333
S11305A0D3230EC0833021F481E08093D52308C087
S11305B0843031F4EEECF3E281E083838483858339
S11305C081E080935A2487E00E94A8020895CF9284
S11305D0DF92FF920F931F93CF93DF93F82E6B015B
S11305E0022F132FD42FC52F8DE790E20E94BB104A
S11305F09601A8EEB3E00E946E0FEEECF3E22DEF4D
S11306002083F18212821382148265837683878326
S11306109087118612861386148605871687D787D6
S1130620C08B61E182E00E942002DF91CF911F9193
S11306300F91FF90DF90CF900895EF92FF920F9368
S11306401F93CF93DF930E94F701811106C081E9C4
S113065090E20E94BB1080E07CC087EA90E20E9496
S1130660BB1080E18093660680E00E947007082F2B
S113067080E00E947007C82F80E00E947007D82F86
S113068080E00E947007E0E8F3E20083C183D28334
S1130690838310E01C2B1F770115110549F489EBA6
S11306A090E20E94BB1080E18093650680E051C017
S11306B004501109B9F00F2EFEECEF2EF3E2FF2ED9
S11306C0F02DC0E0D0E080E00E947007C038D10572
S11306D010F4F70180832196FFEFEF1AFF0AC01789
S11306E0D10788F380E180936506C0E8D3E288816E
S11306F01F928F938BEC90E29F938F930E94A7108D
S113070089811F928F938FED90E29F938F930E9424
S1130710A7108A811F928F9383EF90E29F938F9308
S11307200E94A7108B811F928F9387E091E29F9381
S11307308F930E94A7101F930F938BE191E29F93D5
S11307408F930E94A7108DB79EB744968DBF9EBF0E
S113075081E0DF91CF911F910F91FF90EF90089569
S11307600E94E7010E94630780E180936506E0E050
S1130770F6E080E4858382E08683A7EEB3E01197F8
S1130780F1F700C0000085838CE291E20E94BB1067
S11307900E94F70187E391E20E94BB100E94F701D7
S11307A00E941D0382E491E20E94BB100E94F701A3
S11307B00E941D03EEECF3E289EF808311828DE445
S11307C091E20E94BB1062E082E00E94200281E676
S11307D091E20E94BB100E94F7010E941D0388232E
S11307E0A1F08091CE23883F51F480E791E29F935A
S11307F08F930E94A7100F900F9081E0089585E8D1
S113080091E20E94BB1080E0089580E00895DF9299
S1130810EF92FF920F931F93CF93DF938BE991E2B3
S11308200E94BB10EEECF3E22481838190E0A0E00F
S1130830B0E0DC0199278827B22B2181822B228109
S1130840922B8093A8239093A923A093AA23B093D7
S1130850AB2387818370D82EE284F12CFE2CEE2406
S11308608185E82A048510E0102F00278385082B52
S1130870868590E0982F88272585EC01C22B8581F9
S11308808130B1F48D2D90E080935F2490936024A7
S1130890E0925824F0925924009363241093642422
S11308A0C093BB23D093BC2381E08093B1224BC07F
S11308B08430D1F48FEA91E20E94BB108D2D90E038
S11308C08093B7239093B823E092AF23F092B023A0
S11308D000935B2410935C24C093C123D093C22360
S11308E084E08093B1222FC08230B1F48D2D90E04A
S11308F08093C3239093C423E092CC23F092CD231E
S11309000093B3231093B423C093B123D093B223A1
S113091082E08093B12217C08330A9F48D2D90E03A
S11309208093842390938523E092B523F092B62399
S113093000935D2410935E24C093B923D093BA230B
S113094083E08093B122DF91CF911F910F91FF90AB
S1130950EF90DF900895CF93DF93EC0181ED91E266
S11309600E94BB1020E030E0A901BE0181E00E949A
S1130970E702DF91CF910895CF93DF93EC0185EEE9
S113098091E20E94BB1020E030E0A901BE0184E0A6
S11309900E94E702DF91CF910895CF93DF93EC019A
S11309A080E092E20E94BB1020E030E0A901BE0189
S11309B082E00E94E702DF91CF910895CF93DF9305
S11309C0EC018BE092E20E94BB1020E030E0A90130
S11309D0BE0183E00E94E702DF91CF9108958EE18A
S11309E092E20E94BB108091CE23813F41F480911A
S11309F0D023873021F48091D32380935A240895FF
S1130A00CF938091080680FD1DC00E941D03C82F4E
S1130A108823E9F084E392E20E94BB108091822350
S1130A20833059F48091CE238B3F71F40E940704E4
S1130A3085E492E20E94BB100AC0823039F40E941D
S1130A40EF0405C0C0E003C0C0E001C0C0E08C2FCB
S1130A50CF910895CF92DF92EF92FF92CF93C62F5A
S1130A60BC01990F880B990B0E9411096B017C0141
S1130A706C2F70E0719561957109072E000C880B3D
S1130A80990B0E9411099B01AC0160E070E080E0C9
S1130A9090E40E940A0A9B01AC01C701B6010E94BE
S1130AA09D09CF91FF90EF90DF90CF9008956091D2
S1130AB000208091AF239091B0230E942A050895CD
S1130AC06091002080915B2490915C240E942A050F
S1130AD00895609100208091C1239091C2230E94C7
S1130AE02A0508958091B72308958091080683FF0D
S1130AF004C081E08093AC2308951092AC23089540
S1130B000E94B003882319F00E94750581E00895BE
S1130B108091172390911623891710F0891B08954B
S1130B208C59891B0895CF93C09116230E94880580
S1130B308823E1F3EC2FF0E0EE54FD4D808191E049
S1130B409C0F943608F090E090931623CF9108956B
S1130B500E94930590E0089520917D2391E0920FE7
S1130B6080917C23943610F09DE9920F891710F040
S1130B70891B08958C59891B08950F931F93CF9354
S1130B80DF93D82F00EA1BE0C1E202C0F801C3835F
S1130B900E94AC058823D1F380917D23E82FF0E0F7
S1130BA0E85EFC4DD0838F5F843608F080E0E0EA95
S1130BB0F0E09281292F2E7F228380937D2381E28E
S1130BC08093A30B9283DF91CF911F910F9108958E
S1130BD0CF93DF93D82FCFEF03C0CC2391F0C15034
S1130BE00E94AC058823C9F3CC2371F0DA3019F4E0
S1130BF08DE00E94BD058D2F0E94BD0580E090E030
S1130C0005C081E090E002C081E090E0DF91CF91E7
S1130C1008954F925F926F927F928F929F92AF92BC
S1130C20BF92EF92FF920F931F93CF934B015C01FE
S1130C3007E010E0C9EFEE24E394F12CCC2354F543
S1130C40C501B4010E940F0920E030E041EE59E4EF
S1130C500E946E0820E030E040E85FE30E94010853
S1130C602B013C01B701002E02C0660F771F0A94C6
S1130C70E2F7072E000C880B990B0E9411099B01C7
S1130C80AC01C301B2010E949D090E945A0A0E944C
S1130C90E0082CC0C501B4010E940F0920E030E037
S1130CA041EE59E40E946E082B013C0188279927E4
S1130CB0801B910BB70102C0660F771F8A95E2F77C
S1130CC0072E000C880B990B0E9411099B01AC01A3
S1130CD0C301B2010E946E0820E030E040E85FE307
S1130CE00E9401080E945A0A0E94E008611570419E
S1130CF038F0CF5F01501109C83009F09FCF31C0DF
S1130D00CC237CF5C501B4010E940F0920E030E03A
S1130D1041EE59E40E946E0820E030E040E85FE3D1
S1130D200E9401084B015C012C2F332721950CF400
S1130D30309561E070E002C0660F771F2A95E2F7F4
S1130D40072E000C880B990B0E9411099B01AC0122
S1130D50C501B4010E949D090E945A0A0E94E0083C
S1130D602AC0C501B4010E940F0920E030E041EE21
S1130D7059E40E946E084B015C0161E070E00C2EA6
S1130D8002C0660F771F0A94E2F7072E000C880B47
S1130D90990B0E9411099B01AC01C501B4010E9489
S1130DA06E0820E030E040E85FE30E9401080E9402
S1130DB05A0A0E94E008E0EAF6E088E1828B98E0B3
S1130DC09583918394E09283E0EAFBE066837F70ED
S1130DD0C295C07FC72BC783848380E28383E0EA04
S1130DE0F0E0828183608283E5E6F4E282E090E2CF
S1130DF08083918382839383CF911F910F91FF907E
S1130E00EF90BF90AF909F908F907F906F905F9086
S1130E104F9008951F920F920FB60F9211240BB6A4
S1130E200F928F939F93EF93FF9380911723E82F53
S1130E30F0E09091A00BEE54FD4D90838F5F8436CB
S1130E4008F080E090911623891380931723FF9173
S1130E50EF919F918F910F900BBE0F900FBE0F904B
S1130E601F9018951F920F920FB60F9211240BB674
S1130E700F922F938F939F93EF93FF9380917C23F3
S1130E8090917D23891769F0E82FF0E0E85EFC4D2E
S1130E9020812093A00B8F5F843608F080E08913B3
S1130EA004C080E28093A30B892F80937C23FF915D
S1130EB0EF919F918F912F910F900BBE0F900FBECA
S1130EC00F901F901895E0E6F6E080EB818380E4B4
S1130ED0828380E1868B85838CE58093C0090895A5
S1130EE08093C309E0ECF9E082818823ECF78091D8
S1130EF0C30908956F927F928F929F92AF92BF928F
S1130F00CF92DF92EF92FF920F931F93CF93DF93D1
S1130F1060E874E88EE190E00E94090678940E94EB
S1130F208005882309F45CC08091AC23813091F45E
S1130F3084E00E94B90284E690E00E94AB0484E657
S1130F4090E00E94CD0484E690E00E94DE04CBE7AA
S1130F50D2E23AC0811144C088EE93E00E94BC04FE
S1130F60F6CF0E940005882379F18091B122843064
S1130F7059F50E945705162F072FF82EE92E0E94C7
S1130F806005D62EC72EB82EA92E0E946905962E6E
S1130F90872E782E692E0E9472051F928F936F926E
S1130FA07F928F929F92AF92BF92CF92DF92EF92F5
S1130FB0FF920F931F93DF93CF930E94A7108DB7D7
S1130FC09EB740968DBF9EBF8091AC23882349F283
S1130FD0813031F40E9400058091AC238130D1F33B
S1130FE080E090E0DF91CF911F910F91FF90EF90FF
S1130FF0DF90CF90BF90AF909F908F907F906F9035
S113100008955058BB27AA270E9419080C94630915
S11310100E94550938F00E945C0920F039F49F3F82
S113102019F426F40C9452090EF4E095E7FB0C94A1
S11310304C09E92F0E94740958F3BA176207730721
S11310408407950720F079F4A6F50C9496090EF41C
S1131050E0950B2EBA2FA02D0B01B90190010C01C4
S1131060CA01A0011124FF27591B99F0593F50F4DC
S1131070503E68F11A16F040A22F232F342F442734
S1131080585FF3CF469537952795A795F04053952C
S1131090C9F77EF41F16BA0B620B730B840BBAF0FC
S11310A09150A1F0FF0FBB1F661F771F881FC2F767
S11310B00EC0BA0F621F731F841F48F4879577957B
S11310C06795B795F7959E3F08F0B0CF9395880F35
S11310D008F09927EE0F9795879508950E94820846
S11310E00C9463090E945C0958F00E94550940F071
S11310F029F45F3F29F00C944C0951110C94970981
S11311000C9452090E94740968F39923B1F355238E
S113111091F3951B550BBB27AA2762177307840706
S113112038F09F5F5F4F220F331F441FAA1FA9F39C
S113113035D00E2E3AF0E0E832D091505040E6958A
S1131140001CCAF72BD0FE2F29D0660F771F881FEB
S1131150BB1F261737074807AB07B0E809F0BB0BDE
S1131160802DBF01FF2793585F4F3AF09E3F5105F2
S113117078F00C944C090C9497095F3FE4F3983E83
S1131180D4F3869577956795B795F7959F5FC9F7DB
S1131190880F911D9695879597F90895E1E0660F5C
S11311A0771F881FBB1F621773078407BA0720F0D5
S11311B0621B730B840BBA0BEE1F88F7E09508953E
S11311C00E947C0988F09F5798F0B92F9927B7514E
S11311D0B0F0E1F0660F771F881F991F1AF0BA95D7
S11311E0C9F714C0B13091F00E949609B1E0089596
S11311F00C949609672F782F8827B85F39F0B93F88
S1131200CCF3869577956795B395D9F73EF4909589
S11312108095709561957F4F8F4F9F4F0895E89407
S113122009C097FB3EF490958095709561957F4F2A
S11312308F4F9F4F9923A9F0F92F96E9BB279395D8
S1131240F695879577956795B795F111F8CFFAF4E8
S1131250BB0F11F460FF1BC06F5F7F4F8F4F9F4F19
S113126016C0882311F096E911C0772321F09EE877
S1131270872F762F05C0662371F096E8862F70E0DD
S113128060E02AF09A95660F771F881FDAF7880FB7
S11312909695879597F9089597F99F6780E870E088
S11312A060E008959FEF80EC089500240A941616D8
S11312B0170618060906089500240A941216130640
S11312C0140605060895092E0394000C11F48823CE
S11312D052F0BB0F40F4BF2B11F460FF04C06F5FEA
S11312E07F4F8F4F9F4F089557FD9058440F551FC0
S11312F059F05F3F71F04795880F97FB991F61F094
S11313009F3F79F087950895121613061406551F0A
S1131310F2CF4695F1DF08C0161617061806991F76
S1131320F1CF86957105610508940895E894BB276B
S113133066277727CB0197F908950E94B0090C948A
S113134063090E94550938F00E945C0920F0952336
S113135011F00C944C090C94520911240C94970923
S11313600E94740970F3959FC1F3950F50E0551FC7
S1131370629FF001729FBB27F00DB11D639FAA27E6
S1131380F00DB11DAA1F649F6627B00DA11D661F35
S1131390829F2227B00DA11D621F739FB00DA11D56
S11313A0621F839FA00D611D221F749F3327A00D10
S11313B0611D231F849F600D211D822F762F6A2FAC
S11313C011249F5750409AF0F1F088234AF0EE0F11
S11313D0FF1FBB1F661F771F881F91505040A9F73E
S11313E09E3F510580F00C944C090C9497095F3F83
S11313F0E4F3983ED4F3869577956795B795F7957A
S1131400E7959F5FC1F7FE2B880F911D96958795F1
S113141097F90895FA01EE0FFF1F30962105310563
S1131420A1F16115710561F48038BFE39B0749F1AF
S113143068949038810561F08038BFEF9B0741F0D4
S113144099234AF5FF3FE1053105210519F1E89497
S11314500894E795D901AA2329F4AB2FBE2FF85F8E
S1131460D0F310C0FF5F70F4A695E0F7F73950F0A1
S113147019F0FF3A38F49F779F930DD00F9007FC33
S11314809058089546F00C94520960E070E080E8AA
S11314909FE308954FE79F775F934F933F932F9375
S11314A00E94520B2F913F914F915F910E949D0991
S11314B00C94860A0E947C09E8F09E37E8F096397D
S11314C0B8F49E3848F4672F782F8827985FF9CFAF
S11314D086957795679593959539D0F3B62FB17026
S11314E06B0F711D811D20F48795779567959395F2
S11314F00C94B80A0C94D30A0C94970929F416F0A6
S11315000C944C090C9496090C9452090E947C0981
S1131510A8F39638A0F707F80F92E8942BE33AEA79
S113152048EB5FE70E94B3090F920F920F924DB7F9
S11315305EB70F920E949A0BECEFF1E00E94E10A71
S11315404F915F91EF91FF91E595EE1FFF1F49F0D9
S1131550FE57E0684427EE0F441FFA95E1F74195E2
S1131560550B0E94140B0F9007FE0C94080B089562
S1131570882371F4772321F09850872B762F07C0A6
S1131580662311F499270DC09051862B70E060E01A
S11315902AF09A95660F771F881FDAF7880F9695B9
S11315A0879597F908959F3F31F0915020F48795DE
S11315B077956795B795880F911D9695879597F9B7
S11315C00895DF93CF931F930F93FF92EF92DF92CF
S11315D07B018C01689406C0DA2EEF010E94B009E9
S11315E0FE01E894A5912591359145915591A6F375
S11315F0EF010E941908FE019701A801DA9469F726
S1131600DF90EF90FF900F911F91CF91DF9108959C
S11316109B01AC0160E070E080E89FE30C946E08ED
S11316200C944C090C94D30A0E947C09D8F3992396
S1131630C9F3940F511DA3F39150504094F059F005
S1131640882332F0660F771F881F91505040C1F7EE
S11316509E3F51052CF7880F911D9695879597F914
S113166008955F3FACF0983E9CF0BB278695779534
S11316706795B79508F4B1609395C1F7BB0F58F718
S113168011F460FFE8CF6F5F7F4F8F4F9F4FE3CF21
S11316900C94970916F00C94D30A0C94520968948C
S11316A00C944C090E947C09A8F39923C1F3AEF36E
S11316B0DF93CF931F930F93FF92C92FDD278823C6
S11316C02AF02197660F771F881FDAF720E030E0B1
S11316D040E85FEB9FE3883920F0803E38F02196A4
S11316E08F770E940208E4E2F2E004C00E9402083C
S11316F0E1E5F2E00E94E10A8B01BE01EC01FB2E60
S11317006F5771097595771F880B990B0E94110902
S113171028E132E741E35FE30E94B009AF2D98016D
S1131720AE01FF900F911F91CF91DF910E94190894
S11317300C946309FA01DC01AA0FBB1F9B01AC01E5
S1131740BF5728F4222733274427507820C0B751A5
S113175090F4AB2F0024469537952795011CA3954B
S1131760D2F3002071F0220F331F441FB395DAF334
S11317700ED00C94010861307105A0E88A07B946BF
S113178030F49B01AC016627772788279078309640
S113179021F0208331834283538308952F923F9213
S11317A04F925F926F927F928F929F92AF92BF926D
S11317B0CF92DF92EF92FF920F931F93CF93DF9319
S11317C0CDB7DEB76097CDBFDEBF7C011B016A01D8
S11317D0FC0116821782838181FF44C39E012F5F1F
S11317E03F4F3901F7019381F10193FD859193FFF7
S11317F081911F01882309F431C3853239F493FDA3
S1131800859193FF81911F01853239F4B70190E0EE
S11318100E946B1056016501E5CF10E0512C912C0C
S1131820FFE1F915D8F08B3279F038F4803279F091
S11318308332A1F4F92DF0612EC08D3261F0803332
S113184069F4292D21602DC0392D3260932E892D04
S11318508460982E2AC0E92DE86015C097FC2DC03D
S113186020ED280F2A3088F496FE06C03AE0139F34
S1131870200D1124122F19C08AE0589E200D112426
S1131880522EE92DE0629E2E10C08E3231F496FC69
S1131890E5C2F92DF0649F2E08C08C3621F4292D61
S11318A02068922E02C0883641F4F10193FD85919F
S11318B093FF81911F018111B3CF9BEB980F93305C
S11318C020F4992D9061805E07C09BE9980F9330B6
S11318D008F066C1992D9F7E96FF16E09F73992E9E
S11318E0853619F49064992E08C0863621F4392F70
S11318F03068932E02C01111115097FE07C01C339B
S113190050F444244394410E27E00BC0183038F0BF
S113191027E017E005C027E09CE3492E02C0212FF1
S1131920412C560184E0A80EB11CF601608171813E
S113193082819381042DA3010E947D0F6C01F981A2
S1131940FC87F0FF02C0F3FF06C091FC06C092FEC4
S113195006C000E205C00DE203C00BE201C000E0D6
S11319608C858C7019F001115AC29BC297FE10C06D
S11319704C0CFC85F4FF04C08A81813309F44A9439
S1131980141474F528E0241578F588E0482E2CC04A
S113199096FC2AC0812F90E08C159D059CF03CEFAD
S11319A0C3163FEFD30674F0892D8068982E0AC0C1
S11319B0E2E0F0E0EC0FFD1FE10FF11D80818033C8
S11319C019F411501111F4CF97FE0EC0442443941E
S11319D0410E812F90E0C816D9062CF41C1904C0BE
S11319E04424439401C010E097FE06C01C141D0457
S11319F034F4C601019605C085E090E002C081E0A0
S1131A0090E001110196112331F0212F30E02F5F76
S1131A103F4F820F931F252D30E08217930714F454
S1131A20581A01C0512C892D897049F4552039F078
S1131A30B70180E290E00E946B105A94F7CF002324
S1131A4029F0B701802F90E00E946B1093FC09C02D
S1131A50552039F0B70180E390E00E946B105A944E
S1131A60F7CF97FE4CC04601D7FE02C0812C912CC3
S1131A70C60188199909F301E80FF91FED87FE875C
S1131A809601241931092F87388B012F10E0119505
S1131A90019511093FEF8316930629F4B7018EE2ED
S1131AA090E00E946B10C814D9044CF08F8598897B
S1131AB08815990524F4ED85FE85818101C080E3B4
S1131AC0F1E08F1A91082D853E852F5F3F4F2D87BA
S1131AD03E87801691062CF0B70190E00E946B10AF
S1131AE0D9CFC814D90441F49A81963320F495339C
S1131AF019F43C8534FF81E3B70190E04EC08A813C
S1131B00813319F09C859F7E9C87B70190E00E94E9
S1131B106B10111105C094FC18C085E690E017C045
S1131B20B7018EE290E00E946B101E5F82E001E03C
S1131B30080FF301E80FF11D8081B70190E00E94C6
S1131B406B10802F0113F3CFE6CF85E490E0B7014B
S1131B500E946B10D7FC06C0C114D10441F4EC857B
S1131B60E4FF05C0D194C194D1088DE201C08BE299
S1131B70B70190E00E946B1080E32AE0C216D10402
S1131B802CF08F5FFAE0CF1AD108F7CFB70190E0BD
S1131B900E946B10B701C601C0960E946B1054C11D
S1131BA0833631F0833779F0833509F056C020C08D
S1131BB0560132E0A30EB11CF6018081898301E055
S1131BC010E0630112C05601F2E0AF0EB11CF60141
S1131BD0C080D18096FE03C0612F70E002C06FEF19
S1131BE07FEFC6010E9460108C01F92DFF7714C0AD
S1131BF0560122E0A20EB11CF601C080D18096FEEF
S1131C0003C0612F70E002C06FEF7FEFC6010E9436
S1131C1055108C01F92DF0689F2EF3FD1AC0852D07
S1131C2090E008171907A8F4B70180E290E00E9439
S1131C306B105A94F4CFF60197FC859197FE81912D
S1131C406F01B70190E00E946B1051105A9401503B
S1131C5011090115110579F7F7C0843611F0893699
S1131C6061F5560197FE09C024E0A20EB11CF601ED
S1131C7060817181828193810AC0F2E0AF0EB11C50
S1131C80F60160817181072E000C880B990BF92DE8
S1131C90FF769F2E97FF09C090958095709561956A
S1131CA07F4F8F4F9F4FF0689F2E2AE030E0A301B3
S1131CB00E94EB10C82EC6183FC0092D853721F4A9
S1131CC00F7E2AE030E01DC0097F8F3691F018F4B2
S1131CD0883559F0C3C0803719F0883711F0BEC079
S1131CE0006104FF09C0046007C094FE08C00660D8
S1131CF006C028E030E005C020E130E002C020E169
S1131D0032E0560107FF09C084E0A80EB11CF601B9
S1131D10608171818281938108C0F2E0AF0EB11CB1
S1131D20F6016081718180E090E0A3010E94EB10D4
S1131D30C82EC6180F77902E96FE0BC0092D0E7F65
S1131D40C11650F494FE0AC092FC08C0092D0E7E00
S1131D5005C0DC2C092D03C0DC2C01C0D12E04FFEE
S1131D600DC0FE01EC0DF11D8081803311F4097E5C
S1131D7009C002FF06C0D394D39404C0802F867890
S1131D8009F0D39403FD11C000FF06C01C2DD51427
S1131D9080F4150D1D190DC0D51458F4B70180E257
S1131DA090E00E946B10D394F7CFD51410F45D1813
S1131DB001C0512C04FF10C0B70180E390E00E94E1
S1131DC06B1002FF17C001FD03C088E790E002C05A
S1131DD088E590E0B7010CC0802F867859F001FFA8
S1131DE002C08BE201C080E207FD8DE2B70190E002
S1131DF00E946B10C11638F4B70180E390E00E9492
S1131E006B101150F7CFCA94F301EC0DF11D8081D2
S1131E10B70190E00E946B10C110F5CF15C0F4E03B
S1131E20F51560F584E0581A93FE1FC0011127C010
S1131E302C8523FF2AC006E812E0392D3071932E39
S1131E40F8018491811124C0552009F4E4CCB70130
S1131E5080E290E00E946B105A94F6CFF7018681DD
S1131E60978126C08FEF9FEF23C0B70180E290E0F7
S1131E700E946B105A945110F8CFD8CF512CB7014F
S1131E80802F90E00E946B10D3CF0AE812E0D5CFE8
S1131E9091108052B70190E00E946B100F5F1F4FAA
S1131EA0CFCF23E0251510F483E0BDCF512CC0CF54
S1131EB06096CDBFDEBFDF91CF911F910F91FF9050
S1131EC0EF90DF90CF90BF90AF909F908F907F90D6
S1131ED06F905F904F903F902F900895A29FB00114
S1131EE0B39FC001A39F700D811D1124911DB29F4A
S1131EF0700D811D1124911D0895283008F027E0EC
S1131F003327DA01990F311D87FD91600096610531
S1131F10710539F432602E5F3D9330E32A95E1F781
S1131F2008959F3F30F080387105610509F03C5FEA
S1131F303C5F3D93913008F08068911DDF93CF930F
S1131F401F930F93FF92EF92192F987F9695E92F85
S1131F5096959695E90FFF27E851FD4F992733276A
S1131F60EE24FF24A701E70105900894079428F4C0
S1131F70360FE71EF81E491F511D660F771F881F75
S1131F80991F0694A1F70590079428F4E70EF81E0C
S1131F90491F561FC11D770F881F991F661F06947E
S1131FA0A1F70590079428F4F80E491F561FC71F80
S1131FB0D11D880F991F661F771F0694A1F70590FE
S1131FC0079420F4490F561FC71FD81F990F661F87
S1131FD0771F881F0694A9F784911095177041F014
S1131FE0D695C79557954795F794E7941A95C1F7F1
S1131FF0EEE8F2E06894159015913591659195910C
S113200005907FE27395E118F10A430B560BC90B57
S1132010D009C0F7E10CF11E431F561FC91FD01D84
S11320207EF4703311F48A95E6CFE894015030F0D1
S1132030080F0AF40027021708F4202F2395022F13
S11320407A3328F079E37D932A95E9F710C07D93DC
S11320502A9589F606949795679537951795179459
S1132060E118F10A430B560BC90BD00998F02395DC
S11320707E9173957A3308F070E37C932013B8F75C
S11320807E9170617D9330F0839571E37D9370E36D
S11320902A95E1F71124EF90FF900F911F91CF91B2
S11320A0DF91992787FD90950895FC010590615073
S11320B070400110D8F7809590958E0F9F1F08955A
S11320C0FC016150704001900110D8F78095909503
S11320D08E0F9F1F08950F931F93CF93DF93FB01E0
S11320E0238121FD03C08FEF9FEF2CC022FF16C078
S11320F046815781248135814217530744F4A081D6
S1132100B1819D012F5F3F4F208331838C932681C2
S113211037812F5F3F4F2683378314C08B01EC0137
S1132120FB010084F185E02D1995892BE1F6D80196
S113213016968D919C911797019616968D939C9364
S11321401797CE01DF91CF911F910F910895CF93EF
S1132150DF93CDB7DEB7AE014A5F5F4FFA016191FD
S11321607191AF0180916724909168240E94CE0BF5
S1132170DF91CF9108950F931F93CF93DF93E09155
S11321806724F0916824238121FF1BC08C01D0E0D7
S1132190C0E0F80181918F016091672470916824F7
S11321A0DB011896ED91FC911997882331F019956C
S11321B0892B79F3DFEFCFEFECCF8AE01995892BE8
S11321C019F08FEF9FEF02C08D2F9C2FDF91CF91DD
S11321D01F910F910895FA01AA27283051F1203157
S11321E081F1E8946F936E7F6E5F7F4F8F4F9F4FA7
S11321F0AF4FB1E03ED0B4E03CD0670F781F891FE9
S11322009A1FA11D680F791F8A1F911DA11D6A0FB6
S1132210711D811D911DA11D20D009F468943F9169
S11322202AE0269F11243019305D3193DEF6CF0168
S11322300895462F4770405D4193B3E00FD0C9F72E
S1132240F6CF462F4F70405D4A3318F0495D31FD9B
S11322504052419302D0A9F7EACFB4E0A6959795EE
S1132260879577956795BA95C9F7009761057105C4
S113227008959B01AC010A2E06945795479537950E
S11322802795BA95C9F7620F731F841F951FA01D68
S10922900895F894FFCF4D
S113229608000000000300000000E805A80500008F
S11322A65F494E54203D3D204C4F57005350492022
S11322B6494E542074696D656F757400424E4F30F3
S11322C63830206973206177616B652100486F732C
S11322D6742073656E64207061636B657420746F1B
S11322E620424E4F303830007368747064617461F4
S11322F65B25645D3A202564200A002D2D2D2D2DA5
S11323064C656E676874203D2025640A0073657405
S113231646656174757265436F6D6D616E642120E7
S1132326006E6F7468696E6720746F2072656365EA
S11323366976652E2E2E00726561647920746F208D
S1132346726563656976652100646174614C656EC6
S1132356677468203D20302E2E2E0053485054209A
S113236668656164657220313A202564200A005349
S11323764850542068656164657220323A202564A9
S1132386200A0053485054206865616465722033FE
S11323963A202564200A0053485054206865616435
S11323A6657220343A202564200A00646174614C05
S11323B6656E677468203D2025640A002D203173FC
S11323C6742077616974002D20326E642077616908
S11323D674002D203372642077616974002D6620A1
S11323E6424E4F30383073656E645061636B65746A
S11323F6002D206177616974207061636B657400D8
S1132406636F727265637420494420726573706FDA
S11324166E73652100494420726573706F6E73652F
S1132426206661696C65642E2E2E00506172736598
S113243620696E707574207265706F727420004C1A
S1132446696E6561722041434321210053657420FE
S1132456526F746174696F6E566563746F7221206E
S11324660053657420416363656C65726F6D6574B2
S11324766572212000536574204C696E6561722073
S1132486416363656C65726F6D65746572212000C6
S1132496536574204779726F212000536574204D6B
S11324A661676E65746F6D65746572212000506195
S11324B672736520636F6D6D616E64207265706FF3
S11324C67274200052656365697665642070616381
S11324D66B657421004461746120617661696C6185
S11324E6626C652100583A2025302E3266207C2005
S11324F6593A2025302E3266207C205A3A2025303F
S11325062E3266207C202564200A00783A20253065
S11325162E32662C20793A2025302E32662C207AEB
S11325263A2025302E32662C2061636375726174FD
S10D253669653A202564200A0000BC
S9030000FC
