:100000000C94E2010C9403020C9403020C9403027E
:100010000C9403020C9403020C9403020C9403024C
:100020000C9403020C9403020C9403020C9403023C
:100030000C9403020C9403020C9403020C9403022C
:100040000C9403020C9403020C9403020C9403021C
:100050000C9403020C9403020C9403020C9403020C
:100060000C9403020C9403020C9403020C940302FC
:100070000C9403020C9403020C9403020C940302EC
:100080000C9403020C9403020C9403020C940302DC
:100090000C9403020C9403020C9403020C940302CC
:1000A0000C9403020C9403020C9403020C940302BC
:1000B0000C9403020C9403020C9403020C940302AC
:1000C0000C9403020C9403020C9403020C9403029C
:1000D0000C9403020C9403020C9403020C9403028C
:1000E0000C9403020C9403020C9449020C94030236
:1000F0000C9403020C9403020C9403020C9403026C
:100100000C9403020C9403020C9403020C9403025B
:100110000C9403020C9403020C9403020C9403024B
:100120000C9403020C9403020C9403020C9403023B
:100130000C9403020C9403020C9403020C9403022B
:100140000C9403020C9403020C9403020C9403021B
:100150000C9403020C9403020C9403020C9403020B
:100160000C9403020C9403020C9403020C940302FB
:100170000C9403020C9403020C9403020C940302EB
:100180000C9403020C9403020C9403020C940302DB
:100190000C9403020C9403020C9403020C940302CB
:1001A0000C9403020C9403020C9403020C940302BB
:1001B0000C9403020C9403020C9403020C940302AB
:1001C0000C9403020C9403020C9403020C9403029B
:1001D0000C9403020C9403020C9403020C94A80FD9
:1001E0000C94D00F0C9403020C9403020C940302A1
:1001F0000C9403020C9403020C940302076342362E
:10020000B79BD8A71A39685618AEBAAB558C1D3CA7
:10021000B7CC5763BD6DEDFD753EF6177231BF006B
:100220000000803F08000000BE922449123EABAAA5
:10023000AA2ABECDCCCC4C3E00000080BEABAAAA00
:10024000AA3E00000000BF000000803F0000000048
:1002500000084178D3BB4387D1133D190E3CC3BD81
:100260004282AD2B3E68EC8276BED98FE1A93E4C2E
:1002700080EFFFBE01C4FF7F3F00000000000C9430
:10028000460E0C94860E6E616E00696E660000402C
:100290007A10F35A00A0724E18090010A5D4E80095
:1002A00000E87648170000E40B54020000CA9A3BAD
:1002B000000000E1F5050000809698000000404233
:1002C0000F000000A08601000000102700000000C1
:1002D000E803000000006400000000000A000000C5
:1002E00000000100000000002C76D888DC674F0871
:1002F00023DFC1DFAE59E1B1B796E5E3E453C63A77
:10030000E651997696E8E6C28426EB898C9B62EDED
:10031000407C6FFCEFBC9C9F40F2BAA56FA5F490A7
:10032000055A2AF75C936B6CF9676DC11BFCE0E41E
:100330000D47FEF520E6B500D0ED902E0300943574
:1003400077050080841E080000204E0A000000C8C7
:100350000C333333330F986E12831141EF8D211418
:10036000893BE65516CFFEE6DB18D1844B381BF7E8
:100370007C1D901DA4BBE424203284725E22810087
:10038000C9F124ECA1E53D274E414E494E4954594F
:10039000494E46CDCCCC3D0AD7233C17B7D1387750
:1003A000CC2B329595E6241FB14F0A000020410066
:1003B00000C84200401C4620BCBE4CCA1B0E5AAEB0
:1003C000C59D740011241FBECFEFCDBFDFE5DEBF9A
:1003D00000E00CBF12E2A0E0B0E2EEE4FBE300E0DC
:1003E0000BBF02C007900D92A438B107D9F726E2DF
:1003F000A4E8B2E201C01D92A138B207E1F70E9461
:1004000018100C94A51D0C940000FC0146835F702D
:100410006295607F652B6783089520E1FC0123834B
:1004200028E1248323E025830E94050208958AE1C0
:1004300090E20E943A1BE0E8F6E088E0818384E0E5
:1004400082834BE050E069EF80EA9AE00E940D025F
:10045000089580917F2390917E23891710F0891B46
:1004600008958650891B0895CF93C0917E230E94E2
:1004700029028823E1F3EC2FF0E0EC57FD4D808159
:1004800091E09C0F9A3F08F090E090937E23CF91EB
:1004900008951F920F920FB60F9211240BB60F9270
:1004A0008F939F93EF93FF9380917F23E82FF0E04A
:1004B0009091A00AEC57FD4D90838F5F8A3F08F022
:1004C00080E090917E23891380937F23FF91EF91A9
:1004D0009F918F910F900BBE0F900FBE0F901F90AA
:1004E0001895E0E0F6E081E0828398E1908B22E0CD
:1004F000218320E42183968BE0E6F6E0828380E18D
:10050000808B089590910806892F817090FD10C00E
:100510000DC0208520FF16C0A3EFB1E01197F1F7C1
:1005200000C000009150A9F7892F089581E0089537
:10053000E3EFF1E03197F1F700C000009CE7E0E065
:10054000F6E0E7CF08950F931F93CF93DF93C82F63
:10055000062F80E4809306060E948202882369F1B8
:1005600080E18093660680E48093050684E0800F36
:100570000E940E1080E00E940E108C2F0E940E1020
:10058000EC2FF0E0EB57FC4D808191E0980F9083C9
:100590000E940E10002361F0C1EDD4E2015010E082
:1005A0000E521B4D89910E940E10C017D107D1F732
:1005B00080E18093650681E004C080E480930506B5
:1005C00080E0DF91CF911F910F910895E1EDF4E26A
:1005D00092EF90839091842321E0290F209384232C
:1005E000918382836CE082E00E94A3020895CF93FE
:1005F000C82F86E290E20E943A1BE4EDF4E28DED12
:1006000094E21192E817F907E1F7C11104C081E003
:100610008093D4241AC0C13021F481E08093D52482
:1006200014C0C23021F481E08093D6240EC0C330C0
:1006300021F481E08093D82408C0C43031F4E1ED86
:10064000F4E281E083838483858381E08093532572
:1006500087E00E94E602CF910895CF92DF92FF9249
:100660000F931F93CF93DF93F82E6B01022F132F5D
:10067000D42FC52F81E490E20E943A1B9601A8EE88
:10068000B3E00E94A418E1EDF4E22DEF2083F182A3
:100690001282138214826583768387839087118602
:1006A00012861386148605871687D787C08B61E16B
:1006B00082E00E94A302DF91CF911F910F91FF90E2
:1006C000DF90CF900895EF92FF920F931F93CF93F7
:1006D000DF930E948202882309F442C080E1809364
:1006E000660680E00E940E10082F80E00E940E1027
:1006F000C82F80E00E940E10D82F80E00E940E10BC
:10070000EAEAF4E20083C183D283838310E01C2BE6
:100710001F770115110529F480E18093650680E0BB
:1007200020C004501109B9F00F2EF1EDEF2EF4E2C4
:10073000FF2EF02DC0E0D0E080E00E940E10C03807
:10074000D10510F4F70180832196FFEFEF1AFF0A1D
:10075000C017D10788F380E18093650681E001C06E
:1007600080E0DF91CF911F910F91FF90EF9008955E
:100770000E9471020E94011080E180936506E0E012
:10078000F6E080E4858382E08683A7EEB3E01197EC
:10079000F1F700C0000085830E9482020E9482025D
:1007A0000E9463030E9482020E946303E1EDF4E26F
:1007B00089EF8083118262E082E00E94A3020E949E
:1007C00082020E9463038823A1F08091D124883F94
:1007D00051F485E590E29F938F930E94261B0F9022
:1007E0000F9081E008958AE690E20E943A1B80E033
:1007F000089580E008957F928F929F92AF92BF926A
:10080000CF92DF92EF92FF920F931F93CF93DF93DC
:10081000EAEAF4E2818190E0982F88272081822BF8
:10082000E1EDF4E22481438150E060E070E0BA0140
:1008300055274427722B2181422B2281522B409332
:10084000B2245093B3246093B4247093B5242781C9
:100850002370722EE284F12CFE2CEE242185E22AF4
:10086000048510E0102F00272385022BC685D0E0D9
:10087000DC2FCC2725854E01822A9F7709978A3065
:1008800091053CF0A088B12CBA2CAA242785A22A75
:1008900002C0A12CB12C0C974CF0E1EDF4E2C2881F
:1008A000D12CDC2CCC248189C82A02C0C12CD12CAB
:1008B000C1EDD4E28D811F928F9380E890E29F93E7
:1008C0008F930E94261B8D810F900F900F900F9099
:1008D0008130D1F486E990E20E943A1B872D90E0A6
:1008E0008093582590935925E0925125F0925225F6
:1008F00000935C2510935D258092C5249092C624B8
:1009000081E080938B2377C08430D1F484EA90E235
:100910000E943A1B872D90E08093C1249093C224BB
:10092000E092B924F092BA240093542510935525EF
:100930008092CB249092CC2484E080938B235BC064
:100940008230D1F488EB90E20E943A1B872D90E030
:100950008093CD249093CE24E092CF24F092D024A3
:100960000093BD241093BE248092BB249092BC249B
:1009700082E080938B233FC08330D1F482EC90E2FD
:100980000E943A1B872D90E08093AE249093AF2471
:10099000E092BF24F092C02400935625109357256F
:1009A0008092C3249092C42483E080938B2323C03D
:1009B000853009F581ED90E20E943A1B872D90E089
:1009C0008093B7249093B824E0925A25F0925B2547
:1009D0000093C9241093CA248092A8249092A92439
:1009E000A092B024B092B124C092C724D092C8245F
:1009F00085E080938B23DF91CF911F910F91FF9022
:100A0000EF90DF90CF90BF90AF909F908F907F90AE
:100A10000895CF93DF93EC0181EE90E20E943A1BA0
:100A200020E030E0A901BE0185E00E942D03DF91A6
:100A3000CF910895CF93DF93EC0186EF90E20E946F
:100A40003A1B20E030E0A901BE0181E00E942D03A5
:100A5000DF91CF910895CF93DF93EC018AE091E28B
:100A60000E943A1B20E030E0A901BE0184E00E9410
:100A70002D03DF91CF910895CF93DF93EC0185E2B1
:100A800091E20E943A1B20E030E0A901BE0182E021
:100A90000E942D03DF91CF910895CF93DF93EC0156
:100AA00080E391E20E943A1B20E030E0A901BE0100
:100AB00083E00E942D03DF91CF9108958091D1248E
:100AC000813F41F48091D324873021F48091D62452
:100AD000809353250895CF938091080680FD15C01B
:100AE0000E946303C82F8823A9F08091AC2483302F
:100AF00039F48091D1248B3F51F40E94FB030AC04A
:100B0000823039F40E945E0505C0C0E003C0C0E039
:100B100001C0C0E08C2FCF910895CF92DF92EF9269
:100B2000FF92CF93C62FBC01990F880B990B0E949F
:100B300047126B017C016C2F70E071956195710912
:100B4000072E000C880B990B0E9447129B01AC01E9
:100B500060E070E080E090E40E9440139B01AC01F3
:100B6000C701B6010E94D312CF91FF90EF90DF90A2
:100B7000CF90089560910620809151259091522543
:100B80000E948D0508956091062080915C259091CA
:100B90005D250E948D050895609106208091C524F1
:100BA0009091C6240E948D05089560910420809143
:100BB000B9249091BA240E948D0508956091042073
:100BC00080915425909155250E948D05089560913E
:100BD00004208091CB249091CC240E948D0508950F
:100BE0008091C1240895609102208091CF2490913A
:100BF000D0240E948D050895609102208091BD242B
:100C00009091BE240E948D050895609102208091EC
:100C1000BB249091BC240E948D0508956091002012
:100C20008091BF249091C0240E948D050895609109
:100C3000002080915625909157250E948D0508959A
:100C4000609100208091C3249091C4240E948D055E
:100C5000089560910A2080915A2590915B250E9409
:100C60008D05089560910A208091C9249091CA242D
:100C70000E948D05089560910A208091A82490918A
:100C8000A9240E948D05089560910A208091B024C6
:100C90009091B1240E948D05089560910820809163
:100CA000C7249091C8240E948D05089580916806FC
:100CB00080FF0CC081E08093B62483E491E29F938F
:100CC0008F930E94261B0F900F9008951092B624C8
:100CD00085E591E29F938F930E94261B0F900F90C2
:100CE00008950E94B803882319F00E94560681E0F7
:100CF0000895CF92DF92EF92FF920F931F93CF93BD
:100D0000DF9380918B23813009F043C0809182234F
:100D10008F5F809382230E94BA05C62FD72F182F8A
:100D2000092F0E94C305F62EE72ED82EC92E0E9449
:100D3000CC05209159252F93209158252F939F93CF
:100D40008F937F936F93CF92DF92EF92FF920F93E7
:100D50001F93DF93CF9385E691E29F938F930E9439
:100D6000261B809168062DB73EB7205F3F4F2DBFF1
:100D70003EBF80FF0EC08091582590915925029763
:100D8000029738F4809182238D3318F081E08093AC
:100D90008323DF91CF911F910F91FF90EF90DF9010
:100DA000CF900895CF92DF92EF92FF920F931F930F
:100DB000CF93DF9380918B23823009F043C08091E1
:100DC00081238F5F809381230E94F305C62FD72F45
:100DD000182F092F0E94FC05F62EE72ED82EC92EBB
:100DE0000E9405062091CE242F932091CD242F938D
:100DF0009F938F937F936F93CF92DF92EF92FF92A7
:100E00000F931F93DF93CF9385E691E29F938F9388
:100E10000E94261B809168062DB73EB7205F3F4F8A
:100E20002DBF3EBF80FF0EC08091CD249091CE2477
:100E30000297029738F4809181238F3118F082E075
:100E400080938323DF91CF911F910F91FF90EF90BB
:100E5000DF90CF900895CF92DF92EF92FF920F93A1
:100E60001F93CF93DF9380918B23833009F043C08E
:100E7000809180238F5F809380230E940E06C62F6F
:100E8000D72F182F092F0E941706F62EE72ED82EDF
:100E9000C92E0E9420062091AF242F932091AE24CA
:100EA0002F939F938F937F936F93CF92DF92EF92C5
:100EB000FF920F931F93DF93CF9385E691E29F9369
:100EC0008F930E94261B809168062DB73EB7205F46
:100ED0003F4F2DBF3EBF80FF0EC08091AE2490914A
:100EE000AF240297029738F4809180238D3318F055
:100EF00083E080938323DF91CF911F910F91FF9027
:100F0000EF90DF90CF90089580918323811102C0EC
:100F10000E94790680918323813011F40E94D206C9
:100F200080918323823011F40E942B070895CF9281
:100F3000DF92EF92FF920F931F93CF93DF93CDB782
:100F4000DEB72A97CDBFDEBFDC012C912E3259F0DF
:100F5000222359F0FC013196AF0121912E3231F05C
:100F60002111FACF03C0AC0101C0AC01DA01129724
:100F70008A179B07D9F0FC0100E010E0C801880F38
:100F8000991FB801660F771F660F771F660F771FCF
:100F9000680F791F8191680F711D8B010053110932
:100FA000AE17BF0759F7DA01129702C000E010E050
:100FB0008C91882381F0AE014F5F5F4FFD01319628
:100FC00020E030E02F5F3F4FDA018D93AD0181913A
:100FD0008111F8CF02C020E030E0E1E0F0E0EC0F5A
:100FE000FD1FE20FF31F1082CE0101960E94E1194E
:100FF00020E030E040E752E40E94A4116B017C0144
:10100000B801110F880B990B0E9447129B01AC018C
:10101000C701B6010E9438112A96CDBFDEBFDF910D
:10102000CF911F910F91FF90EF90DF90CF90089597
:101030000F931F93CF93DF93CDB7DEB76C97CDBFE0
:10104000DEBFFE0131968CE1DF011D928A95E9F742
:101050008EE595E289839A838DE695E28B839C8366
:101060008CE795E28D839E838BE895E28F8398874A
:101070008AE995E289879A8789EA95E28B879C8736
:1010800088EB95E28D879E8787EC95E28F87988B1A
:1010900086ED95E2898B9A8B85EE95E28B8B9C8B06
:1010A00084EF95E28D8B9E8B83E096E28F8B988FF9
:1010B00082E196E2898F9A8FBF018E01055E1F4FF4
:1010C00020E030E04CE853E220C02F5F3F4FAF01FB
:1010D0008D9381918C3239F0882329F02F3031059E
:1010E00011F08A3291F7DB01ED91FD91BD01E20F24
:1010F000F31F1082FA0180818C3221F44F5F5F4F21
:1011000020E030E06017710799F0DA018C918C32A1
:1011100051F3882341F32F3031052CF78A3219F32C
:10112000FB01A081B181A20FB31FFA013196CDCF8F
:101130006C96CDBFDEBFDF91CF911F910F910895C7
:101140000E94E11926E53EE04DEE5FE30E94D312D6
:1011500008958091B825873529F489EA95E20E949F
:10116000970704C089EA95E20E94970780919A2523
:10117000833529F48BE895E20E94970704C08BE839
:1011800095E20E94970787EC95E20E94A00822E171
:1011900036E23F932F9323E036E23F932F9324EFE1
:1011A00035E23F932F9325EE35E23F932F9326EDC3
:1011B00035E23F932F939F938F937F936F9388EBA9
:1011C00095E29F938F9389EA95E29F938F938AE9A3
:1011D00095E29F938F938BE895E29F938F938CE793
:1011E00095E29F938F938DE695E29F938F938EE583
:1011F00095E29F938F9388EB91E29F938F930E9448
:10120000261B8DEE91E20E943A1B8DB79EB74E963B
:101210008DBF9EBF0895EF92FF920F931F93CF93C0
:10122000DF931F921F92CDB7DEB7F12C0CE813E2CB
:101230000F2EF4E2EF2EF02D21C00E9434028432F2
:1012400021F4F801E082118219C0F80190819432F2
:10125000A9F401900020E9F73197EC58F342E23508
:1012600068F4FF27DF01A457BC4D8C93E357FC4D76
:101270001082FF24F3948A3009F0F12C0E94290295
:10128000882319F0FF20C9F203C0FF2009F441C0F0
:1012900046E050E06FEE71E28CE893E20E94D11AD2
:1012A000892B49F490918D239A3099F19A3271F4F7
:1012B00010E081E01EC046E050E066EF71E28CE88D
:1012C00093E20E94D11A892B69F323C010E081E0D8
:1012D0008F5F1927E82FF0E0E457FC4D90819A309A
:1012E000C1F09A32A9F705C00E9418080E94A90807
:1012F00010C08F5F90E040E150E0BE016F5F7F4F14
:1013000084579C4D0E94B318212F30E026173707D1
:1013100059F30F900F90DF91CF911F910F91FF9094
:10132000EF9008954F925F926F927F928F929F926B
:10133000AF92BF92CF92DF92EF92FF920F931F93E3
:10134000CF93DF93EC014C805D806E807F80C884FA
:10135000D984EA84FB8405E516E2A3019201C30166
:10136000B2010E94D3129B01AC010E9438119B0173
:10137000AC0160E070E080E89FE30E9437114B0110
:101380005C01A7019601C701B6010E94D3129B011F
:10139000AC010E9438119B01AC01C501B4010E944F
:1013A0003711F80160837183828393836C857D8517
:1013B0008E859F859B01AC010E9438114B015C0119
:1013C000688179818A819B819B01AC010E943811DF
:1013D000A30192010E94D3122B013C01A5019401AB
:1013E000C701B6010E94D3129B01AC01C301B20137
:1013F0000E943811F801648375838683978368811E
:1014000079818A819B819B01AC010E943811A701DF
:1014100096010E94D3126B017C012C813D814E818B
:101420005F81C501B4010E94D3129B01AC01C701C9
:10143000B6010E943711F801608771878287938710
:10144000688179818A819B819B01AC010E9438115E
:101450002C813D814E815F810E94D3126B017C0102
:10146000288539854A855B85C501B4010E94D31260
:101470009B01AC01C701B6010E943711F8016487D6
:10148000758786879787688179818A819B8188841F
:101490009984AA84BB849B01AC010E94D3129B0156
:1014A000AC010E9438119B01AC0160E070E080E863
:1014B0009FE30E9437116B017C01A5019401C501D6
:1014C000B4010E94D3129B01AC010E9438119B0110
:1014D000AC01C701B6010E943711F801608B718B16
:1014E000828B938B6C817D818E819F819B01AC016E
:1014F0000E943811288539854A855B850E94D31260
:101500006B017C016C857D858E859F859B01AC017F
:101510000E943811288139814A815B810E94D3124F
:101520009B01AC01C701B6010E943811F801648B20
:10153000758B868B978B688179818A819B819B01D2
:10154000AC010E943811288539854A855B850E9447
:10155000D3126B017C016C857D858E859F859B01F7
:10156000AC010E9438112C813D814E815F810E9427
:10157000D3129B01AC01C701B6010E943811F801DA
:10158000608F718F828F938F6C817D818E819F811F
:101590009B01AC010E943811288539854A855B85FD
:1015A0000E94D3126B017C016C857D858E859F85A1
:1015B0009B01AC010E943811288139814A815B81ED
:1015C0000E94D3129B01AC01C701B6010E943711E2
:1015D000F801648F758F868F978F688179818A81F2
:1015E0009B81CC80DD80EE80FF809B01AC010E945E
:1015F000D3129B01AC010E9438119B01AC0160E049
:1016000070E080E89FE30E9437114B015C01A70165
:101610009601C701B6010E94D3129B01AC010E9442
:1016200038119B01AC01C501B4010E943711F801CA
:1016300060A371A382A393A3DF91CF911F910F9118
:10164000FF90EF90DF90CF90BF90AF909F908F90E2
:101650007F906F905F904F9008954F925F926F923E
:101660007F928F929F92AF92BF92CF92DF92EF9232
:10167000FF920F931F93CF93DF93CDB7DEB76097A1
:10168000CDBFDEBF982E892E5B01E12CF12C65C009
:10169000E416F506D1F008171907B9F0F901EE0FB5
:1016A000FF1FEE0FFF1F66246394712C6C0E7D1ECE
:1016B000E60DF71D4D905D906D907C9013974082E4
:1016C0005182628273822F5F3F4F0196149683305E
:1016D0009105F1F64F5F5F4F645F7F4F43305105D7
:1016E00021F0DB0180E090E0D3CF2D853E854F8552
:1016F000588969817A818B819C810E94D3122B0148
:101700003C0129853A854B855C856D817E818F8181
:1017100098850E94D3129B01AC01C301B2010E94C3
:101720003711F60161937193819391936F010F5F6C
:101730001F4F0330110539F0692D782D40E050E03E
:1017400020E030E0CECFFFEFEF1AFF0A8CE0A80ECA
:10175000B11CE3E0EE16F10421F0650100E010E0B9
:10176000EBCF6096CDBFDEBFDF91CF911F910F9180
:10177000FF90EF90DF90CF90BF90AF909F908F90B1
:101780007F906F905F904F900895CF92DF92EF928D
:10179000FF920F931F93CF93DF93EC016C0184E2D0
:1017A000C80ED11C01E010E01DC0B801012E000CD4
:1017B000880B990B0E9447129B01AC0168817981CB
:1017C0008A819B810E94D31269937993899399931B
:1017D000119501951109CE15DF0539F7E701CE14F2
:1017E000DF0429F07E018CE0E80EF11CDECFDF91F2
:1017F000CF911F910F91FF90EF90DF90CF900895C0
:101800004F925F926F927F928F929F92AF92BF9210
:10181000CF92DF92EF92FF92CF93DF93CDB7DEB7F7
:101820006297CDBFDEBF898B9A8BDC0150968D907D
:101830009D90AD90BC90539790964D905D906D901B
:101840007C9093975C968D919D910D90BC91A02D6D
:101850008D839E83AF83B887A989BA8954968D9169
:101860009D910D90BC91A02D89879A87AB87BC87ED
:10187000E989FA89C484D584E684F784808D918DC2
:10188000A28DB38D8D879E87AF87B88BA301920100
:10189000C501B4010E94D31269837A838B839C8330
:1018A00029853A854B855C856D817E818F81988500
:1018B0000E94D3129B01AC0169817A818B819C814A
:1018C0000E943711E989FA8920813181428153814F
:1018D0000E94D31269837A838B839C83A70196012C
:1018E000C301B2010E94D3122B013C012D853E851C
:1018F0004F85588969857A858B859C850E94D3128E
:101900009B01AC01C301B2010E943711A989BA89B8
:1019100014962D913D914D915C9117970E94D31291
:101920009B01AC0169817A818B819C810E94371176
:101930002B013C01A70196016D817E818F819885E5
:101940000E94D3126B017C012D853E854F855889FD
:10195000C501B4010E94D3129B01AC01C701B601BD
:101960000E943711E989FA8920853185428553859E
:101970000E94D3129B01AC01C301B2010E94381135
:101980006296CDBFDEBFDF91CF91FF90EF90DF90E9
:10199000CF90BF90AF909F908F907F906F905F900F
:1019A0004F9008956F927F928F929F92AF92BF92C5
:1019B000CF92DF92EF92FF920F931F93CF93DF931B
:1019C000CDB7DEB7A497CDBFDEBFFC018E010F5FA0
:1019D0001F4F6E0125E2C20ED11CB8017C011DC053
:1019E000D3018D909D90AD90BC90DA018D929D9227
:1019F000AD92BD92AD0121503109BCE06B0E711C5E
:101A00002115310569F724E0E20EF11C645F7F4F78
:101A10006C157D0511F4849616C0AB01370123E0E7
:101A200030E0DECF4D915D916D917D914193519369
:101A300061937193E217F307A9F7045F1F4FF90150
:101A40008217930729F09F01245F3F4FD801EACF07
:101A5000A496CDBFDEBFDF91CF911F910F91FF9074
:101A6000EF90DF90CF90BF90AF909F908F907F903E
:101A70006F9008954F925F926F927F92AF92BF9254
:101A8000CF92DF92EF92FF920F931F93CF93DF934A
:101A90005C01062F172F60E070E080E89FE30E9452
:101AA000A4112B013C01E501C02ED12E84E2A80E29
:101AB000B11C18C02991399149915991C301B201C2
:101AC0000E94D312F80161937193819391938F01D6
:101AD000CE15DF0579F7FCE0CF0ED11CE701AE147F
:101AE000BF0431F07E018CE0E80EF11C8601E2CFEC
:101AF000DF91CF911F910F91FF90EF90DF90CF90EA
:101B0000BF90AF907F906F905F904F9008958F92AD
:101B10009F92AF92BF92CF92DF92EF92FF920F937C
:101B20001F93CF93DF93882E992EFA011082118292
:101B300012821382148215821682178210861186F1
:101B400012861386EB018A015B0184E2A80EB11CA8
:101B500023C06991799189919991F70121913191EE
:101B6000419151917F010E94D3129B01AC01F80178
:101B700060817181828193810E943811F8016083B4
:101B8000718382839383CC15DD0519F70C5F1F4F9A
:101B9000E601AC14BD0439F0E82CF92C6E01FCE030
:101BA000CF0ED11CD6CFDF91CF911F910F91FF9017
:101BB000EF90DF90CF90BF90AF909F908F9008955F
:101BC0008F929F92AF92BF92EF92FF920F931F93CB
:101BD000CF93DF93CDB7DEB7C854D109CDBFDEBFF9
:101BE0008C017B01BE016B5D7F4F85E596E20E9413
:101BF0002D0BCE0185960E94C50B85E596E20E94CD
:101C0000000C4B015C01CE0185960E94D20CA5010F
:101C10009401BE016F5F7F4FCE0185960E943A0D01
:101C2000A701BE016F5F7F4FC8010E94870DC85B8F
:101C3000DF4FCDBFDEBFDF91CF911F910F91FF909E
:101C4000EF90BF90AF909F908F9008958091412426
:101C500090914024891710F0891B08958C59891B95
:101C60000895CF93C09140240E94260E8823E1F36B
:101C7000EC2FF0E0E452FC4D808191E09C0F943613
:101C800008F090E090934024CF9108950E94310E87
:101C900090E008952091A72491E0920F8091A624CE
:101CA000943610F09DE9920F891710F0891B089562
:101CB0008C59891B08950F931F93CF93DF93D82FCF
:101CC00000EA1BE0C1E202C0F801C3830E944A0E91
:101CD0008823D1F38091A724E82FF0E0EE5BFB4D41
:101CE000D0838F5F843608F080E0E0EAF0E09281F4
:101CF000292F2E7F22838093A72481E28093A30B38
:101D00009283DF91CF911F910F910895CF93DF932D
:101D1000D82FCFEF03C0CC2391F0C1500E944A0EC0
:101D20008823C9F3CC2371F0DA3019F48DE00E94D6
:101D30005B0E8D2F0E945B0E80E090E005C081E07D
:101D400090E002C081E090E0DF91CF9108954F9242
:101D50005F926F927F928F929F92AF92BF92EF921B
:101D6000FF920F931F93CF934B015C0107E010E0AC
:101D7000C9EFEE24E394F12CCC2354F5C501B40152
:101D80000E94451220E030E041EE59E40E94A41187
:101D900020E030E040E85FE30E9437112B013C0176
:101DA000B701002E02C0660F771F0A94E2F7072ED4
:101DB000000C880B990B0E9447129B01AC01C301D8
:101DC000B2010E94D3120E9490130E9416122CC0DE
:101DD000C501B4010E94451220E030E041EE59E413
:101DE0000E94A4112B013C0188279927801B910B8D
:101DF000B70102C0660F771F8A95E2F7072E000C25
:101E0000880B990B0E9447129B01AC01C301B201E0
:101E10000E94A41120E030E040E85FE30E94371107
:101E20000E9490130E9416126115704138F0CF5F26
:101E300001501109C83009F09FCF31C0CC237CF587
:101E4000C501B4010E94451220E030E041EE59E4A2
:101E50000E94A41120E030E040E85FE30E943711C7
:101E60004B015C012C2F332721950CF4309561E058
:101E700070E002C0660F771F2A95E2F7072E000C6C
:101E8000880B990B0E9447129B01AC01C501B4015C
:101E90000E94D3120E9490130E9416122AC0C501FC
:101EA000B4010E94451220E030E041EE59E40E9466
:101EB000A4114B015C0161E070E00C2E02C0660FC2
:101EC000771F0A94E2F7072E000C880B990B0E94EB
:101ED00047129B01AC01C501B4010E94A41120E08E
:101EE00030E040E85FE30E9437110E9490130E94A7
:101EF0001612E0EAF6E088E1828B98E09583918300
:101F000094E09283E0EAFBE066837F70C295C07F35
:101F1000C72BC783848380E28383E0EAF0E0828179
:101F200083608283E9E7F6E28CE090E2808391832C
:101F300082839383CF911F910F91FF90EF90BF9079
:101F4000AF909F908F907F906F905F904F9008958B
:101F50001F920F920FB60F9211240BB60F928F9310
:101F60009F93EF93FF9380914124E82FF0E09091AD
:101F7000A00BE452FC4D90838F5F843608F080E024
:101F800090914024891380934124FF91EF919F9178
:101F90008F910F900BBE0F900FBE0F901F90189552
:101FA0001F920F920FB60F9211240BB60F922F9320
:101FB0008F939F93EF93FF938091A6249091A724F2
:101FC000891769F0E82FF0E0EE5BFB4D208120934C
:101FD000A00B8F5F843608F080E0891304C080E294
:101FE0008093A30B892F8093A624FF91EF919F915B
:101FF0008F912F910F900BBE0F900FBE0F901F90DF
:102000001895E0E6F6E080EB818380E4828380E14E
:10201000868B85838CE58093C00908958093C309DE
:10202000E0ECF9E082818823ECF78091C309089500
:10203000CF92DF92EF92FF920F931F93CF93DF9394
:10204000CDB7DEB7A897CDBFDEBFE0E6F6E084E00F
:102050008183858360E874E88EE190E00E94A70E9A
:102060000E941702E0EAF0E0828181608283789426
:102070000E947106882309F4ECC08091B624813057
:10208000F1F484E00E94F70284E690E00E941A05D1
:1020900084E690E00E943C0584E690E00E944D05B5
:1020A0000F2EFDEFEF2EF1E2FF2EF02D0BE212E2EC
:1020B0000F2EF9E4CF2EF2E2DF2EF02DBBC08111FE
:1020C000EFCF84E690E00E942B0582E390E00E942F
:1020D0000905E6CF0E940B090E946B05882309F4CD
:1020E000A9C080918B23843009F057C00E94D50588
:1020F00069837A838B839C830E94DE056D837E8354
:102100008F8398870E94E70569877A878B879C87EA
:102110000E94F0051F928F938C858F938B858F93F0
:102120008A858F9389858F9388858F938F818F93ED
:102130008E818F938D818F938C818F938B818F93E1
:102140008A818F9389818F93FF92EF920E94261B41
:10215000BE01635F7F4FCE0101960E94E00D888D26
:102160008F938F898F938E898F938D898F938C898D
:102170008F938B898F938A898F9389898F9388898D
:102180008F938F858F938E858F938D858F931F93DC
:102190000F930E94261BCDBFDEBF80918B2385301D
:1021A00009F048C00E942906698F7A8F8B8F9C8F17
:1021B0000E9432066D8F7E8F8F8F98A30E943B0600
:1021C00069A37AA38BA39CA30E9444066DA37EA35C
:1021D0008FA398A70E944D069F938F937F936F9331
:1021E00088A58F938FA18F938EA18F938DA18F93AD
:1021F0008CA18F938BA18F938AA18F9389A18F93A9
:1022000088A18F938F8D8F938E8D8F938D8D8F93CC
:102210008C8D8F938B8D8F938A8D8F93898D8F93D8
:10222000DF92CF920E94261BCE0149960E9492090E
:10223000CDBFDEBF8091B624882309F44BCF05C003
:102240000E946B0581110E9484078091B624813021
:10225000B9F380E090E0A896CDBFDEBFDF91CF91CB
:102260001F910F91FF90EF90DF90CF9008955058FD
:10227000BB27AA270E944F110C9499120E948B121F
:1022800038F00E94921220F039F49F3F19F426F49E
:102290000C9488120EF4E095E7FB0C948212E92F5F
:1022A0000E94AA1258F3BA176207730784079507AA
:1022B00020F079F4A6F50C94CC120EF4E0950B2ED8
:1022C000BA2FA02D0B01B90190010C01CA01A00188
:1022D0001124FF27591B99F0593F50F4503E68F1E3
:1022E0001A16F040A22F232F342F4427585FF3CF24
:1022F000469537952795A795F0405395C9F77EF4F5
:102300001F16BA0B620B730B840BBAF09150A1F03D
:10231000FF0FBB1F661F771F881FC2F70EC0BA0FC3
:10232000621F731F841F48F4879577956795B7954B
:10233000F7959E3F08F0B0CF9395880F08F0992746
:10234000EE0F9795879508950E94B8110C949912F5
:102350000E94921258F00E948B1240F029F45F3FC5
:1023600029F00C94821251110C94CD120C94881205
:102370000E94AA1268F39923B1F3552391F3951B98
:10238000550BBB27AA2762177307840738F09F5F96
:102390005F4F220F331F441FAA1FA9F335D00E2E03
:1023A0003AF0E0E832D091505040E695001CCAF770
:1023B0002BD0FE2F29D0660F771F881FBB1F261733
:1023C00037074807AB07B0E809F0BB0B802DBF010A
:1023D000FF2793585F4F3AF09E3F510578F00C94D9
:1023E00082120C94CD125F3FE4F3983ED4F38695AD
:1023F00077956795B795F7959F5FC9F7880F911DFA
:102400009695879597F90895E1E0660F771F881FE5
:10241000BB1F621773078407BA0720F0621B730B98
:10242000840BBA0BEE1F88F7E09508950E94B21254
:1024300088F09F5798F0B92F9927B751B0F0E1F085
:10244000660F771F881F991F1AF0BA95C9F714C035
:10245000B13091F00E94CC12B1E008950C94CC12EE
:10246000672F782F8827B85F39F0B93FCCF386956E
:1024700077956795B395D9F73EF4909580957095CB
:1024800061957F4F8F4F9F4F0895E89409C097FB48
:102490003EF490958095709561957F4F8F4F9F4F3B
:1024A0009923A9F0F92F96E9BB279395F69587957F
:1024B00077956795B795F111F8CFFAF4BB0F11F442
:1024C00060FF1BC06F5F7F4F8F4F9F4F16C08823E9
:1024D00011F096E911C0772321F09EE8872F762F1F
:1024E00005C0662371F096E8862F70E060E02AF060
:1024F0009A95660F771F881FDAF7880F969587954C
:1025000097F9089597F99F6780E870E060E0089573
:102510009FEF80EC089500240A94161617061806FB
:102520000906089500240A941216130614060506D7
:102530000895092E0394000C11F4882352F0BB0F68
:1025400040F4BF2B11F460FF04C06F5F7F4F8F4FCB
:102550009F4F089557FD9058440F551F59F05F3F06
:1025600071F04795880F97FB991F61F09F3F79F0B5
:1025700087950895121613061406551FF2CF469537
:10258000F1DF08C0161617061806991FF1CF8695B9
:102590007105610508940895E894BB27662777279D
:1025A000CB0197F908950E94E6120C9499120E94AB
:1025B0008B1238F00E94921220F0952311F00C94A7
:1025C00082120C94881211240C94CD120E94AA122B
:1025D00070F3959FC1F3950F50E0551F629FF00176
:1025E000729FBB27F00DB11D639FAA27F00DB11D8F
:1025F000AA1F649F6627B00DA11D661F829F222718
:10260000B00DA11D621F739FB00DA11D621F839F9E
:10261000A00D611D221F749F3327A00D611D231F74
:10262000849F600D211D822F762F6A2F11249F57C2
:1026300050409AF0F1F088234AF0EE0FFF1FBB1FC5
:10264000661F771F881F91505040A9F79E3F510584
:1026500080F00C9482120C94CD125F3FE4F3983E0C
:10266000D4F3869577956795B795F795E7959F5F2E
:10267000C1F7FE2B880F911D9695879597F90895C0
:10268000FA01EE0FFF1F309621053105A1F161150A
:10269000710561F48038BFE39B0749F16894903875
:1026A000810561F08038BFEF9B0741F099234AF51F
:1026B000FF3FE1053105210519F1E8940894E795FC
:1026C000D901AA2329F4AB2FBE2FF85FD0F310C095
:1026D000FF5F70F4A695E0F7F73950F019F0FF3A74
:1026E00038F49F779F930DD00F9007FC9058089572
:1026F00046F00C94881260E070E080E89FE3089553
:102700004FE79F775F934F933F932F930E948814D7
:102710002F913F914F915F910E94D3120C94BC1363
:102720000E94B212E8F09E37E8F09639B8F49E386D
:1027300048F4672F782F8827985FF9CF869577958B
:10274000679593959539D0F3B62FB1706B0F711DC6
:10275000811D20F487957795679593950C94EE13DA
:102760000C9409140C94CD1229F416F00C948212D6
:102770000C94CC120C9488120E94B212A8F39638D2
:10278000A0F707F80F92E8942BE33AEA48EB5FE7EB
:102790000E94E9120F920F920F924DB75EB70F92FF
:1027A0000E94D014ECEFF1E00E9417144F915F915A
:1027B000EF91FF91E595EE1FFF1F49F0FE57E0688E
:1027C0004427EE0F441FFA95E1F74195550B0E94FF
:1027D0004A140F9007FE0C943E140895882371F458
:1027E000772321F09850872B762F07C0662311F4AA
:1027F00099270DC09051862B70E060E02AF09A95E1
:10280000660F771F881FDAF7880F9695879597F9D7
:1028100008959F3F31F0915020F487957795679503
:10282000B795880F911D9695879597F90895DF9331
:10283000CF931F930F93FF92EF92DF927B018C0156
:10284000689406C0DA2EEF010E94E612FE01E894B9
:10285000A5912591359145915591A6F3EF010E94DF
:102860004F11FE019701A801DA9469F7DF90EF900C
:10287000FF900F911F91CF91DF9108959B01AC01C3
:1028800060E070E080E89FE30C94A4110C94821245
:102890000C9409140E94B212D8F39923C9F3940F2F
:1028A000511DA3F39150504094F059F0882332F019
:1028B000660F771F881F91505040C1F79E3F51050A
:1028C0002CF7880F911D9695879597F908955F3F8E
:1028D000ACF0983E9CF0BB27869577956795B795A9
:1028E00008F4B1609395C1F7BB0F58F711F460FF7E
:1028F000E8CF6F5F7F4F8F4F9F4FE3CF0C94CD1288
:1029000016F00C9409140C94881268940C9482129A
:102910000E94B212A8F39923C1F3AEF3DF93CF93D1
:102920001F930F93FF92C92FDD2788232AF0219749
:10293000660F771F881FDAF720E030E040E85FEB92
:102940009FE3883920F0803E38F021968F770E94EF
:102950003811E4E2F2E004C00E943811E1E5F2E04F
:102960000E9417148B01BE01EC01FB2E6F577109F9
:102970007595771F880B990B0E94471228E132E763
:1029800041E35FE30E94E612AF2D9801AE01FF9094
:102990000F911F91CF91DF910E944F110C949912CA
:1029A000FA01DC01AA0FBB1F9B01AC01BF5728F441
:1029B000222733274427507820C0B75190F4AB2FFB
:1029C0000024469537952795011CA395D2F3002046
:1029D00071F0220F331F441FB395DAF30ED00C941D
:1029E000371161307105A0E88A07B94630F49B01C0
:1029F000AC016627772788279078309621F02083CE
:102A000031834283538308952F923F924F925F9276
:102A10006F927F928F929F92AF92BF92CF92DF92EE
:102A2000EF92FF920F931F93CF93DF93CDB7DEB753
:102A30006097CDBFDEBF7C011B016A01FC011682DD
:102A40001782838181FF44C39E012F5F3F4F39016D
:102A5000F7019381F10193FD859193FF81911F010E
:102A6000882309F431C3853239F493FD859193FFAE
:102A700081911F01853239F4B70190E00E94EA1A72
:102A800056016501E5CF10E0512C912CFFE1F915BD
:102A9000D8F08B3279F038F4803279F08332A1F4B7
:102AA000F92DF0612EC08D3261F0803369F4292D4B
:102AB00021602DC0392D3260932E892D8460982E8F
:102AC0002AC0E92DE86015C097FC2DC020ED280F25
:102AD0002A3088F496FE06C03AE0139F200D112498
:102AE000122F19C08AE0589E200D1124522EE92D74
:102AF000E0629E2E10C08E3231F496FCE5C2F92DB4
:102B0000F0649F2E08C08C3621F4292D2068922E67
:102B100002C0883641F4F10193FD859193FF8191C4
:102B20001F018111B3CF9BEB980F933020F4992DA7
:102B30009061805E07C09BE9980F933008F066C1F2
:102B4000992D9F7E96FF16E09F73992E853619F476
:102B50009064992E08C0863621F4392F3068932E60
:102B600002C01111115097FE07C01C3350F44424C9
:102B70004394410E27E00BC0183038F027E017E0EF
:102B800005C027E09CE3492E02C0212F412C5601AD
:102B900084E0A80EB11CF60160817181828193816D
:102BA000042DA3010E94E5196C01F981FC87F0FF57
:102BB00002C0F3FF06C091FC06C092FE06C000E210
:102BC00005C00DE203C00BE201C000E08C858C70F3
:102BD00019F001115AC29BC297FE10C04C0CFC8523
:102BE000F4FF04C08A81813309F44A94141474F503
:102BF00028E0241578F588E0482E2CC096FC2AC0E1
:102C0000812F90E08C159D059CF03CEFC3163FEFA3
:102C1000D30674F0892D8068982E0AC0E2E0F0E0B7
:102C2000EC0FFD1FE10FF11D8081803319F411506D
:102C30001111F4CF97FE0EC044244394410E812F0E
:102C400090E0C816D9062CF41C1904C044244394FF
:102C500001C010E097FE06C01C141D0434F4C60128
:102C6000019605C085E090E002C081E090E001118E
:102C70000196112331F0212F30E02F5F3F4F820F5B
:102C8000931F252D30E08217930714F4581A01C0C2
:102C9000512C892D897049F4552039F0B70180E213
:102CA00090E00E94EA1A5A94F7CF002329F0B70166
:102CB000802F90E00E94EA1A93FC09C0552039F059
:102CC000B70180E390E00E94EA1A5A94F7CF97FE8A
:102CD0004CC04601D7FE02C0812C912CC601881938
:102CE0009909F301E80FF91FED87FE879601241972
:102CF00031092F87388B012F10E0119501951109AB
:102D00003FEF8316930629F4B7018EE290E00E940C
:102D1000EA1AC814D9044CF08F859889881599054A
:102D200024F4ED85FE85818101C080E3F1E08F1AF6
:102D300091082D853E852F5F3F4F2D873E8780165A
:102D400091062CF0B70190E00E94EA1AD9CFC8147E
:102D5000D90441F49A81963320F4953319F43C85D3
:102D600034FF81E3B70190E04EC08A81813319F0CE
:102D70009C859F7E9C87B70190E00E94EA1A111102
:102D800005C094FC18C085E690E017C0B7018EE23C
:102D900090E00E94EA1A1E5F82E001E0080FF30152
:102DA000E80FF11D8081B70190E00E94EA1A802FA0
:102DB0000113F3CFE6CF85E490E0B7010E94EA1A51
:102DC000D7FC06C0C114D10441F4EC85E4FF05C072
:102DD000D194C194D1088DE201C08BE2B70190E09B
:102DE0000E94EA1A80E32AE0C216D1042CF08F5F19
:102DF000FAE0CF1AD108F7CFB70190E00E94EA1AA3
:102E0000B701C601C0960E94EA1A54C1833631F058
:102E1000833779F0833509F056C020C0560132E07F
:102E2000A30EB11CF6018081898301E010E06301EB
:102E300012C05601F2E0AF0EB11CF601C080D18085
:102E400096FE03C0612F70E002C06FEF7FEFC601F6
:102E50000E94DF1A8C01F92DFF7714C0560122E081
:102E6000A20EB11CF601C080D18096FE03C0612F76
:102E700070E002C06FEF7FEFC6010E94C61A8C019E
:102E8000F92DF0689F2EF3FD1AC0852D90E00817EC
:102E90001907A8F4B70180E290E00E94EA1A5A9458
:102EA000F4CFF60197FC859197FE81916F01B701F0
:102EB00090E00E94EA1A51105A940150110901152C
:102EC000110579F7F7C0843611F0893661F556019E
:102ED00097FE09C024E0A20EB11CF6016081718149
:102EE000828193810AC0F2E0AF0EB11CF6016081CD
:102EF0007181072E000C880B990BF92DFF769F2E00
:102F000097FF09C090958095709561957F4F8F4F81
:102F10009F4FF0689F2E2AE030E0A3010E946A1BB9
:102F2000C82EC6183FC0092D853721F40F7E2AE030
:102F300030E01DC0097F8F3691F018F4883559F0C4
:102F4000C3C0803719F0883711F0BEC0006104FF9C
:102F500009C0046007C094FE08C0066006C028E0EF
:102F600030E005C020E130E002C020E132E056014F
:102F700007FF09C084E0A80EB11CF60160817181D1
:102F80008281938108C0F2E0AF0EB11CF60160812E
:102F9000718180E090E0A3010E946A1BC82EC618D0
:102FA0000F77902E96FE0BC0092D0E7FC11650F4A0
:102FB00094FE0AC092FC08C0092D0E7E05C0DC2CD0
:102FC000092D03C0DC2C01C0D12E04FF0DC0FE0171
:102FD000EC0DF11D8081803311F4097E09C002FFE0
:102FE00006C0D394D39404C0802F867809F0D3947C
:102FF00003FD11C000FF06C01C2DD51480F4150D73
:103000001D190DC0D51458F4B70180E290E00E945C
:10301000EA1AD394F7CFD51410F45D1801C0512CDF
:1030200004FF10C0B70180E390E00E94EA1A02FF9B
:1030300017C001FD03C088E790E002C088E590E07A
:10304000B7010CC0802F867859F001FF02C08BE2D7
:1030500001C080E207FD8DE2B70190E00E94EA1A0C
:10306000C11638F4B70180E390E00E94EA1A1150CB
:10307000F7CFCA94F301EC0DF11D8081B70190E008
:103080000E94EA1AC110F5CF15C0F4E0F51560F5FD
:1030900084E0581A93FE1FC0011127C02C8523FF1E
:1030A0002AC006E812E0392D3071932EF801849180
:1030B000811124C0552009F4E4CCB70180E290E0EE
:1030C0000E94EA1A5A94F6CFF7018681978126C0AA
:1030D0008FEF9FEF23C0B70180E290E00E94EA1AD1
:1030E0005A945110F8CFD8CF512CB701802F90E0CF
:1030F0000E94EA1AD3CF0AE812E0D5CF911080528D
:10310000B70190E00E94EA1A0F5F1F4FCFCF23E074
:10311000251510F483E0BDCF512CC0CF6096CDBFF4
:10312000DEBFDF91CF911F910F91FF90EF90DF9065
:10313000CF90BF90AF909F908F907F906F905F9057
:103140004F903F902F900895A29FB001B39FC00170
:10315000A39F700D811D1124911DB29F700D811DC3
:103160001124911D08953F924F925F926F927F922A
:103170008F929F92AF92BF92CF92DF92EF92FF9287
:103180000F931F93CF93DF935C016B017A0161155D
:10319000710519F0FB0180839183E114F10429F09A
:1031A000C7010297839708F0E5C0E5012196F50174
:1031B0001081812F90E00E94BD1A892B11F05E01D1
:1031C000F4CF1D3229F42196F501118101E007C0E9
:1031D0001B3221F4E5012296F501118100E0E11492
:1031E000F10409F1F0E1EF16F10429F43FC010E316
:1031F000E114F10421F128E0E216F10401F154F4A4
:10320000E2E0EE16F10421F5812C912CA12CB0E422
:10321000BB2E3EC0FAE0EF16F10439F020E1E216D1
:10322000F104B1F430C0103319F1FAE0EF2EF12CB3
:10323000ACEC8A2E982CA82CACE0BA2E29C078E0F1
:10324000E72EF12C812C912CA12CE0E1BE2E20C088
:1032500060E070E080E090E897010F2C000C440BD8
:10326000550B0E94781D49015A0112C0103359F4C0
:1032700088818F7D883509F0BACF19812296026046
:1032800080E1E82EF12C812C912CA12C68E0B62E47
:1032900040E060E070E0CB0127010F2C000C6608D5
:1032A0007708FE0150ED352E310E29E0231570F41C
:1032B0002FEB210F2A3118F439EC332E06C02FE9F9
:1032C000210F2A3118F529EA322E310E232D30E054
:1032D0002E153F05DCF447FD16C086169706A80696
:1032E000B90670F0A30192010E94681D630D711D63
:1032F000811D911D61307105810520E8920710F054
:103300004FEF01C041E021961081CBCF202F2170DB
:10331000C114D10471F0442329F02197F601C08330
:10332000D18307C001FF19C02297F601C083D18362
:1033300014C047FF12C0222329F060E070E080E053
:1033400090E804C06FEF7FEF8FEF9FE722E230E05D
:1033500020937F263093802609C0222381F0909508
:103360008095709561957F4F8F4F9F4F462F372FD8
:10337000282F12C040E030E020E090E00DC097FF21
:10338000F5CF82E290E080937F26909380266FEFC6
:103390007FEF8FEF9FE7EACF642F732F822FDF91AC
:1033A000CF911F910F91FF90EF90DF90CF90BF9042
:1033B000AF909F908F907F906F905F904F903F90D5
:1033C0000895662777270C94C81B283008F027E05B
:1033D0003327DA01990F311D87FD91600096610551
:1033E000710539F432602E5F3D9330E32A95E1F7A1
:1033F00008959F3F30F080387105610509F03C5F0A
:103400003C5F3D93913008F08068911DDF93CF932E
:103410001F930F93FF92EF92192F987F9695E92FA4
:1034200096959695E90FFF27E851FD4F9927332789
:10343000EE24FF24A701E70105900894079428F4DF
:10344000360FE71EF81E491F511D660F771F881F94
:10345000991F0694A1F70590079428F4E70EF81E2B
:10346000491F561FC11D770F881F991F661F06949D
:10347000A1F70590079428F4F80E491F561FC71F9F
:10348000D11D880F991F661F771F0694A1F705901D
:10349000079420F4490F561FC71FD81F990F661FA6
:1034A000771F881F0694A9F784911095177041F033
:1034B000D695C79557954795F794E7941A95C1F710
:1034C000EEE8F2E06894159015913591659195912B
:1034D00005907FE27395E118F10A430B560BC90B77
:1034E000D009C0F7E10CF11E431F561FC91FD01DA4
:1034F0007EF4703311F48A95E6CFE894015030F0F1
:10350000080F0AF40027021708F4202F2395022F32
:103510007A3328F079E37D932A95E9F710C07D93FB
:103520002A9589F606949795679537951795179478
:10353000E118F10A430B560BC90BD00998F02395FB
:103540007E9173957A3308F070E37C932013B8F77B
:103550007E9170617D9330F0839571E37D9370E38C
:103560002A95E1F71124EF90FF900F911F91CF91D1
:10357000DF91992787FD9095089591110C94241D52
:10358000803219F089508550C8F70895FC010590E4
:10359000615070400110D8F7809590958E0F9F1F55
:1035A0000895FB01DC014150504030F08D910190B5
:1035B000801919F40020B9F7881B990B0895FC01B4
:1035C0006150704001900110D8F7809590958E0F52
:1035D0009F1F08950F931F93CF93DF93FB012381C8
:1035E00021FD03C08FEF9FEF2CC022FF16C0468144
:1035F0005781248135814217530744F4A081B1815A
:103600009D012F5F3F4F208331838C93268137812B
:103610002F5F3F4F2683378314C08B01EC01FB01E2
:103620000084F185E02D1995892BE1F6D8011696D5
:103630008D919C911797019616968D939C93179751
:10364000CE01DF91CF911F910F910895CF93DF931A
:10365000CDB7DEB7AE014A5F5F4FFA01619171915C
:10366000AF0180917B2690917C260E940415DF910A
:10367000CF9108950F931F93CF93DF93E0917B2613
:10368000F0917C26238121FF1BC08C01D0E0C0E09B
:10369000F80181918F0160917B2670917C26DB017E
:1036A0001896ED91FC911997882331F01995892B83
:1036B00079F3DFEFCFEFECCF8AE01995892B19F082
:1036C0008FEF9FEF02C08D2F9C2FDF91CF911F9125
:1036D0000F910895FA01AA27283051F1203181F184
:1036E000E8946F936E7F6E5F7F4F8F4F9F4FAF4F0A
:1036F000B1E03ED0B4E03CD0670F781F891F9A1F1D
:10370000A11D680F791F8A1F911DA11D6A0F711DD0
:10371000811D911DA11D20D009F468943F912AE0DC
:10372000269F11243019305D3193DEF6CF010895C4
:10373000462F4770405D4193B3E00FD0C9F7F6CFF5
:10374000462F4F70405D4A3318F0495D31FD4052BD
:10375000419302D0A9F7EACFB4E0A6959795879553
:1037600077956795BA95C9F7009761057105089532
:103770009B01AC010A2E06945795479537952795DE
:10378000BA95C9F7620F731F841F951FA01D089576
:103790008F929F92AF92BF92CF92DF92EF92FF9261
:1037A0000F931F93CF93DF93EC016B0161157105AC
:1037B00019F0FB01808391837E01FFEFEF1AFF0A6E
:1037C0000881802F90E00E94BD1A892B11F0E7013B
:1037D000F3CF0D3239F47E0182E0E80EF11C09814D
:1037E00011E008C00B3229F47E0192E0E90EF11CD1
:1037F000098110E0E701219743E050E060E973E0C0
:10380000CE010E94271D892BC1F4239645E050E08C
:103810006BE873E0CE010E94271D892B09F42596E1
:10382000C114D10419F0F601C083D1831111F6C07F
:1038300060E070E080E89FE7FAC043E050E068E8AD
:1038400073E0CE010E94271D892B59F4C114D104C5
:1038500009F4E9C0F2E0EF0EF11CF601E082F1821A
:10386000E2C020E030E0A901C0E0D0E0F70160ED67
:10387000A62EA00E89E08A1530F1912F9260B92E04
:10388000812F887012FF04C0811124C0219622C0AC
:1038900081112197A5E0B0E00E949A1DDC01CB01C7
:1038A000880F991FAA1FBB1F9C01AD012A0D311D56
:1038B000411D511D283989E93807480789E1580712
:1038C00048F0166006C09EEFA9120AC013FD40C062
:1038D0001860B12E8FEFE81AF80A00811B2DC6CFB1
:1038E000802F8F7D8534A1F580818D3211F4106198
:1038F00006C08B3221F0319661E070E004C0818116
:10390000329662E070E080538A3018F0E61BF70BC5
:103910001FC060E070E060389CE079075CF4DB0178
:10392000AA0FBB1FAA0FBB1F6A0F7B1F660F771F53
:10393000680F711D3196DF0111978C9180538A3089
:1039400050F314FF03C0719561957109C60FD71F1D
:1039500011FF08C0C114D10429F0CF010197F6016D
:1039600080839183CA01B9010E944512212F2370DF
:10397000233019F04B015C0106C04B015C01B7FA22
:10398000B094B7F8B09420E030E0A901C501B401CB
:103990000E943F1D882309F43EC0D7FF06C0D19581
:1039A000C195D10907EA13E002C00FEB13E06801EB
:1039B000F8E1CF1AD10890E2E92EF12CCE15DF05FF
:1039C00074F0F8012591359145915491C501B401E8
:1039D0000E94D3124B015C01CE19DF09EFCF0450D6
:1039E0001109F594E7940C151D0541F78A2D880FF0
:1039F0008B2D881F8F3F49F020E030E0A901C501E1
:103A0000B4010E943F1D811106C082E290E08093C4
:103A10007F2690938026C501B40109C060E070E064
:103A200080E89FEF04C060E070E080EC9FE7DF91EA
:103A3000CF911F910F91FF90EF90DF90CF90BF90AB
:103A4000AF909F908F900895992788270895FB0144
:103A5000DC014150504088F08D9181341CF08B3551
:103A60000CF4805E659161341CF06B350CF4605E83
:103A7000861B611171F3990B0895881BFCCF0E947E
:103A8000441D08F481E00895990F0008550FAA0B12
:103A9000E0E8FEEF16161706E807F907C0F0121661
:103AA0001306E407F50798F0621B730B840B950B64
:103AB00039F40A2661F0232B242B252B21F40895B9
:103AC0000A2609F4A140A6958FEF811D811D089556
:103AD000DB018F939F930E949A1DBF91AF91A29F8C
:103AE000800D911DA39F900DB29F900D11240895FC
:103AF000A1E21A2EAA1BBB1BFD010DC0AA1FBB1FF2
:103B0000EE1FFF1FA217B307E407F50720F0A21B63
:103B1000B30BE40BF50B661F771F881F991F1A94D0
:103B200069F760957095809590959B01AC01BD01FA
:103B3000CF0108950E94A418A59F900DB49F900DE9
:0E3B4000A49F800D911D11240895F894FFCFCD
:103B4E0004000900080008000C000E00000000032D
:103B5E0000000000860E460E0000696E6974207328
:103B6E00657269616C005365742075702063616CB9
:103B7E006962726174696F6E20636F6D6D616E64E0
:103B8E000073657446656174757265436F6D6D6122
:103B9E006E64212000636F72726563742049442045
:103BAE00726573706F6E7365210049442072657380
:103BBE00706F6E7365206661696C65642E2E2E00C3
:103BCE005245504F52545F49445F494E4445582028
:103BDE003D2025640A00414343454C45524F4D4517
:103BEE00544552004C494E4541525F414343454C6A
:103BFE0045524154494F4E004759524F53434F502F
:103C0E0045004D41474E455449435F4649454C4456
:103C1E0000524F544154494F4E20564543544F5233
:103C2E000053657420526F746174696F6E566563CC
:103C3E00746F7221200053657420416363656C6557
:103C4E00726F6D65746572212000536574204C6926
:103C5E006E65617220416363656C65726F6D65742C
:103C6E006572212000536574204779726F21200000
:103C7E00536574204D61676E65746F6D6574657202
:103C8E0021200043616C6962726174696F6E204D10
:103C9E006F646521004F7065726174696F6E204D9F
:103CAE006F64652100583A2025302E3266207C2024
:103CBE00593A2025302E3266207C205A3A20253063
:103CCE002E3266207C202564200A004C4C303100B8
:103CDE0025732C2573004752303100475430310084
:103CEE0047533031004343303100256C6400252E9C
:103CFE0031660053473031003E30387C30333A2045
:103D0E0025732C25732C25732C25732C25732C25AC
:103D1E00732C25732C252E31662C25732C25732C94
:103D2E0025732C25732C25732C25733C000D002434
:103D3E004750524D430024474E524D4300783A208F
:103D4E0025302E32662C20793A2025302E32662CE4
:103D5E00207A3A2025302E32662C206163637572EC
:103D6E00617469653A202564200A004E3A20253098
:103D7E002E32662C20453A2025302E32662C2044D9
:103D8E003A2025302E32660A00783A2025302E321F
:103D9E00662C20793A2025302E32662C207A3A2055
:103DAE0025302E32662C20773A2025302E32662092
:103DBE006163637572617469653A2025302E3266CF
:043DCE00200A0000C7
:00000001FF
