S01400006265756E426F6172645350492E7372656392
S11300000C94C4010C94E5010C94E5010C94E501F5
S11300100C94E5010C94E5010C94E5010C94E501C4
S11300200C94E5010C94E5010C94E5010C94E501B4
S11300300C94E5010C94E5010C94E5010C94E501A4
S11300400C94E5010C94E5010C94E5010C94E50194
S11300500C94E5010C94E5010C94E5010C94E50184
S11300600C94E5010C94E5010C94E5010C94E50174
S11300700C94E5010C94E5010C94E5010C94E50164
S11300800C94E5010C94E5010C94E5010C94E50154
S11300900C94E5010C94E5010C94E5010C94E50144
S11300A00C94E5010C94E5010C94E5010C94E50134
S11300B00C94E5010C94E5010C94E5010C94E50124
S11300C00C94E5010C94E5010C94E5010C94E50114
S11300D00C94E5010C94E5010C94E5010C94E50104
S11300E00C94E5010C94E5010C94E5010C94E501F4
S11300F00C94E5010C94E5010C94E5010C94E501E4
S11301000C94E5010C94E5010C94E5010C94E501D3
S11301100C94E5010C94E5010C94E5010C94E501C3
S11301200C94E5010C94E5010C94E5010C94E501B3
S11301300C94E5010C94E5010C94E5010C94E501A3
S11301400C94E5010C94E5010C94E5010C94E50193
S11301500C94E5010C94E5010C94E5010C94E50183
S11301600C94E5010C94E5010C94E5010C94E50173
S11301700C94E5010C94E5010C94E5010C94E50163
S11301800C94E5010C94E5010C94E5010C94E50153
S11301900C94E5010C94E5010C94E5010C94E50143
S11301A00C94E5010C94E5010C94E5010C94E50133
S11301B00C94E5010C94E5010C94E5010C94E50123
S11301C00C94E5010C94E5010C94E5010C94E50113
S11301D00C94E5010C94E5010C94E5010C94230DB9
S11301E00C944B0D0C94E5010C94E5010C94E50181
S11301F00C94E5010C94E5010C94E5010763423687
S1130200B79BD8A71A39685618AEBAAB558C1D3CA3
S1130210B7CC5763BD6DEDFD753EF6177231BF0067
S11302200000803F08000000BE922449123EABAAA1
S1130230AA2ABECDCCCC4C3E00000080BEABAAAAFC
S1130240AA3E00000000BF000000803F0000000044
S113025000084178D3BB4387D1133D190E3CC3BD7D
S11302604282AD2B3E68EC8276BED98FE1A93E4C2A
S113027080EFFFBE01C4FF7F3F00000000000C942C
S1130280C10B0C94010C6E616E00696E6600004037
S11302907A10F35A00A0724E18090010A5D4E80091
S11302A000E87648170000E40B54020000CA9A3BA9
S11302B0000000E1F505000080969800000040422F
S11302C00F000000A08601000000102700000000BD
S11302D0E803000000006400000000000A000000C1
S11302E000000100000000002C76D888DC674F086D
S11302F023DFC1DFAE59E1B1B796E5E3E453C63A73
S1130300E651997696E8E6C28426EB898C9B62EDE9
S1130310407C6FFCEFBC9C9F40F2BAA56FA5F490A3
S1130320055A2AF75C936B6CF9676DC11BFCE0E41A
S11303300D47FEF520E6B500D0ED902E0300943570
S113034077050080841E080000204E0A000000C8C3
S11303500C333333330F986E12831141EF8D211414
S1130360893BE65516CFFEE6DB18D1844B381BF7E4
S11303707C1D901DA4BBE424203284725E22810083
S1130380C9F124ECA1E53D2711241FBECFEFCDBF59
S1130390DFE5DEBF00E00CBF12E2A0E0B0E2E4E97A
S11303A0F0E300E00BBF02C007900D92A034B10748
S11303B0D9F724E2A0E4B2E201C01D92AC32B20744
S11303C0E1F70E94930D0C9448180C940000E0E0AF
S11303D0F6E081E0828398E1908B22E0218320E49F
S11303E02183968BE0E6F6E0828380E1808B08959A
S11303F090910806892F817090FD10C00DC0208552
S113040020FF16C0A3EFB1E01197F1F700C0000080
S11304109150A9F7892F089581E00895E3EFF1E061
S11304203197F1F700C000009CE7E0E0F6E0E7CF89
S113043008950F931F93CF93DF93C82F062F80E463
S1130440809306060E94F801882369F180E1809375
S1130450660680E48093050684E0800F0E94890D7F
S113046080E00E94890D8C2F0E94890DEC2FF0E012
S1130470EB5BFD4D808191E0980F90830E94890D84
S1130480002361F0C1E4D3E2015010E00E5B1C4D87
S113049089910E94890DC017D107D1F780E180931B
S11304A0650681E004C080E48093050680E0DF9166
S11304B0CF911F910F910895E1E4F3E292EF9083BD
S11304C09091442221E0290F209344229183828336
S11304D06CE082E00E9419020895CF93C82F8EE346
S11304E090E20E94BA17E4E4F3E28DE493E21192FD
S11304F0E817F907E1F7C11104C081E080934423B0
S11305001AC0C13021F481E08093452314C0C23065
S113051021F481E0809346230EC0C33021F481E0AE
S11305208093482308C0C43031F4E1E4F3E281E06D
S113053083838483858381E08093C32387E00E943F
S11305405C02CF910895CF92DF92FF920F931F9395
S1130550CF93DF93F82E6B01022F132FD42FC52FC7
S113056089E590E20E94BA179601A8EEB3E00E94D2
S11305706D16E1E4F3E22DEF2083F18212821382FF
S11305801482658376838783908711861286138607
S1130590148605871687D787C08B61E182E00E94A5
S11305A01902DF91CF911F910F91FF90DF90CF90AF
S11305B00895EF92FF920F931F93CF93DF930E94BE
S11305C0F801882309F442C080E18093660680E044
S11305D00E94890D082F80E00E94890DC82F80E0B9
S11305E00E94890DD82F80E00E94890DEAE1F3E290
S11305F00083C183D283838310E01C2B1F770115F2
S1130600110529F480E18093650680E020C0045040
S11306101109B9F00F2EF1E4EF2EF3E2FF2EF02DC5
S1130620C0E0D0E080E00E94890DC038D10510F40C
S1130630F70180832196FFEFEF1AFF0AC017D10755
S113064088F380E18093650681E001C080E0DF915A
S1130650CF911F910F91FF90EF9008950E94E701B1
S11306600E947C0D80E180936506E0E0F6E080E482
S1130670858382E08683A7EEB3E01197F1F700C08B
S1130680000085830E94F8010E94F8010E94D902AB
S11306900E94F8010E94D902E1E4F3E289EF808329
S11306A0118262E082E00E9419020E94F8010E9415
S11306B0D9028823A1F080914123883F51F48DE62B
S11306C090E29F938F930E94A6170F900F9081E062
S11306D0089582E890E20E94BA1780E0089580E0CD
S11306E008957F928F929F92AF92BF92CF92DF92A2
S11306F0EF92FF920F931F93CF93DF93EAE1F3E21C
S1130700818190E0982F88272081822BE1E4F3E215
S11307102481438150E060E070E0BA01552744270A
S1130720722B2181422B2281522B409322235093FE
S11307302323609324237093252327812370722E0F
S1130740E284F12CFE2CEE242185E22A048510E0BB
S1130750102F00272385022BC685D0E0DC2FCC2761
S113076025854E01822A9F7709978A3091053CF0AE
S1130770A088B12CBA2CAA242785A22A02C0A12CB5
S1130780B12C0C974CF0E1E4F3E2C288D12CDC2CC0
S1130790CC248189C82A02C0C12CD12CC1E4D3E263
S11307A08D811F928F9388E990E29F938F930E948B
S11307B0A6178D810F900F900F900F908130D1F478
S11307C08EEA90E20E94BA17872D90E08093C823A6
S11307D09093C923E092C123F092C2230093CC23C7
S11307E01093CD23809235239092362381E0809319
S11307F04B2277C08430D1F48CEB90E20E94BA177C
S1130800872D90E08093312390933223E092292323
S1130810F0922A230093C4231093C52380923B2390
S113082090923C2384E080934B225BC08230D1F4CD
S113083080ED90E20E94BA17872D90E080933D23CB
S113084090933E23E0923F23F092402300932D2384
S113085010932E2380922B2390922C2382E080935A
S11308604B223FC08330D1F48AED90E20E94BA1744
S1130870872D90E080931E2390931F23E0922F23D3
S1130880F09230230093C6231093C723809233231E
S11308909092342383E080934B2223C0853009F562
S11308A089EE90E20E94BA17872D90E08093272367
S11308B090932823E092CA23F092CB230093392308
S11308C010933A238092182390921923A092202304
S11308D0B0922123C0923723D092382385E08093AD
S11308E04B22DF91CF911F910F91FF90EF90DF90FA
S11308F0CF90BF90AF909F908F907F900895CF93AB
S1130900DF93EC0189EF90E20E94BA1720E030E017
S1130910A901BE0185E00E94A302DF91CF91089551
S1130920CF93DF93EC018EE091E20E94BA1720E0AE
S113093030E0A901BE0181E00E94A302DF91CF91C2
S11309400895CF93DF93EC0182E291E20E94BA17FB
S113095020E030E0A901BE0184E00E94A302DF91FF
S1130960CF910895CF93DF93EC018DE391E20E9440
S1130970BA1720E030E0A901BE0182E00E94A30280
S1130980DF91CF910895CF93DF93EC0188E491E256
S11309900E94BA1720E030E0A901BE0183E00E9462
S11309A0A302DF91CF91089580914123813F41F4C7
S11309B080914323873021F4809146238093C3237D
S11309C00895CF938091080680FD15C00E94D90236
S11309D0C82F8823A9F080911C23833039F4809197
S11309E041238B3F51F40E9471030AC0823039F4D1
S11309F00E94D40405C0C0E003C0C0E001C0C0E050
S1130A008C2FCF910895CF92DF92EF92FF92CF93E4
S1130A10C62FBC01990F880B990B0E9410106B0113
S1130A207C016C2F70E0719561957109072E000CA3
S1130A30880B990B0E9410109B01AC0160E070E0E0
S1130A4080E090E40E9409119B01AC01C701B6014A
S1130A500E949C10CF91FF90EF90DF90CF9008956B
S1130A60609106208091C1239091C2230E940305C6
S1130A700895609106208091CC239091CD230E940B
S1130A8003050895609106208091352390913623C3
S1130A900E94030508956091042080912923909178
S1130AA02A230E9403050895609104208091C423A1
S1130AB09091C5230E9403050895609104208091BC
S1130AC03B2390913C230E94030508958091312398
S1130AD008956091022080913F23909140230E94C9
S1130AE0030508956091022080912D2390912E2377
S1130AF00E94030508956091022080912B23909118
S1130B002C230E94030508956091002080912F23D7
S1130B10909130230E9403050895609100208091F4
S1130B20C6239091C7230E94030508956091002075
S1130B3080913323909134230E940305089560919A
S1130B400A208091CA239091CB230E940305089523
S1130B5060910A208091392390913A230E940305E1
S1130B60089560910A2080911823909119230E947E
S1130B700305089560910A208091202390912123F8
S1130B800E94030508956091082080913723909175
S1130B9038230E94030508958091680680FF0CC0E5
S1130BA081E0809326238BE591E29F938F930E94AB
S1130BB0A6170F900F900895109226238DE691E2C8
S1130BC09F938F930E94A6170F900F9008950E94F1
S1130BD02E03882319F00E94CC0581E00895CF925A
S1130BE0DF92EF92FF920F931F93CF93DF93809145
S1130BF04B22813009F043C0809142228F5F809361
S1130C0042220E943005C62FD72F182F092F0E9489
S1130C103905F62EE72ED82EC92E0E9442052091C2
S1130C20C9232F932091C8232F939F938F937F934E
S1130C306F93CF92DF92EF92FF920F931F93DF9304
S1130C40CF938DE791E29F938F930E94A617809193
S1130C5068062DB73EB7205F3F4F2DBF3EBF80FFD4
S1130C600EC08091C8239091C9230297029738F44B
S1130C70809142228D3318F081E080934322DF91EA
S1130C80CF911F910F91FF90EF90DF90CF90089537
S1130C90CF92DF92EF92FF920F931F93CF93DF9344
S1130CA080914B22823009F043C0809141228F5FB2
S1130CB0809341220E946905C62FD72F182F092F30
S1130CC00E947205F62EE72ED82EC92E0E947B05AF
S1130CD020913E232F9320913D232F939F938F9315
S1130CE07F936F93CF92DF92EF92FF920F931F93B4
S1130CF0DF93CF938DE791E29F938F930E94A61782
S1130D00809168062DB73EB7205F3F4F2DBF3EBF91
S1130D1080FF0EC080913D2390913E23029702975D
S1130D2038F4809141228F3118F082E0809343227D
S1130D30DF91CF911F910F91FF90EF90DF90CF90B3
S1130D400895CF92DF92EF92FF920F931F93CF9368
S1130D50DF9380914B22833009F043C0809140227D
S1130D608F5F809340220E948405C62FD72F182FAF
S1130D70092F0E948D05F62EE72ED82EC92E0E942B
S1130D80960520911F232F9320911E232F939F9329
S1130D908F937F936F93CF92DF92EF92FF920F9393
S1130DA01F93DF93CF938DE791E29F938F930E94DC
S1130DB0A617809168062DB73EB7205F3F4F2DBF21
S1130DC03EBF80FF0EC080911E2390911F23029787
S1130DD0029738F4809140228D3318F083E0809399
S1130DE04322DF91CF911F910F91FF90EF90DF90FD
S1130DF0CF90089580914322811102C00E94EF0593
S1130E0080914322813011F40E944806809143224C
S1130E10823011F40E94A10608954F925F926F925E
S1130E207F928F929F92AF92BF92CF92DF92EF9276
S1130E30FF920F931F93CF93DF93EC014C805D805F
S1130E406E807F80C884D984EA84FB8402E014E243
S1130E50A3019201C301B2010E949C109B01AC0149
S1130E600E94010F9B01AC0160E070E080E89FE309
S1130E700E94000F4B015C01A7019601C701B60156
S1130E800E949C109B01AC010E94010F9B01AC01CC
S1130E90C501B4010E94000FF8016083718382834D
S1130EA093836C857D858E859F859B01AC010E9413
S1130EB0010F4B015C01688179818A819B819B01CF
S1130EC0AC010E94010FA30192010E949C102B010E
S1130ED03C01A5019401C701B6010E949C109B012D
S1130EE0AC01C301B2010E94010FF8016483758350
S1130EF086839783688179818A819B819B01AC0178
S1130F000E94010FA70196010E949C106B017C01B5
S1130F102C813D814E815F81C501B4010E949C10EA
S1130F209B01AC01C701B6010E94000FF801608764
S1130F30718782879387688179818A819B819B01EC
S1130F40AC010E94010F2C813D814E815F810E9482
S1130F509C106B017C01288539854A855B85C50118
S1130F60B4010E949C109B01AC01C701B6010E9410
S1130F70000FF80164877587868797876881798170
S1130F808A819B8188849984AA84BB849B01AC0157
S1130F900E949C109B01AC010E94010F9B01AC01BB
S1130FA060E070E080E89FE30E94000F6B017C0129
S1130FB0A5019401C501B4010E949C109B01AC01E0
S1130FC00E94010F9B01AC01C701B6010E94000FF2
S1130FD0F801608B718B828B938B6C817D818E8108
S1130FE09F819B01AC010E94010F288539854A85A8
S1130FF05B850E949C106B017C016C857D858E85D0
S11310009F859B01AC010E94010F288139814A818F
S11310105B810E949C109B01AC01C701B6010E9438
S1131020010FF801648B758B868B978B68817981AE
S11310308A819B819B01AC010E94010F288539851F
S11310404A855B850E949C106B017C016C857D85C3
S11310508E859F859B01AC010E94010F2C813D81EF
S11310604E815F810E949C109B01AC01C701B601B7
S11310700E94010FF801608F718F828F938F6C81B2
S11310807D818E819F819B01AC010E94010F288587
S113109039854A855B850E949C106B017C016C85B7
S11310A07D858E859F859B01AC010E94010F28815F
S11310B039814A815B810E949C109B01AC01C7016C
S11310C0B6010E94000FF801648F758F868F978F89
S11310D0688179818A819B81CC80DD80EE80FF806C
S11310E09B01AC010E949C109B01AC010E94010F6A
S11310F09B01AC0160E070E080E89FE30E94000F78
S11311004B015C01A7019601C701B6010E949C1026
S11311109B01AC010E94010F9B01AC01C501B4010C
S11311200E94000FF80160A371A382A393A3DF912F
S1131130CF911F910F91FF90EF90DF90CF90BF90D0
S1131140AF909F908F907F906F905F904F90089595
S11311504F925F926F927F928F929F92AF92BF92C3
S1131160CF92DF92EF92FF920F931F93CF93DF936F
S1131170CDB7DEB76097CDBFDEBF982E892E5B0159
S1131180E12CF12C65C0E416F506D1F00817190717
S1131190B9F0F901EE0FFF1FEE0FFF1F66246394F1
S11311A0712C6C0E7D1EE60DF71D4D905D906D90BB
S11311B07C90139740825182628273822F5F3F4FEB
S11311C00196149683309105F1F64F5F5F4F645F8B
S11311D07F4F4330510521F0DB0180E090E0D3CF15
S11311E02D853E854F85588969817A818B819C81C3
S11311F00E949C102B013C0129853A854B855C8516
S11312006D817E818F8198850E949C109B01AC0129
S1131210C301B2010E94000FF6016193719381939F
S113122091936F010F5F1F4F0330110539F0692D42
S1131230782D40E050E020E030E0CECFFFEFEF1A11
S1131240FF0A8CE0A80EB11CE3E0EE16F10421F0D5
S1131250650100E010E0EBCF6096CDBFDEBFDF910B
S1131260CF911F910F91FF90EF90DF90CF90BF909F
S1131270AF909F908F907F906F905F904F90089564
S1131280CF92DF92EF92FF920F931F93CF93DF934E
S1131290EC016C0184E2C80ED11C01E010E01DC019
S11312A0B801012E000C880B990B0E9410109B01B1
S11312B0AC01688179818A819B810E949C10699329
S11312C0799389939993119501951109CE15DF05A9
S11312D039F7E701CE14DF0429F07E018CE0E80E33
S11312E0F11CDECFDF91CF911F910F91FF90EF9012
S11312F0DF90CF9008954F925F926F927F928F927A
S11313009F92AF92BF92CF92DF92EF92FF92CF93D0
S1131310DF93CDB7DEB76297CDBFDEBF898B9A8BE3
S1131320DC0150968D909D90AD90BC905397909613
S11313304D905D906D907C9093975C968D919D916E
S11313400D90BC91A02D8D839E83AF83B887A9890E
S1131350BA8954968D919D910D90BC91A02D898749
S11313609A87AB87BC87E989FA89C484D584E684E3
S1131370F784808D918DA28DB38D8D879E87AF87E5
S1131380B88BA3019201C501B4010E949C1069832A
S11313907A838B839C8329853A854B855C856D8113
S11313A07E818F8198850E949C109B01AC0169818C
S11313B07A818B819C810E94000FE989FA892081BE
S11313C03181428153810E949C1069837A838B838B
S11313D09C83A7019601C301B2010E949C102B01BA
S11313E03C012D853E854F85588969857A858B8595
S11313F09C850E949C109B01AC01C301B2010E9418
S1131400000FA989BA8914962D913D914D915C9153
S113141017970E949C109B01AC0169817A818B8192
S11314209C810E94000F2B013C01A70196016D8154
S11314307E818F8198850E949C106B017C012D8593
S11314403E854F855889C501B4010E949C109B01BB
S1131450AC01C701B6010E94000FE989FA89208511
S11314603185428553850E949C109B01AC01C301C8
S1131470B2010E94010F6296CDBFDEBFDF91CF9112
S1131480FF90EF90DF90CF90BF90AF909F908F90A0
S11314907F906F905F904F9008956F927F928F929C
S11314A09F92AF92BF92CF92DF92EF92FF920F93EF
S11314B01F93CF93DF93CDB7DEB7A497CDBFDEBF25
S11314C0FC018E010F5F1F4F6E0125E2C20ED11C7D
S11314D0B8017C011DC0D3018D909D90AD90BC904E
S11314E0DA018D929D92AD92BD92AD0121503109E8
S11314F0BCE06B0E711C2115310569F724E0E20E86
S1131500F11C645F7F4F6C157D0511F4849616C041
S1131510AB01370123E030E0DECF4D915D916D9159
S11315207D914193519361937193E217F307A9F766
S1131530045F1F4FF9018217930729F09F01245F6D
S11315403F4FD801EACFA496CDBFDEBFDF91CF9144
S11315501F910F91FF90EF90DF90CF90BF90AF90CD
S11315609F908F907F906F9008954F925F926F92AB
S11315707F92AF92BF92CF92DF92EF92FF920F933E
S11315801F93CF93DF935C01062F172F60E070E069
S113159080E89FE30E946D0F2B013C01E501C02E02
S11315A0D12E84E2A80EB11C18C029913991499119
S11315B05991C301B2010E949C10F8016193719387
S11315C0819391938F01CE15DF0579F7FCE0CF0E5F
S11315D0D11CE701AE14BF0431F07E018CE0E80EAB
S11315E0F11C8601E2CFDF91CF911F910F91FF9003
S11315F0EF90DF90CF90BF90AF907F906F905F900F
S11316004F9008958F929F92AF92BF92CF92DF92A4
S1131610EF92FF920F931F93CF93DF93882E992E0F
S1131620FA011082118212821382148215821682A8
S113163017821086118612861386EB018A015B01DC
S113164084E2A80EB11C23C0699179918991999182
S1131650F70121913191419151917F010E949C1098
S11316609B01AC01F80160817181828193810E94A8
S1131670010FF8016083718382839383CC15DD05A8
S113168019F70C5F1F4FE601AC14BD0439F0E82CC8
S1131690F92C6E01FCE0CF0ED11CD6CFDF91CF9197
S11316A01F910F91FF90EF90DF90CF90BF90AF907C
S11316B09F908F9008958F929F92AF92BF92EF92D6
S11316C0FF920F931F93CF93DF93CDB7DEB7C85428
S11316D0D109CDBFDEBF8C017B01BE016B5D7F4FA5
S11316E082E094E20E94A808CE0185960E944009F7
S11316F082E094E20E947B094B015C01CE01859655
S11317000E944D0AA5019401BE016F5F7F4FCE0177
S113171085960E94B50AA701BE016F5F7F4FC8017D
S11317200E94020BC85BDF4FCDBFDEBFDF91CF91BC
S11317301F910F91FF90EF90BF90AF909F908F906B
S113174008958091B1229091B022891710F0891BDD
S113175008958C59891B0895CF93C091B0220E949B
S1131760A10B8823E1F3EC2FF0E0E45BFD4D8081D5
S113177091E09C0F943608F090E09093B022CF91C2
S113178008950E94AC0B90E008952091172391E0F6
S1131790920F80911623943610F09DE9920F8917C9
S11317A010F0891B08958C59891B08950F931F937A
S11317B0CF93DF93D82F00EA1BE0C1E202C0F80107
S11317C0C3830E94C50B8823D1F380911723E82F8C
S11317D0F0E0EE54FD4DD0838F5F843608F080E056
S11317E0E0EAF0E09281292F2E7F22838093172351
S11317F081E28093A30B9283DF91CF911F910F918C
S11318000895CF93DF93D82FCFEF03C0CC2391F06B
S1131810C1500E94C50B8823C9F3CC2371F0DA3080
S113182019F48DE00E94D60B8D2F0E94D60B80E018
S113183090E005C081E090E002C081E090E0DF919B
S1131840CF9108954F925F926F927F928F929F9261
S1131850AF92BF92EF92FF920F931F93CF934B01DE
S11318605C0107E010E0C9EFEE24E394F12CCC23F3
S113187054F5C501B4010E940E1020E030E041EEA1
S113188059E40E946D0F20E030E040E85FE30E94DD
S1131890000F2B013C01B701002E02C0660F771F19
S11318A00A94E2F7072E000C880B990B0E94101083
S11318B09B01AC01C301B2010E949C100E9459110A
S11318C00E94DF0F2CC0C501B4010E940E1020E05D
S11318D030E041EE59E40E946D0F2B013C01882752
S11318E09927801B910BB70102C0660F771F8A9559
S11318F0E2F7072E000C880B990B0E9410109B0135
S1131900AC01C301B2010E946D0F20E030E040E859
S11319105FE30E94000F0E9459110E94DF0F6115BE
S1131920704138F0CF5F01501109C83009F09FCFE2
S113193031C0CC237CF5C501B4010E940E1020E017
S113194030E041EE59E40E946D0F20E030E040E8C1
S11319505FE30E94000F4B015C012C2F332721957C
S11319600CF4309561E070E002C0660F771F2A9591
S1131970E2F7072E000C880B990B0E9410109B01B4
S1131980AC01C501B4010E949C100E9459110E942F
S1131990DF0F2AC0C501B4010E940E1020E030E020
S11319A041EE59E40E946D0F4B015C0161E070E06F
S11319B00C2E02C0660F771F0A94E2F7072E000C64
S11319C0880B990B0E9410109B01AC01C501B40156
S11319D00E946D0F20E030E040E85FE30E94000FBA
S11319E00E9459110E94DF0FE0EAF6E088E1828B41
S11319F098E09583918394E09283E0EAFBE0668328
S1131A007F70C295C07FC72BC783848380E28383A2
S1131A10E0EAF0E0828183608283E6E2F4E28CE033
S1131A2090E28083918382839383CF911F910F915E
S1131A30FF90EF90BF90AF909F908F907F906F90AA
S1131A405F904F9008951F920F920FB60F9211243A
S1131A500BB60F928F939F93EF93FF938091B122D4
S1131A60E82FF0E09091A00BE45BFD4D90838F5F35
S1131A70843608F080E09091B02289138093B122DB
S1131A80FF91EF919F918F910F900BBE0F900FBE1E
S1131A900F901F9018951F920F920FB60F9211245A
S1131AA00BB60F922F938F939F93EF93FF93809195
S1131AB0162390911723891769F0E82FF0E0EE546C
S1131AC0FD4D20812093A00B8F5F843608F080E0C9
S1131AD0891304C080E28093A30B892F809316237B
S1131AE0FF91EF919F918F912F910F900BBE0F90CB
S1131AF00FBE0F901F901895E0E6F6E080EB81830F
S1131B0080E4828380E1868B85838CE58093C009A1
S1131B1008958093C309E0ECF9E082818823ECF70F
S1131B208091C3090895CF92DF92EF92FF920F93B1
S1131B301F93CF93DF93CDB7DEB7CC54D109CDBF7C
S1131B40DEBFE0E6F6E084E08183858360E874E844
S1131B508EE190E00E94220C789480E090E0A0E076
S1131B60B0E489839A83AB83BC8380E090E0A0E8EF
S1131B70BFE38D839E83AF83B88780E090E0A0E4C9
S1131B80B0E489879A87AB87BC8784E2EAE1F0E214
S1131B90DE01999601900D928A95E1F7AE01435FBB
S1131BA05F4FBE01675D7F4FCE0101960E94020B1D
S1131BB08E01035F1F4FE12CF12C0F2EF3EACF2E81
S1131BC0F1E2DF2EF02DF8018081918122813381B1
S1131BD00C5F1F4F3F932F939F938F93FF92EF922E
S1131BE0DF92CF920E94A617FFEFEF1AFF0ACDBF34
S1131BF0DEBF93E0E916F10431F70E94E70588237C
S1131C0009F4EFC0809126238130F1F484E00E942E
S1131C106D0284E690E00E94900484E690E00E94C5
S1131C20B20484E690E00E94C3040F2EFAEBCF2E98
S1131C30F1E2DF2EF02D0F2EF8EEEF2EF1E2FF2E63
S1131C40F02D06E012E2BEC08111C7C084E690E028
S1131C500E94A10482E390E00E947F04E6CF0E94E8
S1131C60E104882309F45CC080914B22843009F09C
S1131C7057C00E944B0569837A838B839C830E949F
S1131C8054056D837E838F8398870E945D056987E1
S1131C907A878B879C870E9466051F928F938C8519
S1131CA08F938B858F938A858F9389858F9388856E
S1131CB08F938F818F938E818F938D818F938C815E
S1131CC08F938B818F938A818F9389818F93DF92F6
S1131CD0CF920E94A617BE01635F7F4FCE0101968B
S1131CE00E945B0B888D8F938F898F938E898F933E
S1131CF08D898F938C898F938B898F938A898F9306
S1131D0089898F9388898F938F858F938E858F93FD
S1131D108D858F93FF92EF920E94A617CDBFDEBFF1
S1131D200E94E104882309F44DC080914B22853040
S1131D3009F048C00E949F05698F7A8F8B8F9C8F12
S1131D400E94A8056D8F7E8F8F8F98A30E94B10586
S1131D5069A37AA38BA39CA30E94BA056DA37EA357
S1131D608FA398A70E94C3059F938F937F936F932C
S1131D7088A58F938FA18F938EA18F938DA18F931D
S1131D808CA18F938BA18F938AA18F9389A18F9319
S1131D9088A18F938F8D8F938E8D8F938D8D8F933D
S1131DA08C8D8F938B8D8F938A8D8F93898D8F9349
S1131DB01F930F930E94A617CE0149960E940D0708
S1131DC0CDBFDEBF80912623882309F448CF05C008
S1131DD00E94E10481110E94FA0680912623813039
S1131DE0B9F380E090E0C45BDF4FCDBFDEBFDF918D
S1131DF0CF911F910F91FF90EF90DF90CF900895B6
S1131E005058BB27AA270E94180F0C9462100E94F6
S1131E10541038F00E945B1020F039F49F3F19F4FD
S1131E2026F40C9451100EF4E095E7FB0C944B103F
S1131E30E92F0E94731058F3BA17620773078407D7
S1131E40950720F079F4A6F50C9495100EF4E0951E
S1131E500B2EBA2FA02D0B01B90190010C01CA0160
S1131E60A0011124FF27591B99F0593F50F4503E0B
S1131E7068F11A16F040A22F232F342F4427585FFD
S1131E80F3CF469537952795A795F0405395C9F715
S1131E907EF41F16BA0B620B730B840BBAF09150CD
S1131EA0A1F0FF0FBB1F661F771F881FC2F70EC06C
S1131EB0BA0F621F731F841F48F48795779567953F
S1131EC0B795F7959E3F08F0B0CF9395880F08F02B
S1131ED09927EE0F9795879508950E94810F0C948A
S1131EE062100E945B1058F00E94541040F029F4D4
S1131EF05F3F29F00C944B1051110C9496100C94E4
S1131F0051100E94731068F39923B1F3552391F390
S1131F10951B550BBB27AA2762177307840738F054
S1131F209F5F5F4F220F331F441FAA1FA9F335D0B1
S1131F300E2E3AF0E0E832D091505040E695001C65
S1131F40CAF72BD0FE2F29D0660F771F881FBB1F1F
S1131F50261737074807AB07B0E809F0BB0B802DFD
S1131F60BF01FF2793585F4F3AF09E3F510578F029
S1131F700C944B100C9496105F3FE4F3983ED4F30A
S1131F80869577956795B795F7959F5FC9F7880FFD
S1131F90911D9695879597F90895E1E0660F771F4F
S1131FA0881FBB1F621773078407BA0720F0621BE0
S1131FB0730B840BBA0BEE1F88F7E09508950E940B
S1131FC07B1088F09F5798F0B92F9927B751B0F03C
S1131FD0E1F0660F771F881F991F1AF0BA95C9F7A9
S1131FE014C0B13091F00E949510B1E008950C94A2
S1131FF09510672F782F8827B85F39F0B93FCCF355
S1132000869577956795B395D9F73EF49095809525
S1132010709561957F4F8F4F9F4F0895E89409C045
S113202097FB3EF490958095709561957F4F8F4F07
S11320309F4F9923A9F0F92F96E9BB279395F6951D
S1132040879577956795B795F111F8CFFAF4BB0F9B
S113205011F460FF1BC06F5F7F4F8F4F9F4F16C0FF
S1132060882311F096E911C0772321F09EE8872F89
S1132070762F05C0662371F096E8862F70E060E045
S11320802AF09A95660F771F881FDAF7880F9695BE
S1132090879597F9089597F99F6780E870E060E065
S11320A008959FEF80EC089500240A9416161706ED
S11320B018060906089500240A9412161306140635
S11320C005060895092E0394000C11F4882352F098
S11320D0BB0F40F4BF2B11F460FF04C06F5F7F4F50
S11320E08F4F9F4F089557FD9058440F551F59F037
S11320F05F3F71F04795880F97FB991F61F09F3FF1
S113210079F087950895121613061406551FF2CF19
S11321104695F1DF08C0161617061806991FF1CF69
S113212086957105610508940895E894BB27662790
S11321307727CB0197F908950E94AF100C94621091
S11321400E94541038F00E945B1020F0952311F087
S11321500C944B100C94511011240C9496100E9462
S1132160731070F3959FC1F3950F50E0551F629F54
S1132170F001729FBB27F00DB11D639FAA27F00DDC
S1132180B11DAA1F649F6627B00DA11D661F829F03
S11321902227B00DA11D621F739FB00DA11D621FE8
S11321A0839FA00D611D221F749F3327A00D611D05
S11321B0231F849F600D211D822F762F6A2F1124E7
S11321C09F5750409AF0F1F088234AF0EE0FFF1F1A
S11321D0BB1F661F771F881F91505040A9F79E3F71
S11321E0510580F00C944B100C9496105F3FE4F36F
S11321F0983ED4F3869577956795B795F795E795C7
S11322009F5FC1F7FE2B880F911D9695879597F9CF
S11322100895FA01EE0FFF1F309621053105A1F153
S11322206115710561F48038BFE39B0749F1689437
S11322309038810561F08038BFEF9B0741F0992306
S11322404AF5FF3FE1053105210519F1E8940894A9
S1132250E795D901AA2329F4AB2FBE2FF85FD0F359
S113226010C0FF5F70F4A695E0F7F73950F019F04D
S1132270FF3A38F49F779F930DD00F9007FC905846
S1132280089546F00C94511060E070E080E89FE3FC
S113229008954FE79F775F934F933F932F930E9447
S11322A051122F913F914F915F910E949C100C9479
S11322B085110E947B10E8F09E37E8F09639B8F457
S11322C09E3848F4672F782F8827985FF9CF869532
S11322D07795679593959539D0F3B62FB1706B0FB9
S11322E0711D811D20F487957795679593950C94BE
S11322F0B7110C94D2110C94961029F416F00C9486
S11323004B100C9495100C9451100E947B10A8F360
S11323109638A0F707F80F92E8942BE33AEA48EBD3
S11323205FE70E94B2100F920F920F924DB75EB703
S11323300F920E949912ECEFF1E00E94E0114F918C
S11323405F91EF91FF91E595EE1FFF1F49F0FE5756
S1132350E0684427EE0F441FFA95E1F74195550BC9
S11323600E9413120F9007FE0C94071208958823FD
S113237071F4772321F09850872B762F07C06623BA
S113238011F499270DC09051862B70E060E02AF07B
S11323909A95660F771F881FDAF7880F96958795A9
S11323A097F908959F3F31F0915020F487957795E0
S11323B06795B795880F911D9695879597F9089518
S11323C0DF93CF931F930F93FF92EF92DF927B01E2
S11323D08C01689406C0DA2EEF010E94AF10FE0152
S11323E0E894A5912591359145915591A6F3EF0176
S11323F00E94180FFE019701A801DA9469F7DF9093
S1132400EF90FF900F911F91CF91DF9108959B0161
S1132410AC0160E070E080E89FE30C946D0F0C94D5
S11324204B100C94D2110E947B10D8F39923C9F35A
S1132430940F511DA3F39150504094F059F0882308
S113244032F0660F771F881F91505040C1F79E3FAE
S113245051052CF7880F911D9695879597F9089546
S11324605F3FACF0983E9CF0BB27869577956795C7
S1132470B79508F4B1609395C1F7BB0F58F711F401
S113248060FFE8CF6F5F7F4F8F4F9F4FE3CF0C9478
S1132490961016F00C94D2110C94511068940C946C
S11324A04B100E947B10A8F39923C1F3AEF3DF9382
S11324B0CF931F930F93FF92C92FDD2788232AF010
S11324C02197660F771F881FDAF720E030E040E895
S11324D05FEB9FE3883920F0803E38F021968F77B8
S11324E00E94010FE4E2F2E004C00E94010FE1E562
S11324F0F2E00E94E0118B01BE01EC01FB2E6F574C
S113250071097595771F880B990B0E94101028E1AB
S113251032E741E35FE30E94AF10AF2D9801AE01B3
S1132520FF900F911F91CF91DF910E94180F0C948F
S11325306210FA01DC01AA0FBB1F9B01AC01BF575B
S113254028F4222733274427507820C0B75190F429
S1132550AB2F0024469537952795011CA395D2F3FC
S1132560002071F0220F331F441FB395DAF30ED00D
S11325700C94000F61307105A0E88A07B94630F465
S11325809B01AC016627772788279078309621F045
S1132590208331834283538308952F923F924F9235
S11325A05F926F927F928F929F92AF92BF92CF92DF
S11325B0DF92EF92FF920F931F93CF93DF93CDB7E8
S11325C0DEB76097CDBFDEBF7C011B016A01FC0151
S11325D016821782838181FF44C39E012F5F3F4F80
S11325E03901F7019381F10193FD859193FF819165
S11325F01F01882309F431C3853239F493FD859191
S113260093FF81911F01853239F4B70190E00E9454
S11326106A1756016501E5CF10E0512C912CFFE1BA
S1132620F915D8F08B3279F038F4803279F08332AE
S1132630A1F4F92DF0612EC08D3261F0803369F47C
S1132640292D21602DC0392D3260932E892D84606F
S1132650982E2AC0E92DE86015C097FC2DC020ED06
S1132660280F2A3088F496FE06C03AE0139F200D06
S11326701124122F19C08AE0589E200D1124522EC5
S1132680E92DE0629E2E10C08E3231F496FCE5C234
S1132690F92DF0649F2E08C08C3621F4292D206872
S11326A0922E02C0883641F4F10193FD859193FF87
S11326B081911F018111B3CF9BEB980F933020F4CC
S11326C0992D9061805E07C09BE9980F933008F0C4
S11326D066C1992D9F7E96FF16E09F73992E8536CD
S11326E019F49064992E08C0863621F4392F306885
S11326F0932E02C01111115097FE07C01C3350F4E1
S113270044244394410E27E00BC0183038F027E0EE
S113271017E005C027E09CE3492E02C0212F412C7D
S1132720560184E0A80EB11CF6016081718182819A
S11327309381042DA3010E947C166C01F981FC870E
S1132740F0FF02C0F3FF06C091FC06C092FE06C073
S113275000E205C00DE203C00BE201C000E08C857D
S11327608C7019F001115AC29BC297FE10C04C0C18
S1132770FC85F4FF04C08A81813309F44A9414145B
S113278074F528E0241578F588E0482E2CC096FCD2
S11327902AC0812F90E08C159D059CF03CEFC31658
S11327A03FEFD30674F0892D8068982E0AC0E2E0CA
S11327B0F0E0EC0FFD1FE10FF11D8081803319F46F
S11327C011501111F4CF97FE0EC044244394410ECE
S11327D0812F90E0C816D9062CF41C1904C0442497
S11327E0439401C010E097FE06C01C141D0434F489
S11327F0C601019605C085E090E002C081E090E04A
S113280001110196112331F0212F30E02F5F3F4F4A
S1132810820F931F252D30E08217930714F4581A62
S113282001C0512C892D897049F4552039F0B70124
S113283080E290E00E946A175A94F7CF002329F0AF
S1132840B701802F90E00E946A1793FC09C05520BD
S113285039F0B70180E390E00E946A175A94F7CFE9
S113286097FE4CC04601D7FE02C0812C912CC601B4
S113287088199909F301E80FF91FED87FE8796017E
S1132880241931092F87388B012F10E011950195F8
S113289011093FEF8316930629F4B7018EE290E005
S11328A00E946A17C814D9044CF08F85988988153A
S11328B0990524F4ED85FE85818101C080E3F1E072
S11328C08F1A91082D853E852F5F3F4F2D873E87B8
S11328D0801691062CF0B70190E00E946A17D9CFB8
S11328E0C814D90441F49A81963320F4953319F429
S11328F03C8534FF81E3B70190E04EC08A81813387
S113290019F09C859F7E9C87B70190E00E946A170E
S1132910111105C094FC18C085E690E017C0B701FA
S11329208EE290E00E946A171E5F82E001E0080FC9
S1132930F301E80FF11D8081B70190E00E946A174E
S1132940802F0113F3CFE6CF85E490E0B7010E9416
S11329506A17D7FC06C0C114D10441F4EC85E4FF26
S113296005C0D194C194D1088DE201C08BE2B701B6
S113297090E00E946A1780E32AE0C216D1042CF08A
S11329808F5FFAE0CF1AD108F7CFB70190E00E9429
S11329906A17B701C601C0960E946A1754C18336EC
S11329A031F0833779F0833509F056C020C05601E1
S11329B032E0A30EB11CF6018081898301E010E0AE
S11329C0630112C05601F2E0AF0EB11CF601C080E3
S11329D0D18096FE03C0612F70E002C06FEF7FEFDD
S11329E0C6010E945F178C01F92DFF7714C05601B0
S11329F022E0A20EB11CF601C080D18096FE03C075
S1132A00612F70E002C06FEF7FEFC6010E94541780
S1132A108C01F92DF0689F2EF3FD1AC0852D90E0EE
S1132A2008171907A8F4B70180E290E00E946A171A
S1132A305A94F4CFF60197FC859197FE81916F012A
S1132A40B70190E00E946A1751105A94015011097D
S1132A500115110579F7F7C0843611F0893661F54F
S1132A60560197FE09C024E0A20EB11CF601608154
S1132A707181828193810AC0F2E0AF0EB11CF6012C
S1132A8060817181072E000C880B990BF92DFF765C
S1132A909F2E97FF09C090958095709561957F4F03
S1132AA08F4F9F4FF0689F2E2AE030E0A3010E94D1
S1132AB0EA17C82EC6183FC0092D853721F40F7EAA
S1132AC02AE030E01DC0097F8F3691F018F4883574
S1132AD059F0C3C0803719F0883711F0BEC00061C7
S1132AE004FF09C0046007C094FE08C0066006C065
S1132AF028E030E005C020E130E002C020E132E00F
S1132B00560107FF09C084E0A80EB11CF6016081DC
S1132B1071818281938108C0F2E0AF0EB11CF6018D
S1132B206081718180E090E0A3010E94EA17C82EC1
S1132B30C6180F77902E96FE0BC0092D0E7FC11676
S1132B4050F494FE0AC092FC08C0092D0E7E05C004
S1132B50DC2C092D03C0DC2C01C0D12E04FF0DC0D8
S1132B60FE01EC0DF11D8081803311F4097E09C052
S1132B7002FF06C0D394D39404C0802F867809F052
S1132B80D39403FD11C000FF06C01C2DD51480F49E
S1132B90150D1D190DC0D51458F4B70180E290E04D
S1132BA00E946A17D394F7CFD51410F45D1801C0AE
S1132BB0512C04FF10C0B70180E390E00E946A1713
S1132BC002FF17C001FD03C088E790E002C088E55A
S1132BD090E0B7010CC0802F867859F001FF02C045
S1132BE08BE201C080E207FD8DE2B70190E00E9414
S1132BF06A17C11638F4B70180E390E00E946A179F
S1132C001150F7CFCA94F301EC0DF11D8081B70187
S1132C1090E00E946A17C110F5CF15C0F4E0F515D5
S1132C2060F584E0581A93FE1FC0011127C02C855B
S1132C3023FF2AC006E812E0392D3071932EF801E3
S1132C408491811124C0552009F4E4CCB70180E2B9
S1132C5090E00E946A175A94F6CFF7018681978113
S1132C6026C08FEF9FEF23C0B70180E290E00E945F
S1132C706A175A945110F8CFD8CF512CB701802F2E
S1132C8090E00E946A17D3CF0AE812E0D5CF9110E2
S1132C908052B70190E00E946A170F5F1F4FCFCF99
S1132CA023E0251510F483E0BDCF512CC0CF6096EE
S1132CB0CDBFDEBFDF91CF911F910F91FF90EF90B9
S1132CC0DF90CF90BF90AF909F908F907F906F9048
S1132CD05F904F903F902F900895A29FB001B39FB3
S1132CE0C001A39F700D811D1124911DB29F700D11
S1132CF0811D1124911D0895283008F027E0332701
S1132D00DA01990F311D87FD916000966105710507
S1132D1039F432602E5F3D9330E32A95E1F708954C
S1132D209F3F30F080387105610509F03C5F3C5FDE
S1132D303D93913008F08068911DDF93CF931F93EA
S1132D400F93FF92EF92192F987F9695E92F9695FE
S1132D509695E90FFF27E851FD4F99273327EE2475
S1132D60FF24A701E70105900894079428F4360F7F
S1132D70E71EF81E491F511D660F771F881F991FF4
S1132D800694A1F70590079428F4E70EF81E491F4E
S1132D90561FC11D770F881F991F661F0694A1F740
S1132DA00590079428F4F80E491F561FC71FD11D1C
S1132DB0880F991F661F771F0694A1F70590079443
S1132DC020F4490F561FC71FD81F990F661F771F7E
S1132DD0881F0694A9F784911095177041F0D69531
S1132DE0C79557954795F794E7941A95C1F7EEE878
S1132DF0F2E068941590159135916591959105903F
S1132E007FE27395E118F10A430B560BC90BD00905
S1132E10C0F7E10CF11E431F561FC91FD01D7EF4DD
S1132E20703311F48A95E6CFE894015030F0080F1E
S1132E300AF40027021708F4202F2395022F7A336F
S1132E4028F079E37D932A95E9F710C07D932A95BC
S1132E5089F6069497956795379517951794E11811
S1132E60F10A430B560BC90BD00998F023957E91B8
S1132E7073957A3308F070E37C932013B8F77E914E
S1132E8070617D9330F0839571E37D9370E32A95AF
S1132E90E1F71124EF90FF900F911F91CF91DF91F3
S1132EA0992787FD90950895FC0105906150704025
S1132EB00110D8F7809590958E0F9F1F0895FC01FF
S1132EC06150704001900110D8F7809590958E0F55
S1132ED09F1F08950F931F93CF93DF93FB012381CB
S1132EE021FD03C08FEF9FEF2CC022FF16C0468147
S1132EF05781248135814217530744F4A081B1815D
S1132F009D012F5F3F4F208331838C93268137812E
S1132F102F5F3F4F2683378314C08B01EC01FB01E5
S1132F200084F185E02D1995892BE1F6D8011696D8
S1132F308D919C911797019616968D939C93179754
S1132F40CE01DF91CF911F910F910895CF93DF931D
S1132F50CDB7DEB7AE014A5F5F4FFA01619171915F
S1132F60AF0180912824909129240E94CD12DF91F1
S1132F70CF9108950F931F93CF93DF93E09128246B
S1132F80F0912924238121FF1BC08C01D0E0C0E0F3
S1132F90F80181918F016091282470912924DB012B
S1132FA01896ED91FC911997882331F01995892B86
S1132FB079F3DFEFCFEFECCF8AE01995892B19F085
S1132FC08FEF9FEF02C08D2F9C2FDF91CF911F9128
S1132FD00F910895FA01AA27283051F1203181F187
S1132FE0E8946F936E7F6E5F7F4F8F4F9F4FAF4F0D
S1132FF0B1E03ED0B4E03CD0670F781F891F9A1F20
S1133000A11D680F791F8A1F911DA11D6A0F711DD3
S1133010811D911DA11D20D009F468943F912AE0DF
S1133020269F11243019305D3193DEF6CF010895C7
S1133030462F4770405D4193B3E00FD0C9F7F6CFF8
S1133040462F4F70405D4A3318F0495D31FD4052C0
S1133050419302D0A9F7EACFB4E0A6959795879556
S113306077956795BA95C9F7009761057105089535
S11330709B01AC010A2E06945795479537952795E1
S1133080BA95C9F7620F731F841F951FA01D089579
S1073090F894FFCFDE
S113309404000900080008000C000E0000000003EE
S11330A400000000010CC10B00000000803F000080
S11330B4004000004040000080400000A0400000A8
S11330C4C0400000E040000000410000104153658E
S11330D4742075702063616C6962726174696F6EC7
S11330E420636F6D6D616E6400736574466561740D
S11330F4757265436F6D6D616E64212000636F7238
S11331047265637420494420726573706F6E7365CD
S11331142100494420726573706F6E736520666183
S1133124696C65642E2E2E005245504F52545F49EB
S1133134445F494E444558203D2025640A004143D8
S113314443454C45524F4D45544552004C494E4518
S113315441525F414343454C45524154494F4E000B
S11331644759524F53434F5045004D41474E4554E0
S113317449435F4649454C4400524F544154494FD6
S11331844E20564543544F520053657420526F7475
S11331946174696F6E566563746F722120005365A0
S11331A47420416363656C65726F6D657465722127
S11331B42000536574204C696E6561722041636319
S11331C4656C65726F6D6574657221200053657456
S11331D4204779726F212000536574204D61676E16
S11331E465746F6D6574657221200043616C696256
S11331F4726174696F6E204D6F646521004F706550
S1133204726174696F6E204D6F64652100583A20B1
S113321425302E3266207C20593A2025302E326601
S1133224207C205A3A2025302E3266207C202564C6
S1133234200A00416363656C4E6F7274685B256495
S11332445D3A2025302E32660A00783A2025302E45
S113325432662C20793A2025302E32662C207A3A94
S11332642025302E32662C20616363757261746983
S1133274653A202564200A004E3A2025302E326611
S11332842C20453A2025302E32662C20443A202521
S1133294302E32660A00783A2025302E32662C20ED
S11332A4793A2025302E32662C207A3A2025302E85
S11332B432662C20773A2025302E326620616363EF
S11332C47572617469653A2025302E3266200A00CD
S9030000FC
